:020000040800F2
:100000006805012029020008F1390008F9320008CA
:10001000ED39000885040008DD3A00080000000002
:10002000000000000000000000000000F739000898
:10003000B706000800000000F5390008F93900088B
:10004000430200084302000843020008430200087C
:10005000430200084302000843020008430200086C
:10006000430200084302000843020008430200085C
:10007000430200084302000843020008430200084C
:10008000430200084302000843020008430200083C
:10009000430200084302000843020008430200082C
:1000A000430200084302000843020008430200081C
:1000B000430200084302000843020008430200080C
:1000C00043020008430200084302000843020008FC
:1000D00043020008430200084302000843020008EC
:1000E00043020008430200084302000843020008DC
:1000F00043020008430200084302000843020008CC
:1001000043020008430200084302000843020008BB
:1001100043020008430200084302000843020008AB
:10012000430200087D05000843020008430200085E
:10013000430200084302000843020008430200088B
:10014000430200084302000843020008430200087B
:10015000430200084302000843020008430200086B
:10016000430200084302000843020008430200085B
:1001700043020008430200086D050008000000006B
:10018000430200084302000800F002F800F03CF8C7
:100190000AA090E8000C82448344AAF10107DA45E2
:1001A00001D100F031F8AFF2090EBAE80F0013F0F8
:1001B000010F18BFFB1A43F0010318479C4D0000C4
:1001C000BC4D0000103A24BF78C878C1FAD8520755
:1001D00024BF30C830C144BF04680C6070470000C1
:1001E0000023002400250026103A28BF78C1FBD840
:1001F000520728BF30C148BF0B6070471FB504F0DD
:1002000083FE1FBD10B510BD00F007F91146FFF7C2
:10021000F5FF04F075FC00F025F903B4FFF7F2FFD9
:1002200003BC00F029F9000009488047094800474D
:10023000FEE7FEE7FEE7FEE7FEE7FEE7FEE7FEE796
:10024000FEE7FEE704480549054A064B70470000F3
:10025000C93A00088901000868C300206805012028
:1002600068C5002068C5002053EA020C00F06980D0
:100270002DE9F04B4FF00006002B1FBFB3FA83F5BA
:1002800003FA05F424FA05F65E4012BF1643B2FAEB
:1002900082F502FA05F4C5F120051EBF22FA05FC1D
:1002A00044EA0C04203556EA044C4FEA144418BFC3
:1002B000641C4FF000084FF00009904271EB030CF2
:1002C00039D3002919BFB1FA81F701FA07F6B0FA5C
:1002D00080F700FA07F6C7F120071EBF20FA07FCD7
:1002E00046EA0C062037B6FBF4FCA7EB0507103FE7
:1002F00007F01F0BCBF120060CFA0BFB2CFA06F6CD
:1003000044BFB3460026202FA4BF5E464FF0000B2B
:100310005BEA060C08BF4FF0010B19EB0B09ABFBB6
:10032000027C48EB0608C01B06FB02CC0BFB03CC8F
:1003300071EB0C01C1E70B46024641464846BDE859
:10034000F08B13B54FF000004FF00001AFF30080C9
:10035000BDE81C40704710B5203AC0F00B80B1E8F2
:100360001850203AA0E81850B1E81850A0E81850EA
:10037000BFF4F5AF5FEA027C24BFB1E81850A0E8F3
:10038000185044BF18C918C0BDE810405FEA827C0D
:1003900024BF51F8043B40F8043B08BF7047D20724
:1003A00028BF31F8023B48BF11F8012B28BF20F8C5
:1003B000023B48BF00F8012B70474FF0000200B528
:1003C000134694469646203922BFA0E80C50A0E878
:1003D0000C50B1F12001BFF4F7AF090728BFA0E826
:1003E0000C5048BF0CC05DF804EB890028BF40F8F2
:1003F000042B08BF704748BF20F8022B11F0804F34
:1004000018BF00F8012B7047704770477047000015
:100410000048704708C3002070477546FFF7F8FF93
:10042000AE4605006946534620F00700854618B0E1
:1004300020B5FFF707FFBDE820404FF000064FF062
:1004400000074FF000084FF0000B21F00701AC4609
:10045000ACE8C009ACE8C009ACE8C009ACE8C00928
:100460008D46704710B50446AFF300802046BDE8C6
:100470001040FFF7D2BE000001491820ABBEFEE7D6
:100480002600020000BFFEE770B50546AC6BA06B0E
:10049000406D022802D0012084F82500204600F09B
:1004A0008EF970BD70B506460025B46BA06A68B3BE
:1004B000A06B0068006800F40025A06A00F001004D
:1004C00078B975B1A06B0068C568E26A082303FBC0
:1004D00002510022A06B00F064FBA06A401EA062E3
:1004E0002FE0A06B0068006800F4002048BBA06B00
:1004F00000680569E26A082303FB02510122A06B30
:1005000000F04FFBA06A401EA0621AE0A06B0068DA
:10051000006800F4002020B1D4E90D010968C8602A
:100520000FE0A06B0068006800F4002048B9656B1C
:10053000E06A042101FB0050A16B09680861206B8F
:10054000A062A06A216B88420ED12068C06840F08A
:1005500001002168C8602068006800F002000228DD
:1005600002D1012084F8250070BD000010B50248BA
:1005700000F02CF910BD00002C00002010B502483E
:1005800001F018FB10BD00006C0000200146087847
:1005900010381823B0FBF3F20848805CC865032AC2
:1005A00005D908686FF30900001D886503E0086835
:1005B0006FF309008865886D70470000304F0008B0
:1005C000014600208A6A8B69CBB932B1012A0DD06D
:1005D000022A03D0032A10D10EE000BFCB6A03F039
:1005E0008073B3F1807F00D1012007E0CB6AB3F1C3
:1005F000C07F00D1012001E000E000BF34E08B6942
:10060000B3F5005F1AD132B1012A07D0022A03D014
:10061000032A11D10AE000BF01200EE0CB6A03F0EB
:100620008073B3F1807F00D1012006E0CB6AB3F183
:10063000C07F00D1012000E000BF15E032B1012AE7
:1006400005D0022A04D0032A0CD103E000BF00BF6A
:10065000012008E0CB6A03F08073B3F1807F00D102
:10066000012000E000BF00BF704710B50468636060
:100670008468402C04D10468A2600468E16003E04F
:100680000468A1600468E26010BD30B504682468A5
:1006900024F4802405682C60046863608468402C1E
:1006A00004D10468A2600468E16003E00468A1600A
:1006B0000468E26030BD704772B600BFFEE700001C
:1006C00070B50446B3F5804F13D1D1E9000540EA77
:1006D00005108D6840EA05208D6928438D8940EA20
:1006E000054054F82250064E3540284344F8220075
:1006F00003E06FF0704044F82200002070BD00005D
:100700000000F0CF70B50246086852F8200020F0D3
:1007100001000E6842F826008868082801D14023AD
:1007200000E00023486818438E683043CE683043A9
:100730000E6930434E693043CE6930430E6A304310
:100740004E6A30438E6A3043CE6A30430E6B40EAC5
:10075000060488690443C86B0443074D45F480656B
:1007600045F4E025086852F82000A84320430E68AD
:1007700042F82600002070BD7FFB080010B503463C
:10078000D1E9000440EA04108C6840EA04208C8916
:1007900040EA0444088A401E44EA0054087D801E52
:1007A00044EA00608C692043541C53F8244004F050
:1007B00040442043541C43F82400002010BD7047DF
:1007C00010B50446204604F019FA10BD70B5044671
:1007D0002068056905F0040004280ED121684861ED
:1007E000E06B40F00200E063042084F8250022481A
:1007F000A16B0865A06B01F0C9F905F002000228A1
:100800000ED121684861E06B40F00100E0630420F4
:1008100084F825001848A16B0865A06B01F0B6F9B3
:1008200005F01000102804D121684861204600F02E
:100830006EF805F00800082804D1216848612046B8
:1008400000F0AEF905F00100A0B12068006800F0EA
:100850000200022805D12068C06820F01E0021682F
:10086000C8602068C06820F001002168C860204688
:10087000FFF7A6FF70BD00008904000810B504460C
:100880000CB9012010BD94F8250040B9002084F86F
:100890002400204600F03CF8204600F039F8022001
:1008A00084F825002068006840F6F87188432168C4
:1008B0000860616960680843E1680843216908438A
:1008C000A1680843A1690843216A084321680968AF
:1008D000084321680860606810280BD1217F607F81
:1008E00041EA0021A07F41EA0041E07F41EA006047
:1008F000216888612068C06840F01E002168C860D7
:100900000020E063012084F825000020BAE770474A
:1009100010B586B00446142101A8FFF74EFD5D49CD
:10092000206888427ED100BF002000905A480068AD
:1009300040F00100584908600846006800F00100D6
:10094000009000BF00BF00BF00200090081F00689B
:1009500040F01000091F08600846006800F0100011
:10096000009000BF00BF00BF002000900846006854
:1009700040F0010008600846006800F001000090A7
:1009800000BF00BF00BF002000900846006840F094
:10099000040008600846006800F00400009000BFF2
:1009A00000BF00BF002000900846006840F0020031
:1009B00008600846006800F00200009000BF00BF19
:1009C00070200190022002900390032004900D20DB
:1009D000059001A9314801F027FB50200190022029
:1009E00002900390032004900D20059001A92C484B
:1009F00001F01AFB4FF470700190022002900390F6
:100A0000032004900D20059001A9264801F00CFB5D
:100A1000C0200190022002900390032004900D203A
:100A2000059000E034E001A91F4801F0FDFA1F48DD
:100A30001F4908604FF00070486000211C48816029
:100A4000C1604FF4806101618900416100218161D1
:100A50004FF48071C16100210162042141620321D0
:100A600081624FF40001C1620021016301F0C2F90B
:100A700008B1FFF721FE00BF0D48A063846300BFEB
:100A8000002211464E2001F0B9FF4E2001F0A6FFD2
:100A900006B010BD0000055034380240001002407E
:100AA00000000240000802400004024028640240A6
:100AB0006C0000202DE9F84304460F4615461E46FB
:100AC0004FF0000800BF94F82400012802D1022052
:100AD000BDE8F883012084F8240000BF022084F8D8
:100AE00025002068006840F4804021680860206884
:100AF000006820F002002168086020680068384320
:100B0000216808602448A16BC8632448A16BC864AD
:100B10000020A16B0865A0622063B6F5803F08D273
:100B2000226802F1280133462A46A06B01F0D8F969
:100B300024E01948A16B48640120A062E662656365
:100B400005E0E06A4008E062A06A4000A062E06A56
:100B5000B0F5803FF5D2A06A801EA062A06A206333
:100B6000E06A042101FB0058E06A0090226802F16B
:100B7000280143462A46A06B00F01CF82068006854
:100B800040F001002168086000BF002084F82400C4
:100B900000BF00BF9CE70000A5040008890400080E
:100BA0007047034612B91868C16001E01868016116
:100BB000002070472DE9F04704460E4617461D46B3
:100BC000DDF820804FF00009A068802804D14000A3
:100BD00060650120BDE8F087E06B18B1606C08B17A
:100BE000E06C18B9402060650120F3E700BF94F87D
:100BF0003400012801D10220ECE7012084F8340000
:100C000000BF94F83500012873D1022084F8350024
:100C1000002060652068006840F48020216808603A
:100C20002068056143463A4631462046FFF71DFDE0
:100C3000FA49206888425DD9F9492068884201D183
:100C4000202052E0F54948392068884201D120200F
:100C50004BE0F34960312068884201D1202044E014
:100C6000EE4918312068884201D120203DE0EC494E
:100C700018312068884201D1C01436E0E749303984
:100C80002068884201D1C0142FE0E54978312068FE
:100C9000884201D1C01428E0E04930312068884200
:100CA00001D1C01421E0DE4930312068884202D1F0
:100CB0004FF4001019E0D94918392068884202D150
:100CC0004FF4001011E0D64990312068884202D1DB
:100CD0004FF4001009E0D14948312068884202D120
:100CE0004FF4001001E04FF00060CC494C3908602F
:100CF00020E1EFE3CA49A831206888425CD9C8499D
:100D00002068884201D1202052E0C4494839206837
:100D1000884201D120204BE0C149603120688842DF
:100D200001D1202044E0BD4918312068884201D11A
:100D300020203DE0BA4918312068884201D1C01412
:100D400036E0B64930392068884201D1C0142FE01E
:100D5000B34978312068884201D1C01428E0AF49F6
:100D600030312068884201D1C01421E0AC493031D3
:100D70002068884202D14FF4001019E0A7491839C1
:100D80002068884202D14FF4001011E0A44990314C
:100D90002068884202D14FF4001009E09F49483191
:100DA0002068884202D14FF4001001E04FF000604B
:100DB0009A4950390860BDE0994948312068884215
:100DC0005CD997492068884201D1202052E093499C
:100DD00048392068884201D120204BE09049603199
:100DE0002068884201D1202044E08C4918312068D5
:100DF000884201D120203DE089491831206888428D
:100E000001D1C01436E0854930392068884201D1CB
:100E1000C0142FE0824978312068884201D1C01483
:100E200028E07E4930312068884201D1C01421E099
:100E30007B4930312068884202D14FF4001019E01C
:100E4000764918392068884202D14FF4001011E029
:100E5000734990312068884202D14FF4001009E0B4
:100E60006E4948312068884202D14FF4001001E0F9
:100E70004FF000606A491039C8605BE0684920683B
:100E8000884201D1202052E06449483920688842D4
:100E900001D120204BE0624960312068884201D1B5
:100EA000202044E05D4918312068884201D120208B
:100EB0003DE05B4918312068884201D1C01436E01A
:100EC000564930392068884201D1C0142FE0544976
:100ED00078312068884201D1C01428E04F49303170
:100EE0002068884201D1C01421E04D49303120688A
:100EF000884202D14FF4001019E04849183920689F
:100F0000884202D14FF4001011E045499031206829
:100F1000884202D14FF4001009E04049483120686E
:100F2000884202D14FF4001001E04FF000603C49CC
:100F3000103988603949206888425CD9384920686E
:100F4000884201D1102052E0344948392068884253
:100F500001D110204BE0324960312068884201D134
:100F6000102044E02D4918312068884201D110201A
:100F70003DE02B4918312068884201D1001536E048
:100F8000264930392068884201D100152FE02449D4
:100F900078312068884201D1001528E01F4930319E
:100FA0002068884201D1001521E01D4930312068B8
:100FB000884202D14FF4801019E01849183920688E
:100FC000884202D14FF4801011E015499031206819
:100FD000884202D14FF4801009E01049483120685E
:100FE000884202D14FF4801001E04FF080600B493D
:100FF0004C39086020E10A49A831206888425FD94D
:1010000007492068884201D1102055E0034948393A
:101010002068884206D110204EE00000586402404B
:1010200010600240F8492068884201D1102043E056
:10103000F6492068884201D110203DE0F249483944
:101040002068884201D1001536E0F049483920680F
:10105000884201D100152FE0EB4918312068884201
:1010600001D1001528E0E94918312068884201D1F2
:10107000001521E0E44930392068884202D14FF45C
:10108000801019E0E14930392068884202D14FF4DC
:10109000801011E0DC4930312068884202D14FF4E1
:1010A000801009E0D94930312068884202D14FF4DC
:1010B000801001E04FF08060D44968390860BBE0DF
:1010C000D1491839206888425BD9CF4960392068F6
:1010D000884201D1102050E0CC4960392068884214
:1010E00001D1102049E0C8492068884201D1102070
:1010F00043E0C6492068884201D110203DE0C24942
:1011000048392068884201D1001536E0BF49483986
:101110002068884201D100152FE0BB4918312068B2
:10112000884201D1001528E0B8491831206888426A
:1011300001D1001521E0B44930392068884202D13C
:101140004FF4801019E0B14930392068884202D14B
:101150004FF4801011E0AC4930312068884202D150
:101160004FF4801009E0A94930312068884202D14B
:101170004FF4801001E04FF08060A3497039C860DF
:101180005AE0A14960392068884201D1102050E01E
:101190009E4960392068884201D1102049E09A496F
:1011A0002068884201D1102043E098492068884295
:1011B00001D110203DE0944948392068884201D18E
:1011C000001536E0914948392068884201D1001560
:1011D0002FE08D4918312068884201D1001528E0A0
:1011E0008A4918312068884201D1001521E08649DA
:1011F00030392068884202D14FF4801019E08349C9
:1012000030392068884202D14FF4801011E07E49C5
:1012100030312068884202D14FF4801009E07B49C8
:1012200030312068884202D14FF4801001E04FF045
:10123000806075497039886074491839206888421F
:101240005BD9714960392068884201D1082050E09B
:101250006E4960392068884201D1082049E06A4916
:101260002068884201D1082043E06849206888420C
:1012700001D108203DE0644948392068884201D105
:10128000401536E0614948392068884201D140154F
:101290002FE05D4918312068884201D1401528E0CF
:1012A0005A4918312068884201D1401521E0564939
:1012B00030392068884202D14FF4002019E05349A8
:1012C00030392068884202D14FF4002011E04E49A5
:1012D00030312068884202D14FF4002009E04B49A8
:1012E00030312068884202D14FF4002001E04FF0F5
:1012F00000704649643908601FE14349483120685D
:1013000088425BD9404960392068884201D1082071
:1013100050E03E4960392068884201D1082049E008
:1013200039492068884201D1082043E037492068C4
:10133000884201D108203DE033494839206888427D
:1013400001D1401536E0314948392068884201D141
:1013500040152FE02C4918312068884201D14015F2
:1013600028E02A4918312068884201D1401521E03F
:10137000254930392068884202D14FF4002019E015
:10138000224930392068884202D14FF4002011E010
:101390001D4930312068884202D14FF4002009E015
:1013A0001A4930312068884202D14FF4002001E010
:1013B0004FF00070154968390860BEE012491839CD
:1013C000206888425DD9104960392068884201D17F
:1013D000082052E00D4960392068884201D1082078
:1013E0004BE009492068884201D1082045E00749BF
:1013F0002068884201D108203FE00349483920682D
:10140000884205D1401538E07060024070640240A7
:10141000FA492068884201D140152EE0F849206839
:10142000884201D1401528E0F449603120688842A3
:1014300001D1401521E0F24948392068884202D1A3
:101440004FF4002019E0ED4918312068884202D19C
:101450004FF4002011E0EA4918312068884202D197
:101460004FF4002009E0E54978312068884202D134
:101470004FF4002001E04FF00070E1498839C86066
:101480005BE0DF4978392068884201D1082051E0CB
:10149000DA4918392068884201D108204AE0D84941
:1014A00018392068884201D1082043E0D3494831E7
:1014B0002068884201D108203CE0D1496039206889
:1014C000884201D1401535E0CC492068884202D1DC
:1014D00040152FE04CE3CA492068884201D14015ED
:1014E00028E0C64960312068884201D1401521E0DA
:1014F000C34948392068884202D14FF4002019E0DE
:10150000BE4918312068884202D14FF4002011E012
:10151000BB4918312068884202D14FF4002009E00D
:10152000B64978312068884202D14FF4002001E0AA
:101530004FF00070B24988398860B0493031206876
:1015400088425BD9AE4978392068884201D10420AD
:1015500050E0AA4918392068884201D1042049E0A6
:10156000A74918392068884201D1042042E0A349E4
:1015700048312068884201D104203BE0A04960390D
:101580002068884201D1801534E09C492068884257
:1015900001D180152EE09A492068884201D180153A
:1015A00028E0964960312068884201D1801521E009
:1015B000934948392068884202D14FF4802019E0CD
:1015C0008E4918312068884202D14FF4802011E002
:1015D0008B4918312068884202D14FF4802009E0FD
:1015E000864978312068884202D14FF4802001E09A
:1015F0004FF0807081491C3908601EE1804930310C
:10160000206888425BD97E4978392068884201D1B8
:10161000042050E0794918392068884201D104201B
:1016200049E0774918392068884201D1042042E016
:10163000724948312068884201D104203BE070495A
:1016400060392068884201D1801534E06B492068F8
:10165000884201D180152EE069492068884201D175
:10166000801528E0654960312068884201D18015E5
:1016700021E0634948392068884202D14FF4802034
:1016800019E05E4918312068884202D14FF4802069
:1016900011E05B4918312068884202D14FF4802064
:1016A00009E0564978312068884202D14FF4802001
:1016B00001E04FF08070514920390860BDE0504989
:1016C0003039206888425BD94D4978392068884292
:1016D00001D1042050E0494918392068884201D1DD
:1016E000042049E0464918392068884201D1042085
:1016F00042E0424948312068884201D104203BE061
:101700003F4960392068884201D1801534E03B4967
:101710002068884201D180152EE03949206888422E
:1017200001D1801528E0354960312068884201D117
:10173000801521E0324948392068884202D14FF4AF
:10174000802019E02D4918312068884202D14FF4D9
:10175000802011E02A4918312068884202D14FF4D4
:10176000802009E0254978312068884202D14FF471
:10177000802001E04FF0807021498839C8605CE02A
:101780001F4978392068884201D1042052E01B4962
:1017900018392068884201D104204BE018491839D3
:1017A0002068884201D1042044E01449483120686F
:1017B000884201D104203DE0114960392068884207
:1017C00001D1801536E00D492068884201D180158D
:1017D00030E00B492068884201D180152AE0074992
:1017E00060312068884201D1801523E004494839DE
:1017F0002068884206D14FF480201BE02864024014
:1018000088600240DF492068884202D14FF480207E
:1018100010E0DD492068884202D14FF4802009E0C1
:10182000D84960312068884202D14FF4802001E01D
:101830004FF08070D449A0398860D24918312068AF
:1018400088425BD9D04990392068884201D1012073
:1018500050E0CC4930392068884201D1012049E06C
:10186000C94930392068884201D1012042E0C54988
:1018700030312068884201D101203BE0C2497839EB
:101880002068884201D1402034E0BE4918392068E0
:10189000884201D140202DE0BB4918392068884298
:1018A00001D1402026E0B74948312068884201D163
:1018B00040201FE0B44960392068884202D14FF4CB
:1018C000803017E0AF492068884202D14FF4803061
:1018D00010E0AD492068884202D14FF4803009E021
:1018E000A84960312068884202D14FF4803001E07D
:1018F0004FF48000A349343908601CE1A249183133
:10190000206888425BD9A04990392068884201D17B
:10191000012050E09B4930392068884201D10120E4
:1019200049E0994930392068884201D1012042E0DC
:10193000944930312068884201D101203BE092492E
:1019400078392068884201D1402034E08D49183927
:101950002068884201D140202DE08B491839206849
:10196000884201D1402026E08649483120688842DB
:1019700001D140201FE0844960392068884202D1AB
:101980004FF4803017E07F492068884202D14FF43D
:10199000803010E07C492068884202D14FF48030CA
:1019A00009E0784960312068884202D14FF48030E4
:1019B00001E04FF48000734938390860BBE0724998
:1019C0004839206888425BD96F499039206888423D
:1019D00001D1012050E06B4930392068884201D1A3
:1019E000012049E0684930392068884201D101204E
:1019F00042E0644930312068884201D101203BE057
:101A0000614978392068884201D1402034E05D493D
:101A100018392068884201D140202DE05A491839F0
:101A20002068884201D1402026E05649483120688C
:101A3000884201D140201FE0534960392068884224
:101A400002D14FF4803017E04E492068884202D11D
:101A50004FF4803010E04C492068884202D14FF4A6
:101A6000803009E0474960312068884202D14FF454
:101A7000803001E04FF480004349A039C8605AE04B
:101A8000414990392068884201D1012050E03D4908
:101A900030392068884201D1012049E03A49303983
:101AA0002068884201D1012042E036493031206867
:101AB000884201D101203BE03349783920688842CF
:101AC00001D1402034E02F4918392068884201D1E3
:101AD00040202DE02C4918392068884201D140204F
:101AE00026E0284948312068884201D140201FE083
:101AF000254960392068884202D14FF4803017E0D0
:101B000020492068884202D14FF4803010E01E49FD
:101B10002068884202D14FF4803009E019496031D1
:101B20002068884202D14FF4803001E04FF48000F9
:101B30001549A03988602068006840F016002168C7
:101B400008602068406940F0800021684861206C8E
:101B500008B9A06C28B12068006840F0080021682E
:101B600008602068006840F001002168086006E015
:101B700000BF002084F8340000BF4FF0020948463F
:101B8000FFF728B840640240A0600240014691F887
:101B90003500022803D080204865012070470520C9
:101BA00081F835000868006820F001000A681060BC
:101BB0000020F3E7F8B50446002000908C48006848
:101BC0004FF41651B0FBF1F7A56D2E6894F85C1038
:101BD00008208840304098B12068006800F0040078
:101BE00070B12068006820F004002168086094F853
:101BF0005C1008208840A860606D40F001006065BE
:101C000094F85C1001208840304068B12068406939
:101C100000F0800040B194F85C1001208840A8607A
:101C2000606D40F00200606594F85C10042088400C
:101C3000304068B12068006800F0020040B194F8BC
:101C40005C1004208840A860606D40F0040060656E
:101C500094F85C1010208840304078B32068006809
:101C600000F0080050B394F85C1010208840A86081
:101C70002068006800F4802080B12068006800F4CB
:101C8000002028B9206CC8B12046216C884715E097
:101C9000A06C98B12046A16C88470FE020680068CE
:101CA00000F4807028B92068006820F008002168DE
:101CB0000860206C10B12046216C884794F85C10B5
:101CC000202088403040002865D02068006800F05F
:101CD000100000285FD094F85C1020208840A86095
:101CE00094F83500052828D12068006820F01600F7
:101CF000216808602068406920F080002168486100
:101D0000206C08B9A06C28B12068006820F0080099
:101D10002168086094F85C103F208840A86001208A
:101D200084F8350000BF002084F8340000BF206D27
:101D300010B12046216D8847F8BD2068006800F486
:101D4000802080B12068006800F4002028B9606C11
:101D500010B12046616C88471DE0E06BD8B1204689
:101D6000E16B884717E02068006800F4807068B96C
:101D70002068006820F0100021680860012084F8C5
:101D8000350000BF002084F8340000BFE06B10B1C4
:101D90002046E16B8847606D38B3606D00F001004C
:101DA000F0B1052084F835002068006820F00100BB
:101DB0002168086000BF0098401C0090B84200D91C
:101DC00005E02068006800F001000028F3D100BFA2
:101DD000012084F8350000BF002084F8340000BFE3
:101DE000E06C10B12046E16C884700BFA4E700001A
:101DF000140000202DE9F0410446002500F014FAFB
:101E0000074614B90120BDE8F081606A00B100BF47
:101E1000022084F8350000BF002084F8340000BFA1
:101E20002068006820F00100216808600AE000F0E6
:101E3000FBF9C01B052805D920206065032084F824
:101E40003500E0E72068006800F001000028EED1CE
:101E50002068056821480540D4E901010843E1688C
:101E600008432169084361690843A1690843E1699E
:101E70000843216A08430543606A042803D1D4E972
:101E80000B0108430543206805602068456925F07B
:101E90000705606A0543606A04280DD1A06A0543FE
:101EA000E06A48B12046FEF78BFB28B14020606510
:101EB000012084F83500A6E7206845612046FEF73A
:101EC00065FB064694F85C103F208840B060002017
:101ED0006065012084F83500002094E73F8010F011
:101EE0002DE9F04704460D4616461F464FF0000800
:101EF000D4F8589000BF94F83400012802D1022091
:101F0000BDE8F087012084F8340000BF94F8350064
:101F1000012825D1022084F83500002060653B4669
:101F2000324629462046FEF7B0FB94F85C103F206D
:101F30008840C9F808002068006840F01600216851
:101F40000860206C28B12068006840F00800216813
:101F500008602068006840F001002168086006E021
:101F600000BF002084F8340000BF4FF00208404654
:101F7000C6E7000070B5044600F056F9064625464F
:101F8000681C10B104480078054400BF00F04CF90B
:101F9000801BA842FAD370BD1000002000B587B0A6
:101FA000142102A8FEF709FA1B48006808B107B01F
:101FB00000BD01201849086000BF002001901748AB
:101FC000006840F00100154908600846006800F00C
:101FD0000100019000BF00BF4FF680700290022008
:101FE000039000200490032005900C20069002A985
:101FF0000B4800F019F84EF2B370029002200390E3
:1020000000200490032005900C20069002A90548AA
:1020100000F00AF800BFCAE700000020383802408C
:1020200000100240000C0240F8B502460B460025A5
:10203000002400200021D6E0012606FA01F51E68E2
:1020400006EA0504AC4274D11E7906F00306012E9F
:1020500004D01E7906F00306022E13D190684F00BB
:102060000326BE40B0434F00DE68BE403043906060
:10207000506801268E40B0431E79C6F300168E408C
:10208000304350601E7906F00306032E09D0D06855
:102090004F000326BE40B0434F009E68BE40304311
:1020A000D0601E7906F00306022E13D1CF0802F18C
:1020B000200656F827004E07F70E0F26BE40B04305
:1020C0004F07FF0E1E69BE403043CF0802F12006C5
:1020D00046F8270010684F000326BE40B0431E7923
:1020E00006F003064F00BE40304310605E6806F401
:1020F0004036002E76D000BF002600963C4E366853
:1021000046F480463A4F3E603E46366806F48046C6
:10211000009600BF00BF374E8F0856F827008E0785
:10212000370F0F26BE40B043334EB24202D10026D5
:1021300024E057E0314EB24201D101261EE0304E7C
:10214000B24201D1022619E02E4EB24201D103263D
:1021500014E02D4EB24201D104260FE02B4EB242C4
:1021600001D105260AE02A4EB24201D1062605E039
:10217000284EB24201D1072600E008268F073F0F04
:10218000BE4030431B4E8F0846F82700224E306871
:10219000A0435E6806F4801606B120431E4E3060F0
:1021A000361D3068A0435E6806F4001606B1204371
:1021B000194E361D3060184E361F3068A0435E68D9
:1021C00006F4003606B12043134E361F3060361F2A
:1021D0003068A0435E6806F4803606B120430E4E98
:1021E000083E3060491C1029FFF426AFF8BD0000FE
:1021F0004438024008380140000002400004024018
:1022000000080240000C024000100240001402408E
:1022100000180240001C0240083C01400AB18161E4
:1022200001E00B04836170470148006870470000BB
:102230000800002070B504460CB9012070BD94F868
:102240003D0028B9002084F83C00204600F00EFB39
:10225000242084F83D002068006820F001002168F7
:1022600008602068006840F4004021680860206829
:10227000006820F400402168086000F0D9FC0546A1
:102280005C496068884206D85B48854201D20120DB
:1022900007E0002005E05948854201D2012000E016
:1022A0000020012800D1C9E75548B5FBF0F62068A9
:1022B000406820F03F003043216848604D49606825
:1022C000884201D8701C07E04FF4967070434FF4B9
:1022D0007A71B0FBF1F0401C2168096A21F03F01DE
:1022E00008432168086243496068884214D8681E20
:1022F00061684900B0FBF1F0401CC0F30B000428FA
:1023000001D204203DE0681E61684900B0FBF1F095
:10231000401CC0F30B0034E0A06838B9681E616847
:1023200001EB4101B0FBF1F0401C0AE0681E61685E
:1023300001EBC10202EB0111B0FBF1F0401C40F4D3
:102340008040C0F30B0008B901201AE0A06848B92A
:10235000681E616801EB4101B0FBF1F0401CC0F365
:102360000B000CE0681E616801EBC10202EB011179
:10237000B0FBF1F0401CC0F30B0040F4804040F48F
:1023800000402168C9694CF6FF72914308432168F7
:10239000C861D4E9070108432168096821F0C00138
:1023A000084321680860D4E903100843216889685C
:1023B00048F2FF329143084321688860D4E905015F
:1023C00008432168C96821F0FF0108432168C860FB
:1023D0002068006840F00100216808600020206447
:1023E000202084F83D000020206384F83E0000BFD8
:1023F00024E70000A086010080841E0000093D0043
:1024000040420F002DE9F843044689461746984696
:10241000089EFFF709FF054694F83D0020287DD16E
:1024200019230122B2492046009501F0B1F810B1FC
:102430000220BDE8F88300BF94F83C00012801D1D8
:102440000220F6E7012084F83C0000BF2068006805
:1024500000F0010028B92068006840F00100216800
:1024600008602068006820F400602168086022206D
:1024700084F83D00102084F83E000020206467624C
:10248000A4F82A80608D20859A48E0622B46324667
:102490004946204600F052FF08B10120C9E7208DCF
:1024A00088B900BF00200090206840690090206833
:1024B0008069009000BF00BF2068006840F4007091
:1024C0002168086047E0208D012817D12068006846
:1024D00020F480602168086000BF00200090206820
:1024E0004069009020688069009000BF00BF2068AC
:1024F000006840F40070216808602CE0208D0228FC
:1025000018D12068006820F4806021680860206885
:10251000006840F400602168086000E0E6E000BF69
:102520000020009020684069009020688069009039
:1025300000BF10E02068006840F4806021680860F7
:1025400000BF0020009020684069009020688069EA
:10255000009000BF00BFBAE0208D03287ED8208DF8
:10256000012815D12A463146204601F0B6F808B1B7
:1025700001205EE720680069616A0870606A401C9B
:102580006062208D401E2085608D401E60859EE02B
:10259000208D02282AD13346002257492046009533
:1025A00000F0F6FF08B1012043E72068006840F41E
:1025B00000702168086020680069616A0870606ABC
:1025C000401C6062208D401E2085608D401E60850D
:1025D00020680069616A0870606A401C6062208D32
:1025E000401E2085608D401E608570E033460022CD
:1025F00041492046009500F0CBFF08B1012018E7C3
:102600002068006820F48060216808602068006904
:10261000616A0870606A401C6062208D401E2085DF
:10262000608D401E60853346002233492046009568
:1026300000F0AEFF08B10120FBE62068006840F41E
:1026400000702168086020680069616A0870606A2B
:10265000401C6062208D401E208500E010E0608DEF
:10266000401E608520680069616A0870606A401CCD
:102670006062208D401E2085608D401E608526E0B2
:102680002A463146204601F028F808B10120D0E65C
:1026900020680069616A0870606A401C6062208D71
:1026A000401E2085608D401E608520684069C0F313
:1026B000800060B120680069616A0870606A401C2F
:1026C0006062208D401E2085608D401E6085208DBB
:1026D00000287FF441AF202084F83D00002084F8DA
:1026E0003E0000BF84F83C0000BFA2E60220A0E646
:1026F000020010000000FFFF040001002DE9F84374
:102700000446894616461F46DDF82080FFF78CFDFB
:10271000054694F83D0020287ED119230122514915
:102720002046009500F034FF10B10220BDE8F88388
:1027300000BF94F83C00012801D10220F6E70120F7
:1027400084F83C0000BF2068006800F0010028B950
:102750002068006840F00100216808602068006877
:1027600020F4006021680860212084F83D001020DA
:1027700084F83E000020206466626785608D2085B5
:102780003948E0622B4642464946204600F072FE38
:1027900008B10120CAE700BF00200090206840690E
:1027A000009020688069009000BF00BF44E02A4686
:1027B0004146204600F0D1FF50B1206C042805D1DD
:1027C0002068006840F40070216808600120ADE7CF
:1027D000606A007821680861606A401C6062608DF0
:1027E000401E6085208D401E208520684069C0F312
:1027F000800070B1208D60B1606A00782168086146
:10280000606A401C6062608D401E6085208D401EA5
:1028100020852A46414600E022E0204600F08AFE5C
:1028200050B1206C042805D12068006840F4007085
:1028300021680860012079E7208D0028B7D1206841
:10284000006840F4007021680860202084F83D0092
:10285000002084F83E0000BF84F83C0000BF65E71C
:10286000022063E7020010000000FFFF10B586B0F1
:102870000446142101A8FDF7A0FD1B4920688842E9
:1028800030D100BF002000901848006840F00200DE
:10289000164908600846006800F00200009000BF7A
:1028A00000BF4FF44060019012200290012003907D
:1028B000032004900420059001A90D48FFF7B4FB04
:1028C00000BF0020009009481030006840F48000EC
:1028D0000649103108600846006800F48000009046
:1028E00000BF00BF06B010BD0058004030380240A5
:1028F000000402400348006803490978084401497C
:1029000008607047080000201000002010B50D4836
:10291000006840F400700B4908600846006840F405
:10292000806008600846006840F4807008600320FA
:1029300000F0A2F80F2000F007F800F02BF80020BC
:1029400010BD0000003C024070B504460E480078FF
:102950004FF47A71B1FBF0F00C490968B1FBF0F566
:10296000284600F0AFFC08B1012070BD102C07D242
:1029700000222146501E00F041F80548046001E0A5
:102980000120F2E70020F0E71000002014000020F2
:102990000C00002008B500BF002000900E48006821
:1029A00040F480400C4908600846006800F480400C
:1029B000009000BF00BF00BF00200090081F00680B
:1029C00040F08050091F08600846006800F0805001
:1029D000009000BF00BF08BD4438024001460846D1
:1029E000002809DB00F01F0301229A4043099B00E5
:1029F00003F1E023C3F8002100BF70472DE9F05F29
:102A000080460D461646002701F06AF8074639460B
:102A10002A46334601F00700C0F1070ABAF1040F55
:102A200002D94FF0040A01E0C0F1070AD14600F1D3
:102A3000040ABAF1070F02D24FF0000A01E0A0F138
:102A4000030AD4464FF0010A0AFA09FAAAF1010A68
:102A50000AEA020A0AFA0CFA4FF0010B0BFA0CFB15
:102A6000ABF1010B0BEA030B4AEA0B04214640468B
:102A700001F03EF8BDE8F09F00BF00F00702064BF2
:102A800019684FF6FF031940044B0B4343EA022138
:102A9000014B196000BF70470CED00E00000FA0523
:102AA00070B504460D460CB9012070BD5848006849
:102AB00000F00700A84209D255490D700846006889
:102AC00000F00700A84201D00120EEE7207800F0D6
:102AD000020002281DD1207800F00400042805D14E
:102AE0004C48006840F4E0504A490860207800F003
:102AF0000800082805D14748006840F4604045496F
:102B000008604448006820F0F000A168084341498B
:102B10000860207800F00100A8B36068012807D1A0
:102B20003C4808380068C0F34040B8B90120BCE711
:102B30006068022802D06068032807D13548083849
:102B40000068C0F3406048B90120AEE7314808385A
:102B50000068C0F3400008B90120A6E72D480068CE
:102B600020F00300616808432A490860FFF75CFB16
:102B7000064609E0FFF758FB801B41F28831884286
:102B800002D9032091E707E02248006800F00C001A
:102B90006168B0EB810FEDD11D48006800F00700BF
:102BA000A84209D91A490D700846006800F00700CC
:102BB000A84201D0012078E7207800F00400042822
:102BC00007D11448006820F4E050E1680843114937
:102BD0000860207800F00800082808D10D48006837
:102BE00020F46040216940EAC1000A49086000F011
:102BF0002FF808490968C1F30311074A515CC8401E
:102C00000649086006480068FFF79EFE00204CE772
:102C1000003C024008380240384F000814000020F1
:102C20000C000020014800687047000014000020DC
:102C300000B5FFF7F7FF04490968C1F38221034A91
:102C4000515CC84000BD000008380240484F0008F1
:102C50002DE9F047002400250026A14625480068FC
:102C600000F00C0020B1042805D008283AD105E076
:102C7000DFF8849039E0DFF8849036E01D48001FCB
:102C8000006800F03F041B48001F006800F480004B
:102C900078B11A481749091F0968C1F38811A0FBC8
:102CA00001700146224600233846FDF7DDFA05464D
:102CB0000EE011480F49091F0968C1F38811A0FBF4
:102CC00001700146224600233846FDF7CDFA05463D
:102CD0000848001F0068C0F30140401C4600B5FBD7
:102CE000F6F902E0DFF8109000BF00BF4846BDE8EB
:102CF000F0870000083802400024F40000127A0037
:102D000070B586B006460C46154646BB00BF00208F
:102D100000902848006840F00100264908600846F5
:102D2000006800F00100009000BF00BF881501900E
:102D3000022002900320049000200390059001A936
:102D40001D48FFF771F91B482838006820F0EC6037
:102D500044EA0501084317492839086027E000BF05
:102D6000002000901348006840F0040011490860FA
:102D70000846006800F00400009000BF00BF48153E
:102D800001900220029003200490002003900590FF
:102D900001A90A48FFF748F906482838006820F0DA
:102DA000784044EAC501084302492839086006B062
:102DB00070BD0000303802400000024000080240B0
:102DC000F8B504460CB90120F8BD207800F00100E8
:102DD000002874D0F948006800F00C0004280DD0D9
:102DE000F648006800F00C00082813D1F348001FD3
:102DF000006800F48000B0F5800F0BD1EF48083870
:102E00000068C0F34040002859D06068002856D1BF
:102E10000120D9E700BF6068B0F5803F08D1E748DE
:102E20000838006840F48030E449083908601EE042
:102E30006068B0F5A02F0DD1E0480838006840F474
:102E40008020DE49083908600846006840F4803078
:102E500008600CE0D9480838006820F48030D74971
:102E6000083908600846006820F48020086000BF28
:102E7000606890B1FFF7D8F9054606E0FFF7D4F98E
:102E8000401B642801D903209EE7CC48083800681D
:102E9000C0F340400028F1D011E0FFF7C5F9054626
:102EA00006E0FFF7C1F9401B642801D903208BE736
:102EB000C24808380068C0F340400028F1D12078AB
:102EC00000F0020002285FD1BC48006800F00C004E
:102ED00058B1BA48006800F00C0008281CD1B74867
:102EE000001F006800F48000B0B9B44808380068DA
:102EF000C0F3400020B1E068012801D0012063E761
:102F0000AE480838006820F0F800216940EAC100A6
:102F1000AA490839086037E0E06800B30120A849F1
:102F20000860FFF781F9054606E0FFF77DF9401BD1
:102F3000022801D9032047E7A04808380068C0F3F9
:102F400040000028F1D09D480838006820F0F800C3
:102F5000216940EAC10099490839086014E000205D
:102F600097490860FFF760F9054606E0FFF75CF94E
:102F7000401B022801D9032026E790480838006842
:102F8000C0F340000028F1D1207800F008000828A4
:102F90002CD16069A8B101208A490860FFF744F983
:102FA000054606E0FFF740F9401B022801D903203F
:102FB0000AE782486C300068C0F340000028F1D076
:102FC00014E000207F490860FFF72EF9054606E06F
:102FD000FFF72AF9401B022801D90320F4E67748BD
:102FE0006C300068C0F340000028F1D1207800F078
:102FF0000400042870D1002770483830006800F0C1
:10300000805090B900BF002000906C4838300068B4
:1030100040F080506949383108600846006800F087
:103020008050009000BF00BF01276748006800F48F
:103030008070B0B96448006840F4807062490860EC
:10304000FFF7F2F8054606E0FFF7EEF8401B02280E
:1030500001D90320B8E65C48006800F480700028BD
:10306000F2D000BFA068012808D154486830006839
:1030700040F001005149683108601DE0A068052852
:103080000DD14E486830006840F004004B4968316B
:1030900008600846006840F0010008600CE04748FE
:1030A0006830006820F00100444968310860084633
:1030B000006820F00400086000BFA068A8B1FFF716
:1030C000B3F8054609E0FFF7AFF8401B41F288313D
:1030D000884202D9032077E626E038486830006845
:1030E000C0F340000028EED013E0FFF79DF805463E
:1030F00008E0FFF799F8401B41F28831884201D976
:10310000032061E62D4868300068C0F340000028C5
:10311000EFD1012F07D129483830006820F08050C6
:1031200026493831086000BFA069002845D02348EF
:10313000006800F00C0008285DD0A069022845D185
:1031400000201F490866FFF76FF8054606E0FFF705
:103150006BF8401B022801D9032035E617480838D0
:103160000068C0F340600028F1D1D4E907010843AA
:10317000616A40EA81110122A06AC2EB500041EA73
:1031800000412C20005D41EA00600C49091F0860E5
:1031900001200B490866FFF747F8054606E0FFF7F0
:1031A00043F8401B022801D903200DE603480838E4
:1031B0000068C0F340600028F1D049E008380240C0
:1031C00000004742800E4742007000400020214925
:1031D0000866FFF729F8054606E0FFF725F8401BCB
:1031E000022801D90320EFE51B480068C0F34060C6
:1031F0000028F2D12CE0A069012800D1E4E51648AE
:10320000001D0668A069012820D006F48001E0694D
:1032100081421BD106F03F01206A814216D147F658
:10322000C0703040616AB0EB811F0FD106F44031AD
:103230000122A06AC2EB5000B1EB004F06D106F0AC
:1032400070612C20005DB1EB006F01D00120BBE567
:103250000020B9E5000047420038024070B504463E
:103260000E4615460CB9012070BD94F8490028B9E6
:10327000002084F84800204600F01FF804F10801FF
:103280002068FDF73FFA3146A2682068FDF776FA1C
:103290002946236BD4E90102FDF712FAA1682068E0
:1032A00050F8210040F00100A268216841F8220096
:1032B000012084F849000020D6E710B50446FEF747
:1032C0006DFE10BD70B504462546681EB0F1807FC6
:1032D00001D301200FE0681E4FF0E02148610F216B
:1032E0004FF0FF3000F004FC00204FF0E021886137
:1032F00007200861002070BD00BFFEE70146086896
:103300004069C0F38020B0B16FF480600A685061FA
:1033100000200863202081F83D00002081F83E0055
:10332000086C40F00400086400BF002081F83C00F5
:1033300000BF012070470020FCE700002DE9F843A2
:1033400004460D4690461E46E76A2068006840F431
:10335000806021680860082F04D0012F02D017F583
:10336000803F06D12068006840F4807021680860C2
:1033700008E0206B112805D12068006840F48070B7
:1033800021680860434600224FF001112046009654
:1033900000F0FEF860B12068006800F48070B0F5BD
:1033A000807F02D14FF4007020640320BDE8F883D1
:1033B0002069B0F5804F05D1E8B240F001002168E6
:1033C000086149E005F44070F02141EAE01021680D
:1033D0000861334642462649204600F01CF908B1F0
:1033E0000120E3E7E8B221680861334642462049FC
:1033F000891F204600F00FF908B10120D6E700BF71
:10340000002000902068406900902068806900904A
:1034100000BF00BF2068006840F480702168086029
:10342000434600224FF001112046009600F0B0F80C
:1034300058B12068006800F48070B0F5807F02D138
:103440004FF4007020640320B0E705F44070F121D0
:1034500041EAE01021680861334642460449891F69
:10346000204600F0D8F808B101209FE700209DE732
:10347000080001002DE9F84304460D46174698461A
:10348000E66A082E04D0012E02D016F5803F06D140
:103490002068006840F480702168086008E0206BB4
:1034A000122805D12068006840F480702168086007
:1034B0003B4600224FF001112046CDF8008000F07D
:1034C00067F860B12068006800F48070B0F5807F14
:1034D00002D14FF4007020640320BDE8F883206916
:1034E000B0F5804F04D105F0FE002168086112E0BC
:1034F00005F44070F02141EAE0102168086143467C
:103500003A460B49204600F086F808B10120E4E76E
:10351000E8B22168086143463A460549891F2046BA
:1035200000F079F808B10120D7E70020D5E70000C6
:103530000800010070B504460D46164620E02046FE
:10354000FFF7DCFE08B1012070BD681CC0B1FEF7BA
:103550006BFE801BA84200D895B900202063202074
:1035600084F83D00002084F83E00206C40F02000EC
:10357000206400BF002084F83C0000BF0120E3E786
:1035800020684069C0F380000028D8D00020DBE725
:103590002DE9F04104460D4617461E46DDF8188019
:1035A0001CE0701CD0B1FEF73FFEA0EB0800B0425B
:1035B00000D89EB900202063202084F83D00002020
:1035C00084F83E00206C40F02000206400BF002002
:1035D00084F83C0000BF0120BDE8F081C5F307403E
:1035E00001280AD120684069A9B20840A9B28842DE
:1035F00001D101200BE0002009E020688069A9B218
:103600000840A9B2884201D1012000E00020B84260
:10361000C7D00020E0E72DE9F04104460D461646EC
:103620001F463DE020684069C0F38020E8B1206873
:10363000006840F40070216808606FF480602168C1
:10364000486100202063202084F83D00002084F899
:103650003E00206C40F00400206400BF002084F88D
:103660003C0000BF0120BDE8F081701CC0B1FEF736
:10367000DBFDC01BB04200D896B90020206320209B
:1036800084F83D00002084F83E00206C40F02000CB
:10369000206400BF002084F83C0000BF0120E2E766
:1036A000C5F3074001280AD120684069A9B2084043
:1036B000A9B2884201D101200BE0002009E0206876
:1036C0008069A9B20840A9B2884201D1012000E076
:1036D00000200028A6D00020C5E770B504460D469E
:1036E000164632E020684069C0F30010A0B16FF0C8
:1036F00010002168486100202063202084F83D00EC
:10370000002084F83E00206C206400BF002084F874
:103710003C0000BF012070BDFEF786FD801BA84263
:1037200000D895B900202063202084F83D000020B7
:1037300084F83E00206C40F02000206400BF002090
:1037400084F83C0000BF0120E5E720684069C0F331
:1037500080100028C6D00020DDE770B504460D4675
:10376000164620E02046FFF7C9FD08B1012070BDD4
:10377000681CC0B1FEF758FD801BA84200D895B95F
:1037800000202063202084F83D00002084F83E00C3
:10379000206C40F02000206400BF002084F83C0032
:1037A00000BF0120E3E720684069C0F3C010002893
:1037B000D8D00020DBE7000010B50A480A490860AD
:1037C000002048602021084881608021C1600021DC
:1037D0000161416181610162FDF750F808B1FCF7B8
:1037E0006BFF10BD000005502C00002008B500BF85
:1037F000002000900A48006840F4800008490860F2
:103800000846006800F48000009000BF00BF00225E
:1038100011463920FFF7F2F83920FFF7DFF808BD2D
:103820003038024000B587B01C216846FCF7C5FD62
:103830004FF0204018490860184848600020886010
:1038400000211548C16001611021416100218161A1
:10385000C161016241624FF4805181620021C16205
:103860000163416381634164062000900F20019051
:103870000620029000200390102004901120059053
:1038800000200690002269460348FFF7E7FC08B1D4
:10389000FCF712FF07B000BD20010020040100A0CA
:1038A00000B587B0142102A8FCF787FD00BF0020F7
:1038B00001903C48006840F010003A490860084612
:1038C000006800F01000019000BF00BF00BF0020A2
:1038D00001900846006840F08000086008460068D3
:1038E00000F08000019000BF00BF00BF00200190E9
:1038F0000846006840F0010008600846006800F0D3
:103900000100019000BF00BF00BF002001900846E9
:10391000006840F0020008600846006800F00200FD
:10392000019000BF00BF00BF002001900846006862
:1039300040F0080008600846006800F008000190A8
:1039400000BF00BF00BF002001900846006840F0A3
:10395000040008600846006800F00400019000BF01
:1039600000BF002202211048FEF758FC02200290FE
:103970000120039000200490059002A90A48FEF758
:1039800053FB4FF4807002900220039000200490BB
:10399000032005900020069002A90448FEF744FB8E
:1039A00007B000BD30380240000402400000024071
:1039B00010B50B480B4908600B48486000210948C6
:1039C0008160C1604FF480410161002141618161EA
:1039D000C1610162FEF72EFC08B1FCF76DFE10BD5F
:1039E00000580040CC000020A086010000BFFEE788
:1039F00000BFFEE77047704710B5FEF77BFF10BDB4
:103A000000B593B0302107A8FCF7D7FC142102A819
:103A1000FCF7D3FC00BF002001902948006840F06B
:103A20008050274908600846006800F080500190E7
:103A300000BF00BF00BF002001902248006840F492
:103A40008040204908600846006800F480400190EA
:103A500000BF00BF032007904FF480300890012082
:103A60000A9010200B9002200D9041050E91042128
:103A70000F91A8211091022111910421129107A800
:103A8000FFF79EF908B1FCF717FE0F200290022005
:103A90000390002004904FF4A05005904FF4805004
:103AA0000690052102A8FEF7FBFF08B1FCF704FE13
:103AB000002211461046FFF723F913B000BD0000A5
:103AC00040380240007000400348006840F4700035
:103AD000014908607047000088ED00E000BFFEE784
:103AE00002480068C0F30220704700000CED00E0BF
:103AF00010B5002804DB0A07130E054A135406E02C
:103B00000A07140E034A00F00F031B1FD45410BD04
:103B100000E400E018ED00E038B50A20FEF72AFACC
:103B20001148006800901148009901F033F801F045
:103B300003F804460CB1FCF7BFFD01F065F804433F
:103B400001F094F8044301F0E7F80443012001F088
:103B5000C9F8044301F00AF904430A20FEF70AFAFF
:103B60000CB1FCF7A9FD38BD2C4F0008CC0000209B
:103B700010B586B0182209496846FCF7ECFB1822FC
:103B800069460748FCF7E7FB054800F02FFE0446AE
:103B90000CB1FCF791FD06B010BD0000144F0008F9
:103BA0007001002030B501460888C3120888C0F3B0
:103BB0008415087800F01F045819204400EB001009
:103BC00000EB8000020AD00240EA8210104380B26B
:103BD00030BD014648880A88801A401CCA888B88F4
:103BE000D21A521C5043704738B5002000906846E6
:103BF00000F09EFD04462CB9BDF8000049F24131A9
:103C0000884201D0012038BD2046FCE710B52924A8
:103C100009490968886800BF0749096801B108B9FE
:103C2000012100E0002101B105E00348006881683E
:103C30002046884700BF10BD180000200CB5044A7C
:103C400006CACDE9001200990160019941600CBDDE
:103C5000504F0008014608884A8890420ADC48888C
:103C6000B0F5A07F06DC8888CA88904202DCC8884C
:103C7000F02801DD012070470020FCE71CB5CB20B7
:103C80000190FE4800688068009000BFFB48006813
:103C900008B1009808B9012000E0002000B107E059
:103CA000F648006880680090DDE90010884700BF92
:103CB00039200190F14800684068009000BFEF484B
:103CC000006808B1009808B9012000E0002000B1A8
:103CD00007E0EA48006840680090DDE90010884786
:103CE00000BF2C200190E54800684068009000BFAC
:103CF000E248006808B1009808B9012000E00020FF
:103D000000B107E0DD48006840680090DDE9001080
:103D1000884700BF00200190D848006840680090A4
:103D200000BFD648006808B1009808B9012000E03B
:103D3000002000B107E0D148006840680090DDE94C
:103D40000010884700BF34200190CC4800684068CC
:103D5000009000BFC948006808B1009808B9012068
:103D600000E0002000B107E0C4480068406800900F
:103D7000DDE90010884700BF02200190BF480068BD
:103D80004068009000BFBD48006808B1009808B9BD
:103D9000012000E0002000B107E0B848006840685A
:103DA0000090DDE90010884700BFCF200190B348A4
:103DB00000688068009000BFB048006808B10098B3
:103DC00008B9012000E0002000B107E0AB4800681E
:103DD00080680090DDE90010884700BF0020019056
:103DE000A64800684068009000BFA448006808B179
:103DF000009808B9012000E0002000B107E09F48CA
:103E0000006840680090DDE90010884700BFC120CD
:103E100001909A4800684068009000BF9748006889
:103E200008B1009808B9012000E0002000B107E0C7
:103E30009248006840680090DDE90010884700BFA4
:103E4000302001908D4800684068009000BF8B488A
:103E5000006808B1009808B9012000E0002000B116
:103E600007E08648006840680090DDE90010884758
:103E700000BFE8200190814800688068009000BF82
:103E80007E48006808B1009808B9012000E00020D1
:103E900000B107E07948006880680090DDE9001013
:103EA000884700BF852001907448006840680090F2
:103EB00000BF7248006808B1009808B9012000E00E
:103EC000002000B107E06D48006840680090DDE91F
:103ED0000010884700BF00200190684800684068D3
:103EE000009000BF6548006808B1009808B901203B
:103EF00000E0002000B107E06048006840680090E2
:103F0000DDE90010884700BF782001905B48006819
:103F10004068009000BF5948006808B1009808B98F
:103F2000012000E0002000B107E05448006840682C
:103F30000090DDE90010884700BFEA2001904F485B
:103F400000688068009000BF4C48006808B1009885
:103F500008B9012000E0002000B107E047480068F0
:103F600080680090DDE90010884700BF00200190C4
:103F7000424800684068009000BF4048006808B1AF
:103F8000009808B9012000E0002000B107E03B489C
:103F9000006840680090DDE90010884700BF0020FD
:103FA0000190364800684068009000BF33480068C0
:103FB00008B1009808B9012000E0002000B107E036
:103FC0002E48006840680090DDE90010884700BF77
:103FD000ED200190294800688068009000BF2748C4
:103FE000006808B1009808B9012000E0002000B185
:103FF00007E02248006880680090DDE900108847EB
:1040000000BF642001901D4800684068009000BF18
:104010001A48006808B1009808B9012000E00020A3
:1040200000B107E01548006840680090DDE9001025
:10403000884700BF03200190104800684068009046
:1040400000BF0E48006808B1009808B9012000E0E0
:10405000002000B107E00948006840680090DDE9F1
:104060000010884700BF1220019004480068406893
:10407000009000BF0148006820B101E01800002056
:10408000009808B9012000E0002000B107E0F848DE
:10409000006840680090DDE90010884700BF81207B
:1040A0000190F34800684068009000BFF048006845
:1040B00008B1009808B9012000E0002000B107E035
:1040C000EB48006840680090DDE90010884700BFB9
:1040D000F7200190E64800688068009000BFE4483F
:1040E000006808B1009808B9012000E0002000B184
:1040F00007E0DF48006880680090DDE9001088472D
:1041000000BF20200190DA4800684068009000BF9E
:10411000D748006808B1009808B9012000E00020E5
:1041200000B107E0D248006840680090DDE9001067
:10413000884700BFC0200190CD480068806800908B
:1041400000BFCB48006808B1009808B9012000E022
:10415000002000B107E0C648006880680090DDE9F3
:104160000010884700BF23200190C14800684068C4
:10417000009000BFBE48006808B1009808B901204F
:1041800000E0002000B107E0B948006840680090F6
:10419000DDE90010884700BFC1200190B4480068E5
:1041A0008068009000BFB248006808B1009808B964
:1041B000012000E0002000B107E0AD480068806801
:1041C0000090DDE90010884700BF10200190A8484A
:1041D00000684068009000BFA548006808B10098DA
:1041E00008B9012000E0002000B107E0A048006805
:1041F00040680090DDE90010884700BFC5200190AD
:104200009B4800688068009000BF9948006808B12A
:10421000009808B9012000E0002000B107E09448B0
:10422000006880680090DDE90010884700BF3E20EC
:1042300001908F4800684068009000BF8C4800687B
:1042400008B1009808B9012000E0002000B107E0A3
:104250008748006840680090DDE90010884700BF8B
:1042600028200190824800684068009000BF804884
:10427000006808B1009808B9012000E0002000B1F2
:1042800007E07B48006840680090DDE9001088473F
:1042900000BFC7200190764800688068009000BF8A
:1042A0007348006808B1009808B9012000E00020B8
:1042B00000B107E06E48006880680090DDE90010FA
:1042C000884700BF862001906948006840680090D8
:1042D00000BF6748006808B1009808B9012000E0F5
:1042E000002000B107E06248006840680090DDE906
:1042F0000010884700BF362001905D480068806844
:10430000009000BF5A48006808B1009808B9012021
:1043100000E0002000B107E0554800688068009088
:10432000DDE90010884700BFE82001905048006890
:104330004068009000BF4E48006808B1009808B976
:10434000012000E0002000B107E049480068406813
:104350000090DDE90010884700BF3A2001904448F2
:1043600000688068009000BF4148006808B100986C
:1043700008B9012000E0002000B107E03C480068D7
:1043800080680090DDE90010884700BF552001904B
:10439000374800684068009000BF3548006808B1A1
:1043A000009808B9012000E0002000B107E0304883
:1043B000006840680090DDE90010884700BFB12028
:1043C00001902B4800688068009000BF2848006872
:1043D00008B1009808B9012000E0002000B107E012
:1043E0002348006880680090DDE90010884700BF1E
:1043F000002001901E4800684068009000BF1C48E3
:10440000006808B1009808B9012000E0002000B160
:1044100007E01748006840680090DDE90010884711
:1044200000BF18200190124800684068009000BF4B
:104430000F48006808B1009808B9012000E000208A
:1044400000B107E00A48006840680090DDE900100C
:10445000884700BFB620019005480068806800903A
:1044600000BF0348006808B1009818B9012002E0B5
:1044700018000020002000B107E051480068806863
:104480000090DDE90010884700BF082001904C48EB
:1044900000684068009000BF4948006808B1009873
:1044A00008B9012000E0002000B107E0444800689E
:1044B00040680090DDE90010884700BF822001902D
:1044C0003F4800684068009000BF3D48006808B160
:1044D000009808B9012000E0002000B107E038484A
:1044E000006840680090DDE90010884700BF272081
:1044F0000190334800684068009000BF3048006871
:1045000008B1009808B9012000E0002000B107E0E0
:104510002B48006840680090DDE90010884700BF24
:10452000F2200190264800688068009000BF24486F
:10453000006808B1009808B9012000E0002000B12F
:1045400007E01F48006880680090DDE90010884798
:1045500000BF002001901A4800684068009000BF2A
:104560001748006808B1009808B9012000E0002051
:1045700000B107E01248006840680090DDE90010D3
:10458000884700BF112001900D48006880680090A6
:1045900000BF0B48006808B1009808B9012000E08E
:1045A000002000B107E00648006880680090DDE95F
:1045B0000010884700BF0A2000F03EFA1CBD000032
:1045C0001800002010B501240B490968886800BF55
:1045D0000949096801B108B9012100E0002101B1D0
:1045E00005E00548006881682046884700BF0A202A
:1045F00000F022FA10BD0000180000201CB568462B
:10460000FFF71CFB0021684600F04EF8044600212D
:10461000684600F049F8044320461CBD2DE9F047E8
:1046200080460D464046FFF7D4FA8146404600F0EA
:10463000FFF82C241B490968886800BF19490968DC
:1046400001B108B9012100E0002109B1012005E014
:1046500014480068816820468847002006460024E8
:104660001AE005EB4400FFF79DFA07460D4909687B
:10467000486800BF0B49096801B108B9012100E091
:10468000002109B1012005E006480068416838466C
:10469000884700200643641C4C45E2D33046BDE801
:1046A000F0870000180000202DE9F04780460C46F6
:1046B0004046FFF78EFA8146404600F0B9F82C26B6
:1046C0001A490968886800BF1849096801B108B922
:1046D000012100E0002109B1012005E01348006834
:1046E000816830468847002005460020064617E0CE
:1046F00027460E490968486800BF0C49096801B19E
:1047000008B9012100E0002109B1012005E00748B6
:10471000006841683846884700200543701C0646FB
:104720004E45E5D32846BDE8F0870000180000207C
:10473000F8B5044600200090D3262B490968886804
:1047400000BF2949096801B108B9012100E0002131
:1047500009B1012005E02448006881683046884797
:1047600000200546022000F07FF9054302266F462F
:104770001D490968C86800BF1B49096801B108B92B
:10478000012100E0002109B1012006E0164800687F
:10479000C16830468847388000200543BDF80000D6
:1047A0004FF6FF7101EA0020208002266F460E4975
:1047B0000968C86800BF0C49096801B108B901213E
:1047C00000E0002109B1012006E007480068C16847
:1047D000304688473880002005432088BDF8001007
:1047E000084320802846F8BD1800002070B5054613
:1047F0000E480560002000F055F900F06BF9044602
:104800000CB1204670BDFFF7EFF904460CB120460D
:10481000F8E7FFF7D7FEFFF731FAFFF7F7F9FFF7F1
:10482000EDFE012000F03EF90020EBE7180000202B
:1048300070B504462046FFF70DFA08B1012070BD9F
:104840006188208800F008F80546E188A08800F01B
:104850007BF805432846F2E72DE9F04105460E4670
:104860002A2738490968886800BF3649096801B1B4
:1048700008B9012100E0002109B1012005E031481B
:104880000068816838468847002004462F122D4969
:104890000968486800BF2B49096801B108B90121BE
:1048A00000E0002109B1012005E0264800684168C8
:1048B0003846884700200443EFB222490968486817
:1048C00000BF2049096801B108B9012100E00021B9
:1048D00009B1012005E01B48006841683846884757
:1048E00000200443371217490968486800BF15497A
:1048F000096801B108B9012100E0002109B10120D6
:1049000005E01048006841683846884700200443A5
:10491000F7B20C490968486800BF0A49096801B143
:1049200008B9012100E0002109B1012005E0054896
:104930000068416838468847002004432046BDE8A7
:10494000F0810000180000202DE9F04105460E46D8
:104950002B2738490968886800BF3649096801B1C2
:1049600008B9012100E0002109B1012005E031482A
:104970000068816838468847002004462F122D4978
:104980000968486800BF2B49096801B108B90121CD
:1049900000E0002109B1012005E0264800684168D7
:1049A0003846884700200443EFB222490968486826
:1049B00000BF2049096801B108B9012100E00021C8
:1049C00009B1012005E01B48006841683846884766
:1049D00000200443371217490968486800BF154989
:1049E000096801B108B9012100E0002109B10120E5
:1049F00005E01048006841683846884700200443B5
:104A0000F7B20C490968486800BF0A49096801B152
:104A100008B9012100E0002109B1012005E00548A5
:104A20000068416838468847002004432046BDE8B6
:104A3000F08100001800002010B5044609490968FB
:104A400008690849096801B108B9012100E000219D
:104A500009B1012010BD034800680169204688475C
:104A60000020F7E71800002070B504460C490968DB
:104A7000C8680B49096801B108B9012100E00021AB
:104A800009B1012070BD002506E005480068C16835
:104A900002208847681CC5B2A542F6DB0020F1E77A
:104AA0001800002010B504460949096848690849FA
:104AB000096801B108B9012100E0002109B1012014
:104AC00010BD034800684169204688470020F7E789
:104AD0001800002010B509490968086807490968E5
:104AE00001B108B9012100E0002109B1012010BD88
:104AF00002490968086880470020F8E7180000208C
:104B0000FDF704FFFEF77CFFFEF7CAFEFEF76EFE20
:104B1000FEF788FEFEF74CFFFEF74EFEFFF728F883
:104B2000FEF7FAFF00F0B0F902E0024800F088F862
:104B3000FBE700002C0000202DE9FE43002002903E
:104B400013480A2602AF046801964FF4FA70012355
:104B500001AA422100902046FDF7D0FD80464FF487
:104B6000FA7004233A46432100902046FDF74AFCA0
:104B700040EA080800BF45469DF80800762801D0A5
:104B8000012000E0002005432846BDE8FE83000028
:104B90001C00002003B582B00B4908600021009181
:104BA0000191BDF80C10491E89B2ADF80210BDF894
:104BB0000E10491E89B2ADF806100449009A0A6029
:104BC000019A4A600FBD00001C0000202200002056
:104BD0007CB50948B025842604688DF804508DF80A
:104BE00005604FF4FA70022301AA4221009020468A
:104BF000FDF784FD7CBD00001C0000200121014A5E
:104C000011707047200000202DE9FC410B4812254F
:104C1000802604688DF804508DF805604FF4FA7012
:104C2000022301AA422100902046FDF767FD0746B6
:104C30000120FDF79FF93846BDE8FC811C000020EB
:104C400010B504460648007800B910BD054906486D
:104C5000FFF7E4FC00200249087000BFF5E7000000
:104C600020000020880100202200002010B500F064
:104C700023F8044600F00AF8044300F0EFF8044378
:104C8000FFF7A6FF0443204610BD00007CB509488D
:104C90003F25012604688DF804508DF805604FF417
:104CA000FA70022301AA422100902046FDF726FD5A
:104CB0007CBD00001C0000207CB50948132581261E
:104CC00004688DF804508DF805604FF4FA700223E3
:104CD00001AA422100902046FDF710FD7CBD000096
:104CE0001C0000202DE9FC4104460A48112704F06D
:104CF0001F0605688DF804708DF805604FF4FA7092
:104D0000022301AA422100902846FDF7F7FCBDE8E6
:104D1000FC8100001C0000202DE9FC4112480C26FB
:104D2000082705688DF804608DF805704FF4FA7057
:104D3000022301AA422100902846FDF7DFFC044629
:104D40000948122605688DF804608DF805704FF447
:104D5000FA70022301AA422100902846FDF7CEFCFA
:104D600004432046BDE8FC811C0000202DE9FE4FD5
:104D70003948122504270468002002900DF1080824
:104D800001954FF4FA70012301AA422100902046B8
:104D9000FDF7B4FC81464FF4FA70042342464321E8
:104DA00000902046FDF72EFB40EA090900BFCA46E5
:104DB000BAF1000F01D0504611E09DF8080040EA1A
:104DC00007088DF804508DF805804FF4FA7002231F
:104DD00001AA422100902046FDF790FC00BF064644
:104DE0001D48402510270468002002900DF1080896
:104DF00001954FF4FA70012301AA42210090204648
:104E0000FDF77CFC81464FF4FA70042342464321AF
:104E100000902046FDF7F6FA40EA090900BFCA46AD
:104E2000BAF1000F01D0504611E09DF8080040EAA9
:104E300007088DF804508DF805804FF4FA700223AE
:104E400001AA422100902046FDF758FC00BF06430E
:104E50003046BDE8FE8F00001C0000207CB50948EC
:104E60003D25D92604688DF804508DF805604FF46F
:104E7000FA70022301AA422100902046FDF73EFC71
:104E80007CBD00001C00002010B500200549087002
:104E900043F26003044A00210448FBF70BFE0020A4
:104EA00010BD000020000020880100202C00002000
:104EB00010B50446224602210148FDF7AFF910BDA6
:104EC0000004024010B51420FDF754F810BD000096
:104ED0000146022901DD00207047C1F10200C30034
:104EE0004FF6FF7040FA03F2014800881040F3E7E4
:104EF0000000086001490880704700000000086059
:104F00004FF0C041088070474FF04070E1EE100A4A
:104F100070470000C54E0008F54E0008014F00081C
:104F2000D14E000800000000B14E0008AC00900017
:104F30000006101600061016000000000000000019
:104F4000010203040607080900000000010203042F
:104F500000003F010000EF00784F00080000002033
:104F60002C000000C4010008A44F00082C00002001
:104F70003C050100E0010008000000000000000006
:104F80000000000010000000010000000024F400F8
:104F90000000000000000000000000000000000011
:044FA000000000000D
:040000050800018965
:00000001FF
