:020000040800F2
:1000000000000220BD3F00087110000873100008B6
:100010007510000877100008791000080000000033
:100020000000000000000000000000007B1000083D
:100030007D100008000000007F10000881100008FB
:100040000D4000080D4000080D4000080D4000085C
:100050000D4000080D4000080D4000080D4000084C
:100060000D4000080D4000080D4000080D4000083C
:100070000D4000080D4000080D4000080D4000082C
:100080000D4000080D4000080D4000080D4000081C
:100090000D4000080D4000080D4000080D4000080C
:1000A0000D4000080D4000080D4000080D400008FC
:1000B0000D4000080D4000080D4000080D400008EC
:1000C0000D4000080D4000080D4000080D400008DC
:1000D0000D4000080D4000080D4000080D400008CC
:1000E0000D4000080D4000080D4000080D400008BC
:1000F0000D4000080D4000080D4000080D400008AC
:100100000D4000080D4000080D4000080D4000089B
:100110000D4000080D4000080D4000080D4000088B
:100120000D400008891000080D4000080D4000082F
:100130000D4000080D4000080D4000080D4000086B
:100140000D4000080D4000080D4000080D4000085B
:100150000D4000080D4000080D4000080D4000084B
:100160000D4000080D4000080D4000080D4000083B
:100170000D4000080D400008991000080000000024
:080180000D4000080D400008CD
:1001880053B94AB9002908BF00281CBF4FF0FF31F6
:100198004FF0FF3000F00CB8ADF1080C6DE904CE5B
:1001A80003F05EFFDDF804E0DDE9022304B07047E8
:1001B800704700BF0348044B834202D0034B03B18E
:1001C800184770470C0000200C00002000000000B9
:1001D8000548064B1B1AD90F01EBA301491002D0A1
:1001E800034B03B1184770470C0000200C00002097
:1001F8000000000010B5064C237843B9FFF7DAFF7A
:10020800044B13B10448AFF300800123237010BDE1
:100218000C000020000000002443000808B5054B2E
:100228001BB105490548AFF30080BDE80840FFF75A
:10023800CFBF00BF000000001000002024430008CA
:1002480008B5044B1B689A6813B10AB12920904776
:1002580008BD00BF28000020028843889A420AD8B7
:10026800B3F5A07F09D88288C3889A4207D8F02BB3
:1002780007D90120704701207047012070470120ED
:100288007047002070470000F8B506460D46204B21
:100298001B689A6843B34AB32A2090470027300A5C
:1002A8001B4B1B685A681BB322B3904700243C437E
:1002B800F0B2174B1B685A68F3B1FAB190470023A4
:1002C8001C43280A124B1B685A68CBB1D2B190471D
:1002D80000231C43E8B20E4B1B685A68A3B1AAB1AD
:1002E800904700202043F8BD0127D8E70127D6E72B
:1002F8000124DCE70124DAE70123E1E70123DFE752
:100308000123E6E70123E4E70120EBE70120E9E721
:1003180028000020F8B506460D46204B1B689A6851
:1003280043B34AB32B2090470027300A1B4B1B6866
:100338005A681BB322B3904700243C43F0B2174BD2
:100348001B685A68F3B1FAB1904700231C43280A86
:10035800124B1B685A68CBB1D2B1904700231C439B
:10036800E8B20E4B1B685A68A3B1AAB190470020A7
:100378002043F8BD0127D8E70127D6E70124DCE7A9
:100388000124DAE70123E1E70123DFE70123E6E7B8
:100398000123E4E70120EBE70120E9E7280000203A
:1003A80042880388D21AC3888188581A013002FB10
:1003B800000070470346034A03CA1860596018468C
:1003C800704700BF3C43000808B5064B1B681A6815
:1003D8001BB122B19047002008BD0120FCE7012095
:1003E800FAE700BF2800002008B5064B1B681A6909
:1003F8001BB122B19047002008BD0120FCE7012075
:10040800FAE700BF2800002008B5054B1B689A686A
:1004180013B10AB1012090470A20FFF7E5FF08BD94
:100428002800002008B5684B1B689A6813B10AB108
:10043800CB209047644B1B685A6813B10AB1392026
:100448009047614B1B685A6813B10AB12C2090473A
:100458005D4B1B685A6813B10AB1002090475A4B8C
:100468001B685A6813B10AB134209047564B1B6871
:100478005A6813B10AB102209047534B1B689A6817
:1004880013B10AB1CF2090474F4B1B685A6813B17C
:100498000AB1002090474C4B1B685A6813B10AB147
:1004A800C1209047484B1B685A6813B10AB13020E5
:1004B8009047454B1B689A6813B10AB1E8209047EA
:1004C800414B1B685A6813B10AB1852090473E4BCF
:1004D8001B685A6813B10AB1002090473A4B1B6851
:1004E8005A6813B10AB178209047374B1B689A684D
:1004F80013B10AB1EA209047334B1B685A6813B10D
:100508000AB100209047304B1B685A6813B10AB1F2
:10051800002090472C4B1B689A6813B10AB1ED2054
:100528009047294B1B685A6813B10AB16420904759
:10053800254B1B685A6813B10AB103209047224B18
:100548001B685A6813B10AB1122090471E4B1B68EA
:100558005A6813B10AB1812090471B4B1B689A68EF
:1005680013B10AB1F7209047174B1B685A6813B1AB
:100578000AB120209047144B1B689A6813B10AB13E
:10058800C0209047104B1B685A6813B10AB123204A
:1005980090470D4B1B689A6813B10AB1C120904768
:1005A800094B1B685A6813B10AB110209047064BD3
:1005B8001B689A6813B10AB1C5209047024B1B68A3
:1005C8005A682BB122B101E0280000203E20904754
:1005D8003D4B1B685A6813B10AB1282090473A4B23
:1005E8001B689A6813B10AB1C7209047364B1B683D
:1005F8005A6813B10AB186209047334B1B689A6832
:1006080013B10AB1362090472F4B1B685A6813B1B3
:100618000AB1E82090472C4B1B689A6813B10AB1BD
:100628003A209047284B1B685A6813B10AB15520E5
:100638009047254B1B689A6813B10AB1B1209047BF
:10064800214B1B685A6813B10AB1002090471E4B12
:100658001B685A6813B10AB1182090471A4B1B68D7
:100668009A6813B10AB1B6209047174B1B685A68AD
:1006780013B10AB108209047134B1B685A6813B18D
:100688000AB182209047104B1B685A6813B10AB10F
:10069800272090470C4B1B689A6813B10AB1F220C7
:1006A8009047094B1B685A6813B10AB1002090475C
:1006B800054B1B689A6813B10AB1112090470A20AC
:1006C800FFF792FE08BD00BF2800002038B50B4B8D
:1006D8001B68DA6873B1054672B1002406E0074B5F
:1006E8001B68DB68022098470134E4B2AC42F6D3B9
:1006F800002038BD0120FCE70120FAE7280000208F
:1007080008B5064B1B685A691BB122B190470020F7
:1007180008BD0120FCE70120FAE700BF28000020FF
:1007280038B50546194B1B689A680BB312B3D3202A
:10073800904700240220FFF7C9FF0443E4B2134B9B
:100748001B68DA68C3B1D2B10220904700231C436A
:1007580003022B800D4B1B68DA689BB1A2B1022003
:10076800904700222B8803432B8044EA020038BDBF
:100778000124DFE70124DDE700200123E7E700206B
:100788000123E4E70122EDE70122EBE7280000203E
:1007980000B583B00023ADF806300DF10600FFF771
:1007A800BFFF38B9BDF8062049F241339A4202D05A
:1007B800012000E0012003B05DF804FB38B50446D1
:1007C800FFF74AFD08B1012038BD61882088FFF78E
:1007D8005BFD0546E188A088FFF79CFD2843C0B271
:1007E800F2E70000F8B504460F46FFF7D9FD0646C4
:1007F8002046FFF7E3FF104B1B689A682BB132B114
:100808002C2090470025002406E00125FBE7012560
:10081800F9E701231D430134B4420BD2064B1B6890
:100828005A68002BF5D01AB1384690470023F1E7F3
:100838000123EFE72846F8BD28000020F8B5044654
:100848000F46FFF7ADFD06462046FFF7B7FF1A4BE8
:100858001B689A682BB132B12C20904700250024E0
:1008680006E00125FBE70125F9E701231D430134D3
:10087800B4421FD237F81410C1F3841201F01F03D9
:1008880002EBD122134403EB830303EB0313C3F3FB
:1008980007239A0142EAC32212B2134398B2064BC5
:1008A8001B685A68002BE0D012B190470023DDE79F
:1008B8000123DBE72846F8BD2800002010B582B0E8
:1008C8006846FFF777FD00216846FFF78BFF04466F
:1008D80000216846FFF786FF2043C0B202B010BD72
:1008E80010B50E4B18600020FFF70AFFFFF76CFDEC
:1008F800044608B1204610BDFFF74AFF0446002809
:10090800F8D1FFF781FDFFF78DFDFFF799FCFFF7A1
:10091800D5FF0120FFF7F4FEECE700BF2800002018
:1009280000B585B013238DF80C3081238DF80D3078
:100938004FF4FA730093022303AA42210348006884
:1009480003F0FEF805B05DF804FB00BFB8C1002055
:1009580000B585B03F238DF80C3001238DF80D309C
:100968004FF4FA730093022303AA42210348006854
:1009780003F0E6F805B05DF804FB00BFB8C100203D
:1009880000B585B03D238DF80C30D9238DF80D3096
:100998004FF4FA730093022303AA42210348006824
:1009A80003F0CEF805B05DF804FB00BFB8C1002025
:1009B80000B585B0B0238DF80C3084238DF80D3048
:1009C8004FF4FA730093022303AA422103480068F4
:1009D80003F0B6F805B05DF804FB00BFB8C100200D
:1009E80082B00191074B1860BDF804100139BDF8B9
:1009F8000620013A044B0020188059809880DA803C
:100A080002B07047B8C100202C00002070B584B037
:100A180000238DF80F30114B1D680A238DF80E3016
:100A28004FF4FA76009601230DF10E024221284672
:100A380003F086F80446009604230DF10F024321C3
:100A4800284603F039F92043C0B29DF80F30762BC1
:100A580018BF40F0010004B070BD00BFB8C100204D
:100A680010B584B012238DF80C3080238DF80D302A
:100A78004FF4FA730093022303AA42210548006841
:100A880003F05EF80446012002F0A2FC204604B000
:100A980010BD00BFB8C1002010B50024054B1C7064
:100AA80043F26003044A2146044800F093FC2046C0
:100AB80010BD00BF3400002038000020D8C200203C
:100AC800014B01221A7070473400002008B5064B0C
:100AD8001B7803B908BD05490548FFF7AFFE024B6F
:100AE80000221A70F6E700BF34000020380000200A
:100AF8002C000020F0B585B0324B1E6800238DF81D
:100B08000B3012238DF80C304FF4FA750095012341
:100B180003AA4221304603F013F804460095042343
:100B28000DF10B024321304603F0C6F8204310F0C4
:100B3800FF0521D0234B1E6800238DF80B3040237E
:100B48008DF80C304FF4FA770097012303AA42215D
:100B5800304602F0F5FF0446009704230DF10B021E
:100B68004321304603F0A8F8204310F0FF0017D0C7
:100B78002843C0B205B0F0BD9DF80B3043F0040324
:100B880012228DF80C208DF80D304FF4FA73009373
:100B9800022303AA4221304602F0D2FF0546C9E7E4
:100BA8009DF80B3043F0100340228DF80C208DF88F
:100BB8000D300097022303AA4221304602F0C0FFFD
:100BC800D6E700BFB8C1002010B5FFF7A9FE04465C
:100BD800FFF7BEFE0443E4B2FFF7D2FE0443E4B2DB
:100BE800FFF7E6FE2043C0B210BD000000B585B097
:100BF80000F01F0011238DF80C308DF80D004FF414
:100C0800FA730093022303AA42210348006802F002
:100C180097FF05B05DF804FBB8C10020F0B585B0BA
:100C2800104D0C238DF80C3008278DF80D704FF4FB
:100C3800FA760096022303AA4221286802F080FF70
:100C4800044612238DF80C308DF80D70009602239F
:100C580003AA4221286802F073FF2043C0B205B0FE
:100C6800F0BD00BFB8C10020014B1880704700BF1D
:100C7800000008604FF0C0431880704702280BD866
:100C8800C0F10200C0004FF6FF7343FA00F0034BB7
:100C98001B889BB21840704700207047000008600E
:100CA80008B502460221024801F010F908BD00BF4C
:100CB8000004024070B58CB000240794089409948D
:100CC8000A940B9401942D4B1A6B42F010021A638C
:100CD8001A6B02F010020192019A02941A6B42F008
:100CE80080021A631A6B02F080020292029A03943D
:100CF8001A6B42F001021A631A6B02F001020392A6
:100D0800039A04941A6B42F002021A631A6B02F0F7
:100D180002020492049A05941A6B42F008021A63BC
:100D28001A6B02F008020592059A06941A6B42F0B3
:100D380004021A631B6B03F004030693069B104E10
:100D480022460221304601F0C1F802250795012309
:100D5800089309940A9407A9304600F0C1FF4FF49C
:100D6800807307930895099403230A930B9407A9A2
:100D7800044800F0B5FF0CB070BD00BF0038024059
:100D8800000402400000024000B583B00021019138
:100D9800094B1A6B42F480021A631B6B03F480033D
:100DA8000193019B0A46392002F08EFA392002F09D
:100DB8009BFA03B05DF804FB0038024008B5142024
:100DC80002F006FB08BD08B5FFF77AFE08BD7047BC
:100DD8007047704772B6FEE710B588B000220192DE
:100DE80002920392049205920692079213484FF0DA
:100DF8002043036003F5827343608260C26002612E
:100E0800102343618261C261026242624FF48051E1
:100E18008162C26202634263826342640621019175
:100E28000F240294039105931123069301A902F05C
:100E38005DFB08B908B010BDFFF7CCFFD4C1002096
:100E480008B50A480A4B03600A4B436000238360D5
:100E5800C3604FF48042026143618361C3610362EE
:100E680002F090FD00B908BDFFF7B4FF24C20020CE
:100E780000580040A086010008B50948094B0360E6
:100E880000234360202282608022C26003614361A4
:100E98008361036200F060FB00B908BDFFF79AFFA9
:100EA800D8C200200000055000B595B030220021BE
:100EB80008A803F0CDF80023039304930593069341
:100EC80007930193244A116C41F080511164126C0C
:100ED80002F080520192019A0293204B1A6842F460
:100EE80080421A601B6803F480430293029B032329
:100EF80008934FF48033099301230B9310230C9329
:100F080002220E924FF480030F9304231093A8211A
:100F180011911292139308A800F064FBC0B90F2333
:100F2800039302230493002305934FF4A0530693DD
:100F38004FF480530793052103A800F00BFE48B92E
:100F480000221146104600F049FD15B05DF804FB7B
:100F5800FFF740FFFFF73EFF0038024000700040F7
:100F680008B50C480023036043608360C3600361D5
:100F78004361094B0360094B4360094B8360094B8C
:100F8800C360094B4361FFF7ABFC00B908BDFFF72D
:100F980021FF00BFBCC10020C50D0008710C00086E
:100FA8007D0C0008850C0008A90C000810B582B05B
:100FB8000A2002F00DFA144B196801911348FFF743
:100FC8000FFDFFF723FDD8B90446FFF749FD044399
:100FD800E4B2FFF7F9FD0443E4B2FFF71FFE044350
:100FE800E4B20120FFF702FE0443E4B2FFF782FDFA
:100FF8000443E4B20A2002F0EBF91CB902B010BDB8
:10100800FFF7E8FEFFF7E6FE4443000824C200208D
:1010180008B5114B114A03E052F8041B43F8041BAE
:101028000F498B42F8D302F0A7F9FFF73DFFFFF70E
:1010380041FEFFF7A9FEFFF7CFFEFFF701FFFFF71D
:101048001BFFFFF78DFFFFF7B1FFFFF725FD0548F1
:10105800FFF73CFDFBE700BF0000001078430008E5
:1010680008310010D8C20020FEE7FEE7FEE7FEE7E1
:10107800FEE770477047704708B502F097F908BD5A
:1010880008B5024801F0ECFF08BD00BF78C2002097
:1010980008B5024800F00AFA08BD00BFD8C200200F
:1010A800F0B587B00023019302930393049305934B
:1010B800164B1B680BB107B0F0BD144B01221A6028
:1010C80000260096124B9A6B42F001029A639B6BC2
:1010D80003F001030093009B4FF6807301930227EE
:1010E8000297032504950C24059401A9094800F0EA
:1010F800F7FD4EF2B3730193029703960495059496
:1011080001A9054800F0ECFDD5E700BF18C3002091
:101118000038024000100240000C024082B000215A
:1011280000910B4B5A6C42F480425A645A6C02F498
:1011380080420092009A01911A6C42F080521A641F
:101148001B6C03F080530193019B02B0704700BFF2
:10115800003802402DE9F0418AB000230593069338
:1011680007930893099302684B4B9A4202D00AB03E
:10117800BDE8F081044600250095484B5A6B42F0C3
:1011880001025A635A6B02F001020092009A01951B
:101198001A6B42F010021A631A6B02F010020192E5
:1011A800019A02951A6B42F001021A631A6B02F057
:1011B80001020292029A03951A6B42F004021A6322
:1011C8001A6B02F004020392039A04951A6B42F018
:1011D80002021A631B6B03F002030493049B70233F
:1011E8000593022606960796032708974FF00D08E1
:1011F800CDF8248005A92A4800F072FD50230593F4
:10120800069607960897CDF8248005A9254800F08A
:1012180067FD4FF470730593069607960897CDF807
:10122800248005A9204800F05BFDC023059306969D
:1012380007960897CDF8248005A91C4800F050FDB2
:101248001B481C4B03604FF0007343608560C5600A
:101258004FF4806303614FF48053436185614FF419
:101268008073C36105620423436287624FF40003FD
:10127800C362056301F046FE58B90D4BA3639C6336
:10128800002211464E2002F01FF84E2002F02CF8E2
:101298006DE7FFF79FFDF0E70000055000380240BA
:1012A8000010024000000240000802400004024012
:1012B80078C200202864024030B589B00023039327
:1012C80004930593069307930268154B9A4201D03D
:1012D80009B030BD00250195124C236B43F0020381
:1012E8002363236B03F002030193019B4FF44063D4
:1012F80003931223049301230593032306930423E2
:10130800079303A9084800F0EBFC0295236C43F40B
:1013180080032364236C03F480030293029BD7E7C2
:1013280000580040003802400004024008B5FFF7AA
:10133800B7FE08BD10B5846BA36A43B3A06B0268FF
:10134800136803F40023A16A11F0010F00D143B917
:10135800136813F4002F0FD0A26A236B9A422BD084
:1013680010BDD368E16A002203EBC10101F046FD1C
:10137800A36A013BA362EFE71369E16A012203EB69
:10138800C10101F03BFDA36A013BA362E4E7A36B43
:101398001B681A6812F4002F02D0626BDA60DBE770
:1013A8001A6812F4002FD7D1626BE16A02EB81024E
:1013B8001A61236BA362CFE72268D36843F0010365
:1013C800D36023681B6813F0020FC9D0012384F887
:1013D8002530C5E730B583B0044690F824000128CD
:1013E80052D0012084F82400022084F825002568C2
:1013F800286840F4804028602568286820F00200AA
:1014080028602568286801432960A16B1F48C863C4
:10141800A16B1F48C864A06B00210165A16221630C
:10142800B3F5803F07D3A16B184848640121A16236
:10143800E36262630BE021682831A06B01F0C8FD0C
:1014480018E0E36A5B08E362A36A5B00A362E36AED
:10145800B3F5803FF5D2A36A023BA362A36A236374
:10146800E36A2168E06A009002EB83032831A06BED
:1014780000F044FD2268136843F001031360002064
:1014880084F8240003B030BD0220FBE73D130008B8
:101498009D14000808B5806B836B5B6D022B02D02E
:1014A800012380F82530FFF794FC08BD38B50446C1
:1014B80003681D6915F0040F1DD115F0020F29D11D
:1014C80015F0100F37D115F0080F3BD115F0010FAB
:1014D80010D023681A6812F0020F03D0DA6822F0DD
:1014E8001E02DA602268D36823F00103D360204625
:1014F800FFF769FC38BD04225A61C36B43F002034D
:10150800C36380F82520836B124A1A65806B01F04B
:1015180094FDD2E7236802225A61E36B43F001038A
:10152800E363042384F82530A36B0A4A1A65A06B89
:1015380001F083FDC4E7236810225A612046FFF7B3
:1015480046FCC0E7236808225A612046FFF740FCA2
:10155800BCE700BF9D140008002840D010B5044621
:1015680090F8253033B3022384F8253022681368B5
:101578006FF3CB03136021680A68636860690343EB
:10158800E068034320690343A0680343A069034359
:10159800206A034313430B606368102B12D0226840
:1015A800D36843F01E03D3600020E063012384F86E
:1015B800253010BD80F82430FFF7CCFD2046FFF71A
:1015C800C9FDD0E7237F627F43EA0223A27F43EA73
:1015D8000243E17F226843EA01639361DFE7012068
:1015E80070470000002800F0E08170B582B0044622
:1015F800036813F0010F3BD09F4B9B6803F00C036B
:10160800042B2CD09C4B9B6803F00C03082B21D097
:101618006368B3F5803F4FD0B3F5A02F52D0964BF7
:101628001A6822F480321A601A6822F480221A603A
:101638006368002B50D001F0C5FE05468E4B1B6831
:1016480013F4003F14D101F0BDFE401B6428F5D906
:101658000320B1E1884B5B6813F4800FD8D0864B28
:101668001B6813F4003F03D06368002B00F09F81D0
:10167800236813F0020F54D07F4B9B6813F00C0FB4
:101688003ED07D4B9B6803F00C03082B33D0E368F6
:10169800002B68D0794B01221A6001F093FE0546B1
:1016A800754B1B6813F0020F54D101F08BFE401BE1
:1016B8000228F5D903207FE16F4A136843F4803389
:1016C8001360B5E76C4B1A6842F480221A601A68F6
:1016D80042F480321A60ABE701F074FE0546664BAF
:1016E8001B6813F4003FC3D001F06CFE401B642854
:1016F800F5D9032060E1604B5B6813F4800FC6D115
:101708005D4B1B6813F0020F03D0E368012B40F018
:101718005081594A136823F0F803216943EAC10349
:101728001360236813F0080F42D063696BB3534BFF
:101738000122C3F8802E01F045FE05464E4B5B6F33
:1017480013F0020F34D101F03DFE401B0228F5D9F9
:10175800032031E1484A136823F0F803216943EA7A
:10176800C1031360DDE7454B00221A6001F02AFE31
:101778000546414B1B6813F0020FD2D001F022FE40
:10178800401B0228F5D9032016E13C4B0022C3F880
:10179800802E01F017FE0546374B5B6F13F0020FE2
:1017A80006D001F00FFE401B0228F5D9032003E103
:1017B800236813F0040F77D02F4B1B6C13F0805F56
:1017C80033D1002301932C4B1A6C42F080521A64D7
:1017D8001B6C03F080530193019B0125284B1B6868
:1017E80013F4807F23D0A368012B34D0052B38D085
:1017F800214B1A6F22F001021A671A6F22F00402B5
:101808001A67A368002B3DD001F0DCFD06461A4B91
:101818001B6F13F0020F46D101F0D4FD801B41F27B
:1018280088339842F3D90320C6E00025D6E7144A46
:10183800136843F48073136001F0C4FD0646104B2F
:101848001B6813F4807FCED101F0BCFD801B0228F9
:10185800F5D90320B0E0084A136F43F0010313677A
:10186800CFE7054B1A6F42F004021A671A6F42F06D
:1018780001021A67C5E700BF00380240000047426E
:101888000070004001F09EFD0646524B1B6F13F09E
:10189800020F08D001F096FD801B41F28833984270
:1018A800F3D9032088E0EDB9A369002B00F0838009
:1018B800484A926802F00C02082A51D0022B17D02D
:1018C800454B00221A6601F07DFD0446414B1B681A
:1018D80013F0007F42D001F075FD001B0228F5D9F6
:1018E800032069E03B4A136C23F080531364DBE761
:1018F800394B00221A6601F065FD0546354B1B6819
:1019080013F0007F06D001F05DFD401B0228F5D9D9
:10191800032051E0E369226A1343626A43EA8213AF
:10192800A26A5208013A43EA0243E26A43EA0263BE
:10193800284A5360284B01221A6601F043FD0446E9
:10194800244B1B6813F0007F06D101F03BFD001B00
:101958000228F5D903202FE000202DE000202BE0FD
:10196800012B2BD01B4B5B6803F48001E269914289
:1019780026D103F03F02216A8A4223D1616A47F6E1
:10198800C0721A40B2EB811F1ED103F44031A26A23
:101998005208013AB1EB024F18D103F07063E26AC2
:1019A800B3EB026F14D1002006E00120704701203C
:1019B80002E0012000E0002002B070BD0120FBE73A
:1019C8000120F9E70120F7E70120F5E70120F3E717
:1019D8000120F1E7003802400000474270B588B0A6
:1019E8000C46154600BB00230193204E326B42F093
:1019F80001023263326B02F001020192019A4FF444
:101A0800807203920222049203220692059307939E
:101A180003A9174800F064F9B36823F0EC63254381
:101A28001D43B56008B070BD002302930F4E326BA2
:101A380042F004023263326B02F004020292029A0C
:101A48004FF4007203920222049203220692059335
:101A5800079303A9074800F043F9B36823F07843D4
:101A680044EAC5041C43B460DCE700BF0038024008
:101A7800000002400008024008B5334B9B6803F0A1
:101A88000C03042B5BD0082B5BD12F4B5A6802F058
:101A98003F025B6813F4800F2CD02B4B5868C0F3BF
:101AA80088104FEA401CBCEB000C6EEB0E0E4FEAA0
:101AB8008E1343EA9C634FEA8C11B1EB0C0163EB84
:101AC8000E03DB0043EA5173C90011EB000C43F12C
:101AD8000003590200234FEA4C2041EADC51FEF78B
:101AE8004FFB194B5B68C3F3014301335B00B0FB49
:101AF800F3F008BD144B5868C0F388104FEA401C37
:101B0800BCEB000C6EEB0E0E4FEA8E1343EA9C639F
:101B18004FEA8C11B1EB0C0163EB0E03DB0043EAD7
:101B28005173C90011EB000C43F100039902002323
:101B38004FEA8C2041EA9C51FEF722FBD1E703488B
:101B4800D7E70348D5E700BF0038024000127A0003
:101B58000024F400002800F09B8070B50D46044670
:101B68004F4B1B6803F007038B4208D2CBB24C4A99
:101B78001370136803F007038B4240F08B802368CF
:101B880013F0020F17D013F0040F04D0454A9368DE
:101B980043F4E0539360236813F0080F04D0414ADC
:101BA800936843F4604393603E4A936823F0F003DC
:101BB800A1680B439360236813F0010F32D0636868
:101BC800012B21D09A1E012A25D9364A126812F013
:101BD800020F61D033498A6822F0030213438B60F5
:101BE80001F0F0FB06462F4B9B6803F00C0362687C
:101BF800B3EB820F16D001F0E5FB801B41F288336E
:101C08009842F0D9032042E0264A126812F4003FB5
:101C1800E0D101203BE0234A126812F0007FD9D1BD
:101C2800012034E01E4B1B6803F00703AB4207D9C1
:101C3800EAB21B4B1A701B6803F00703AB422DD1A5
:101C4800236813F0040F06D0164A936823F4E05370
:101C5800E1680B439360236813F0080F07D0114A1B
:101C6800936823F46043216943EAC1039360FFF753
:101C780003FF0C4B9B68C3F303130B4AD35CD84098
:101C88000A4B18600A4B186801F050FB002070BD21
:101C9800012070470120FAE70120F8E70120F6E764
:101CA800003C024000380240584300080800002069
:101CB80004000020014B1868704700BF080000208E
:101CC80008B5FFF7F7FF044B9B68C3F38223034A69
:101CD800D35CD84008BD00BF00380240504300081C
:101CE80000230F2B00F2E98070B582B065E08568AB
:101CF8004FEA430E032404FA0EF425EA0405CC68DF
:101D080004FA0EF42C438460446824EA02044A6806
:101D1800C2F300129A40224342605CE0DC080834B7
:101D280050F8242003F00705AD004FF00F0E0EFA0F
:101D380005FE22EA0E0E0A69AA4042EA0E0240F89F
:101D480024205CE0072200E0002202FA0EF22A4377
:101D580002345A4D45F82420594A94686FEA0C0217
:101D680024EA0C054E6816F4801F01D04CEA0405DD
:101D7800534CA560E46802EA04054E6816F4001F97
:101D880001D04CEA04054E4CE560646802EA04059B
:101D98004E6816F4003F01D04CEA0405484C6560D3
:101DA800246822404D6815F4803F01D04CEA0402B3
:101DB800434C226001330F2B7DD801229A400C68D6
:101DC80004EA020C32EA0404F4D14C6804F0030477
:101DD800013C012C8BD94A6802F00302032A09D07E
:101DE800C4685D000322AA4024EA02048A68AA4063
:101DF8002243C2604A6802F00302022A8ED00468B5
:101E08004FEA430E032202FA0EF224EA02044A6859
:101E180002F0030202FA0EF2224302604A6812F448
:101E2800403FC7D000220192264A546C44F48044B3
:101E38005464526C02F480420192019A9C08A51CD9
:101E48001E4A52F8255003F0030E4FEA8E0E0F2259
:101E580002FA0EF225EA02051B4A90423FF474AFDB
:101E680002F5806290421AD002F58062904218D042
:101E780002F58062904216D002F58062904214D03A
:101E880002F58062904212D002F58062904210D032
:101E980002F5806290423FF455AF082255E70122CF
:101EA80053E7022251E703224FE704224DE70522B8
:101EB8004BE7062249E702B070BD70470038014081
:101EC800003C014000380240000002400AB1816134
:101ED800704709048161704710B4046863608368BF
:101EE800402B06D0036899600368DA605DF8044BFC
:101EF800704703689A600368D960F7E738B5044605
:101F08008068802817D0E06BD0B1606CC0B1E06CFD
:101F1800B0B194F83400012800F06987012084F8F2
:101F2800340094F83500C0B201280DD0002384F89D
:101F38003430022007E04FF480736365012002E02B
:101F480040236365012038BD022084F83500002055
:101F580060652568286840F480202860206803614F
:101F6800049B2046FFF7B8FF2368A54A934240F236
:101F78009880A2F58962934231D002F5806293423B
:101F880074D0A2F56872934272D002F580629342CF
:101F980070D0A2F5896293426ED002F580629342B6
:101FA8006DD0A2F5687293426CD002F580629342BC
:101FB8006BD0A2F5896293426AD002F5806293429F
:101FC80069D0A2F56872934268D002F580629342A4
:101FD80002D04FF0006203E04FF4001200E020222C
:101FE800884BDA602368864A934240F2CC81A2F596
:101FF8008962934200F0658102F58062934200F0A5
:10200800A781A2F56872934200F0A48102F580626C
:10201800934200F0A181A2F58962934200F09E816B
:1020280002F58062934200F09C81A2F568729342A7
:1020380000F09A8102F58062934200F09881A2F53F
:102048008962934200F0968102F58062934200F023
:102058009481A2F56872934200F0928102F5806241
:10206800934200F02B814FF080622BE12022B7E7EA
:102078002022B5E72022B3E74FF40062B0E74FF41F
:102088000062ADE74FF40062AAE74FF40062A7E7E9
:102098004FF40012A4E74FF40012A1E74FF4001226
:1020A8009EE7594A934253D9A83A934231D002F550
:1020B8008062934231D0A2F5687293422FD002F524
:1020C800806293422DD0A2F5896293422BD002F50B
:1020D800806293422AD0A2F56872934229D002F511
:1020E8008062934228D0A2F58962934227D002F5F4
:1020F8008062934226D0A2F56872934225D002F5F9
:102108008062934202D04FF0006303E04FF4001363
:1021180000E020233B4A936064E72023FAE720236A
:10212800F8E72023F6E74FF40063F3E74FF4006382
:10213800F0E74FF40063EDE74FF40063EAE74FF48C
:102148000013E7E74FF40013E4E74FF40013E1E767
:102158002E4A93425ED9483A934231D002F58062C2
:10216800934231D0A2F5687293422FD002F5806273
:1021780093422DD0A2F5896293422BD002F580625A
:1021880093422AD0A2F56872934229D002F5806260
:10219800934228D0A2F58962934227D002F5806243
:1021A800934226D0A2F56872934225D002F5806248
:1021B800934202D04FF0006303E04FF4001300E0B5
:1021C8002023134AD3600DE72023FAE72023F8E7FA
:1021D8002023F6E74FF40063F3E74FF40063F0E7DA
:1021E8004FF40063EDE74FF40063EAE74FF40013A0
:1021F800E7E74FF40013E4E74FF40013E1E700BF0B
:102208005864024000640240B860024058600240CE
:1022180000600240B14A934231D002F58062934295
:1022280031D0A2F5687293422FD002F580629342B2
:102238002DD0A2F5896293422BD002F58062934299
:102248002AD0A2F56872934229D002F5806293429F
:1022580028D0A2F58962934227D002F58062934282
:1022680026D0A2F56872934225D002F58062934287
:1022780002D04FF0006303E04FF4001300E0202386
:10228800974A9360AEE62023FAE72023F8E7202355
:10229800F6E74FF40063F3E74FF40063F0E74FF419
:1022A8000063EDE74FF40063EAE74FF40013E7E754
:1022B8004FF40013E4E74FF40013E1E74FF4801202
:1022C80000E01022874BDA602368874A934240F285
:1022D800CD81A2F58962934200F0668102F58062A1
:1022E800934200F0A881A2F56872934200F0A5819C
:1022F80002F58062934200F0A281A2F589629342BE
:1023080000F09F8102F58062934200F09D81A2F562
:102318006872934200F09B8102F58062934200F05C
:102328009981A2F58962934200F0978102F5806253
:10233800934200F09581A2F56872934200F0938170
:1023480002F58062934200F02C814FF000722CE17C
:102358001022B7E71022B5E71022B3E74FF48062E6
:10236800B0E74FF48062ADE74FF48062AAE74FF41C
:102378008062A7E74FF48012A4E74FF48012A1E728
:102388004FF480129EE7594A934253D9A83A934290
:1023980031D002F58062934231D0A2F5687293423F
:1023A8002FD002F5806293422DD0A2F58962934224
:1023B8002BD002F5806293422AD0A2F5687293422C
:1023C80029D002F58062934228D0A2F5896293420F
:1023D80027D002F58062934226D0A2F56872934214
:1023E80025D002F58062934202D04FF0806303E06B
:1023F8004FF4801300E010233A4A936064E71023F7
:10240800FAE71023F8E71023F6E74FF48063F3E7C1
:102418004FF48063F0E74FF48063EDE74FF4806397
:10242800EAE74FF48013E7E74FF48013E4E74FF44B
:102438008013E1E72E4A93425FD9483A934231D05C
:1024480002F58062934231D0A2F5687293422FD090
:1024580002F5806293422DD0A2F5896293422BD077
:1024680002F5806293422AD0A2F56872934229D07D
:1024780002F58062934228D0A2F58962934227D060
:1024880002F58062934226D0A2F56872934231D059
:1024980002F58062934202D04FF0806303E04FF46C
:1024A800801300E010230E4AD3600DE71023FAE7EB
:1024B8001023F8E71023F6E74FF48063F3E74FF4AF
:1024C8008063F0E74FF48063EDE74FF48063EAE759
:1024D8004FF48013E7E74FF48013E4E710600240FD
:1024E800006002400064024058640240B860024044
:1024F800586002404FF48013D5E7B24A934231D076
:1025080002F58062934231D0A2F5687293422FD0CF
:1025180002F5806293422DD0A2F5896293422BD0B6
:1025280002F5806293422AD0A2F56872934229D0BC
:1025380002F58062934228D0A2F58962934227D09F
:1025480002F58062934226D0A2F56872934225D0A4
:1025580002F58062934202D04FF0806303E04FF4AB
:10256800801300E01023984A9360ADE61023FAE741
:102578001023F8E71023F6E74FF48063F3E74FF4EE
:102588008063F0E74FF48063EDE74FF48063EAE798
:102598004FF48013E7E74FF48013E4E74FF4801318
:1025A800E1E74FF4002200E00822884BDA60236854
:1025B800874A934240F2CE81A2F58962934200F0A5
:1025C800678102F58062934200F0A981A2F56872E2
:1025D800934200F0A68102F58062934200F0A38145
:1025E800A2F58962934200F0A08102F580629342CD
:1025F80000F09E81A2F56872934200F09C8102F57A
:102608008062934200F09A81A2F58962934200F0B9
:10261800988102F58062934200F09681A2F5687273
:10262800934200F0948102F58062934200F02D817C
:102638004FF080722DE10822B7E70822B5E708229B
:10264800B3E74FF40072B0E74FF40072ADE74FF410
:102658000072AAE74FF40072A7E74FF40022A4E73C
:102668004FF40022A1E74FF400229EE7594A934213
:1026780053D9A83A934231D002F58062934231D0BF
:10268800A2F5687293422FD002F5806293422DD052
:10269800A2F5896293422BD002F5806293422AD038
:1026A800A2F56872934229D002F58062934228D03D
:1026B800A2F58962934227D002F58062934226D020
:1026C800A2F56872934225D002F58062934202D047
:1026D8004FF0007303E04FF4002300E008233B4A67
:1026E800936064E70823FAE70823F8E70823F6E786
:1026F8004FF40073F3E74FF40073F0E74FF40073FF
:10270800EDE74FF40073EAE74FF40023E7E74FF4EF
:102718000023E4E74FF40023E1E72F4A934260D90E
:10272800483A934231D002F58062934231D0A2F503
:10273800687293422FD002F5806293422DD0A2F5A1
:10274800896293422BD002F5806293422AD0A2F587
:102758006872934229D002F58062934228D0A2F58C
:102768008962934227D002F58062934226D0A2F56F
:102778006872934232D002F58062934202D04FF0E1
:10278800007303E04FF4002300E008230E4AD360EF
:102798000DE70823FAE70823F8E70823F6E74FF4DC
:1027A8000073F3E74FF40073F0E74FF40073EDE7BD
:1027B8004FF40073EAE74FF40023E7E74FF40023F0
:1027C800E4E700BF1060024000600240006402407D
:1027D80058640240B8600240586002404FF4002339
:1027E800D4E7B24A934231D002F58062934231D0A5
:1027F800A2F5687293422FD002F5806293422DD0E1
:10280800A2F5896293422BD002F5806293422AD0C6
:10281800A2F56872934229D002F58062934228D0CB
:10282800A2F58962934227D002F58062934226D0AE
:10283800A2F56872934225D002F58062934202D0D5
:102848004FF0007303E04FF4002300E00823984A98
:102858009360ACE60823FAE70823F8E70823F6E7CD
:102868004FF40073F3E74FF40073F0E74FF400738D
:10287800EDE74FF40073EAE74FF40023E7E74FF47E
:102888000023E4E74FF40023E1E74FF4802200E05F
:102898000422884BDA602368874A934240F2A18178
:1028A800A2F58962934200F0678102F58062934243
:1028B80000F08081A2F56872934200F07D8102F5F4
:1028C8008062934200F07A81A2F58962934200F017
:1028D800778102F58062934200F07481A2F56872F4
:1028E800934200F0718102F58062934200F06E819C
:1028F800A2F58962934200F06B8102F580629342EF
:1029080000F06981A2F56872934200F0678102F5D0
:102918008062934200F02D814FF480022DE1042261
:10292800B7E70422B5E70422B3E74FF48072B0E7B3
:102938004FF48072ADE74FF48072AAE74FF48072CB
:10294800A7E74FF48022A4E74FF48022A1E74FF4D1
:1029580080229EE7594A934253D9A83A934231D0EC
:1029680002F58062934231D0A2F5687293422FD06B
:1029780002F5806293422DD0A2F5896293422BD052
:1029880002F5806293422AD0A2F56872934229D058
:1029980002F58062934228D0A2F58962934227D03B
:1029A80002F58062934226D0A2F56872934225D040
:1029B80002F58062934202D04FF0807303E04FF437
:1029C800802300E004233B4A936064E70423FAE78A
:1029D8000423F8E70423F6E74FF48073F3E74FF492
:1029E8008073F0E74FF48073EDE74FF48073EAE704
:1029F8004FF48023E7E74FF48023E4E74FF4802384
:102A0800E1E72F4A934260D9483A934231D002F520
:102A18008062934231D0A2F5687293422FD002F5BA
:102A2800806293422DD0A2F5896293422BD002F5A1
:102A3800806293422AD0A2F56872934229D002F5A7
:102A48008062934228D0A2F58962934227D002F58A
:102A58008062934226D0A2F56872934232D002F582
:102A68008062934202D04FF0807303E04FF48023DA
:102A780000E004230E4AD3600DE70423FAE7042399
:102A8800F8E70423F6E74FF48073F3E74FF4807315
:102A9800F0E74FF48073EDE74FF48073EAE74FF403
:102AA8008023E7E74FF48023E4E700BF106002408B
:102AB800006002400064024058640240B86002406E
:102AC800586002404FF48023D4E7994A934231D0AA
:102AD80002F58062934231D0A2F5687293422FD0FA
:102AE80002F5806293422DD0A2F5896293422BD0E1
:102AF80002F5806293422AD0A2F56872934229D0E7
:102B080002F58062934228D0A2F58962934227D0C9
:102B180002F58062934226D0A2F56872934225D0CE
:102B280002F58062934202D04FF0807303E04FF4C5
:102B3800802300E004237F4A9360ACE60423FAE78D
:102B48000423F8E70423F6E74FF48073F3E74FF420
:102B58008073F0E74FF48073EDE74FF48073EAE792
:102B68004FF48023E7E74FF48023E4E74FF4802312
:102B7800E1E74FF4803200E001226F4BDA6022680F
:102B8800136843F0160313602268536943F0800307
:102B98005361236C002B00F025812268136843F0F1
:102BA800080313602268136843F0010313600020D0
:102BB800FFF7C9B90122E0E70122DEE70122DCE7DD
:102BC8004022DAE74022D8E74022D6E74022D4E77D
:102BD8004FF48032D1E74FF48032CEE74FF48032A1
:102BE800CBE7564A93424FD9A83A934231D002F5DF
:102BF8008062934231D0A2F5687293422FD002F5D9
:102C0800806293422DD0A2F5896293422BD002F5BF
:102C18008062934229D0A2F56872934227D002F5C8
:102C28008062934225D0A2F58962934223D002F5AF
:102C38008062934222D0A2F56872934221D002F5B5
:102C48008062934202D04FF4800303E04FF4803354
:102C580000E00123384A936091E70123FAE7012352
:102C6800F8E70123F6E74023F4E74023F2E740239F
:102C7800F0E74023EEE74FF48033EBE74FF480337F
:102C8800E8E74FF48033E5E72D4A93425AD9483AAA
:102C9800934231D002F58062934231D0A2F5687236
:102CA80093422FD002F5806293422DD0A2F589621B
:102CB80093422BD002F58062934229D0A2F5687224
:102CC800934227D002F58062934225D0A2F589620B
:102CD800934223D002F58062934222D0A2F5687213
:102CE800934221D002F58062934202D04FF48003D0
:102CF80003E04FF4803300E001230E4AD3603EE73F
:102D08000123FAE70123F8E70123F6E74023F4E774
:102D18004023F2E74023F0E74023EEE74FF4803307
:102D2800EBE74FF48033E8E74FF48033E5E700BF83
:102D3800106002400060024000640240B860024037
:102D4800586002402B4A934231D002F58062934288
:102D580031D0A2F5687293422FD002F58062934277
:102D68002DD0A2F5896293422BD002F5806293425E
:102D780029D0A2F56872934227D002F58062934267
:102D880025D0A2F58962934223D002F5806293424E
:102D980022D0A2F56872934221D002F58062934254
:102DA80002D04FF4800303E04FF4803300E00123A6
:102DB800114A9360E3E60123FAE70123F8E70123C8
:102DC800F6E74023F4E74023F2E74023F0E7402307
:102DD800EEE74FF48033EBE74FF48033E8E74FF446
:102DE8008033E5E7A36C002B7FF4D7AEDAE6022048
:102DF800FFF7A9B810600240006002401AB90368E2
:102E0800D9600020704703681961FAE730B4056893
:102E18002C6824F480242C60046863608368402B49
:102E280005D0036899600368DA6030BC70470368AE
:102E38009A600368D960F8E710B40368D9B210390A
:102E48000A4AA2FB01421209094CA25CC2655F2929
:102E580007D96FF3090304338365806D5DF8044B6C
:102E680070476FF309038365F7E700BFABAAAAAA07
:102E780048430008836A826992B9012B0AD0022B61
:102E880002D00BB100207047C36A13F0807F28D1AD
:102E980000207047C36AB3F1C07F24D00020704778
:102EA800B2F5005F09D0022B25D9032B25D1C36ABF
:102EB80013F0807F23D100207047032B03D8DFE86D
:102EC80003F01404140A00207047C36A13F0807FCB
:102ED8000DD100207047C36AB3F1C07F09D000202C
:102EE800704701207047012070470120704701207A
:102EF800704701207047012070470020704701206B
:102F08007047000070B5044600F05CFA002C5BD0F6
:102F18000546022384F83530002384F834302268CB
:102F2800136823F00103136023681A6812F0010F75
:102F38000AD000F047FA431B052BF5D92023636517
:102F4800032084F8350070BD1A6820491140626872
:102F5800A0680243E06802432069024360690243B3
:102F6800A0690243E0690243206A02430A43616A96
:102F780004291ED01A602668756925F00705636A5A
:102F88001D43042B07D1A36A1D43E36A1BB12046E6
:102F9800FFF770FF90B975612046FFF74DFFE26DAE
:102FA8003F239340836000206065012384F8353017
:102FB800C9E7E16A206B01430A43DBE74023636505
:102FC800012084F83500BEE70120BCE73F8010F0FF
:102FD80038B50446856D90F8340001282BD00120BF
:102FE80084F8340094F83500C0B2012804D00023D6
:102FF80084F83430022038BD022084F835000020DF
:1030080060652046FFF702FFE26D3F239340AB6007
:103018002268136843F016031360236C23B12268F7
:10302800136843F0080313602268136843F0010330
:1030380013600020DFE70220DDE790F83530DBB2CF
:10304800022B03D08023436501207047052380F8B5
:1030580035300268136823F00103136000207047BD
:10306800F0B583B0044600230193724B1D68724B80
:10307800A3FB0535AD0A876D3E68C26D08239340F2
:10308800334210D003681A6812F0040F0BD01A6884
:1030980022F004021A60C26D08239340BB60436D9E
:1030A80043F001034365E26D01239340334209D0A5
:1030B8002268526912F0800F04D0BB60636D43F040
:1030C80002036365E26D04239340334209D022680A
:1030D800126812F0020F04D0BB60636D43F0040362
:1030E8006365E26D10239340334224D0226812684E
:1030F80012F0080F1FD0BB6023681A6812F4802FE3
:103108000DD01B6813F4002F04D1236C9BB120460B
:10311800984710E0A36C73B1204698470BE01A68F3
:1031280012F4807F03D11A6822F008021A60236C17
:103138000BB120469847E26D20239340334255D087
:103148002268126812F0100F50D0BB6094F8353026
:10315800DBB2052B0ED023681A6812F4802F33D007
:103168001B6813F4002F2AD1636C002B3ED0204635
:1031780098473BE02268136823F01603136022681F
:10318800536923F080035361236CA3B12268136849
:1031980023F008031360E26D3F239340BB600123D3
:1031A80084F83530002384F83430236D002B3FD069
:1031B800204698473CE0A36C002BE7D1EBE7E36B94
:1031C800A3B12046984711E01A6812F4807F09D10C
:1031D8001A6822F010021A60012384F8353000239F
:1031E80084F83430E36B0BB120469847636DFBB12C
:1031F800636D13F0010F17D0052384F8353022686A
:10320800136823F001031360019B01330193AB4260
:1032180004D823681B6813F0010FF5D1012384F843
:103228003530002384F83430E36C0BB120469847DE
:1032380003B0F0BD08000020B5814E1B002808DB54
:103248000901C9B200F1604000F5614080F800133F
:10325800704700F00F000901C9B2014B19547047BB
:1032680014ED00E000B500F00700C0F1070CBCF158
:10327800040F28BF4FF0040C031D062B0FD9C31EE3
:103288004FF0FF3E0EFA0CF021EA000199400EFAC9
:1032980003FE22EA0E0241EA02005DF804FB002365
:1032A800EEE70000074AD36823F4E0631B041B0C15
:1032B800000200F4E060034343F0BF6343F40033CB
:1032C800D360704700ED00E010B50446054BD868A0
:1032D800C0F30220FFF7C6FF01462046FFF7AEFF06
:1032E80010BD00BF00ED00E0002807DB00F01F0262
:1032F800400901239340024A42F82030704700BF3A
:1033080000E100E00138B0F1807F0BD24FF0E023FC
:103318005861054AF02182F823100020986107229D
:103328001A6170470120704700ED00E010B50446AF
:103338000E4B1A784FF47A73B3FBF2F30C4A106809
:10334800B0FBF3F0FFF7DEFF68B90F2C01D90120BD
:103358000AE0002221464FF0FF30FFF7B5FF054B8A
:103368001C60002000E0012010BD00BF000000200C
:10337800080000200400002008B50B4B1A6842F42E
:1033880000721A601A6842F480621A601A6842F47D
:1033980080721A600320FFF785FF0F20FFF7C6FF32
:1033A800FDF7BCFE002008BD003C0240034A11683E
:1033B800034B1B780B441360704700BF1CC30020ED
:1033C80000000020014B1868704700BF1CC3002094
:1033D80038B50446FFF7F6FF0546B4F1FF3F02D0C3
:1033E800044B1B781C44FFF7EDFF401BA042FAD3A7
:1033F80038BD00BF0000002010B40A6850F8223021
:1034080023F0010340F822308B68082B25D00024D4
:103418004A6822431343CA6813430A6913434A6933
:103428001343CA6913430A6A13434A6A13438A6AED
:103438001343CA6A13430A6B13438A691A43CB6B53
:103448001A43096850F82140054B2340134340F8BC
:10345800213000205DF8044B70474024D8E700BFB6
:103468008000F0FF10B5013250F8223003F0404CD4
:103478000B684C6843EA04138C6843EA0423CC685D
:1034880043EA04430C6904F1FF3E43EA0E534C69D6
:10349800A4F1020E43EA0E6389690B434CEA030365
:1034A80040F82230002010BDB3F5804F05D06FF0F2
:1034B800704340F822300020704730B450F8223072
:1034C800094C1C400B684D6843EA05138D6843EAB4
:1034D80005238D692B43C96843EA01431C4340F81F
:1034E8002240002030BC70470000F0CF40B370B5D8
:1034F8000E461546044690F84930E3B1214651F886
:10350800080BFFF779FFA26831462068FFF7AAFF8A
:10351800236BA26829466068FFF7C6FF2268A16886
:1035280052F8213043F0010342F82130012384F896
:103538004930002070BD80F84830FDF7F7FEDDE720
:103548000120704703685A6912F4806F01D1002086
:1035580070476FF480625A6100230363202280F869
:103568003D2080F83E30026C42F00402026480F88C
:103578003C30012070472DE9F04107460D46904642
:103588001E4624E0FFF71EFF069BC01AB04200D873
:10359800EEB900233B63202287F83D2087F83E30B0
:1035A8003A6C42F020023A6487F83C3001201EE071
:1035B8003B689C6925EA040C1FFA8CFCBCFA8CFC5D
:1035C8004FEA5C1CE04511D1B6F1FF3FDAD1C5F3F3
:1035D8000743012BECD13B685B6925EA030C1FFA12
:1035E8008CFCBCFA8CFC4FEA5C1CEBE70020BDE8C5
:1035F800F0812DE9F04105460E46174698463DE014
:103608001A6842F400721A602B686FF480625A617B
:1036180000232B63202285F83D2085F83E302A6C54
:1036280042F004022A6485F83C30012034E0FFF7B8
:10363800C9FEA0EB0800B84200D8FFB900232B63ED
:10364800202285F83D2085F83E302A6C42F0200281
:103658002A6485F83C3001201EE02B689C6926EA24
:103668000404A4B2003C18BF0124A4B12B685A6911
:1036780012F4806FC4D1B7F1FF3FD8D1C6F3074326
:10368800012BEAD12B685C6926EA0404A4B2003C49
:1036980018BF0124E9E70020BDE8F081F0B583B048
:1036A80004460D4616461F46C36A082B0DD0012B4B
:1036B8000BD013F5803F08D0036B122B0AD1026898
:1036C800136843F48073136004E02268136843F4BA
:1036D800807313600097334600224FF00111204693
:1036E800FFF749FF80B92369B3F5804F16D12368E6
:1036F80005F0FE051D613B46324613492046FFF79B
:1037080078FFF8B903B0F0BD23681B6813F4807F15
:1037180002D04FF4007323640320F3E7EB1122680F
:1037280003F0060343F0F00313613B4632460749B2
:103738002046FFF75EFF18B92368EDB21D61DAE78E
:103748000120DFE70120DDE7020001000800010099
:103758002DE9F04184B004460D4616461F46C26A5C
:1037680001680B6843F480630B60082A0DD0012AB6
:103778000BD012F5803F08D0036B112B0AD10268D9
:10378800136843F48073136004E02268136843F4F9
:10379800807313600097334600224FF001112046D2
:1037A800FFF7E9FE98B92369B3F5804F19D123686B
:1037B80045F00105EDB21D613B4632462A492046D7
:1037C800FFF717FF00284CD104B0BDE8F08123684B
:1037D8001B6813F4807F02D04FF400732364032026
:1037E800F2E74FEAE51808F00608236848F0F00207
:1037F8001A613B4632461D492046FFF7FAFE08B1DA
:103808000120E1E72368EDB21D613B4632461649C7
:103818002046FFF7EEFE08B10120D5E7002203920B
:10382800236859690391996903910399196841F4C7
:1038380080711960009733464FF001112046FFF759
:103848009AFE20B9226848F0F1031361B4E72368AF
:103858001B6813F4807F02D04FF4007323640320A5
:10386800B2E70120B0E700BF020001000800010034
:1038780070B504460D46164623685B6913F0800F41
:103888001CD12046FFF75EFED0B9B5F1FF3FF3D05B
:10389800FFF798FD801BA84201D8002DECD100232A
:1038A8002363202284F83D2084F83E30226C42F0C5
:1038B8002002226484F83C30012000E0002070BD22
:1038C8000120FCE770B504460D46164623685B697F
:1038D80013F0040F1CD12046FFF734FED0B9B5F120
:1038E800FF3FF3D0FFF76EFD801BA84201D8002DE3
:1038F800ECD100232363202284F83D2084F83E3055
:10390800226C42F02002226484F83C30012000E05E
:10391800002070BD0120FCE770B505460C46164630
:103928002B68596911F0400F29D1596911F0100F0E
:1039380015D1FFF747FD801BA04201D8002CEFD11D
:1039480000232B63202285F83D2085F83E302A6C21
:1039580042F020022A6485F83C30012070BD6FF0E7
:1039680010025A6100232B63202285F83D2085F838
:103978003E302A6C2A6485F83C300120EEE70020AE
:10398800ECE70000002800F0CC8070B5044690F801
:103998003D30002B77D0242384F83D30226813680B
:1039A80023F0010313602268136843F40043136093
:1039B8002268136823F400431360FEF781F96268F4
:1039C8005A4B9A4264D85A4B98428CBF0023012321
:1039D800002B40F0A8805749A1FB00318B0C2568CB
:1039E8006A6822F03F0242EA91426A6021680A6AE4
:1039F80022F03F0266684D4DAE424FD80133134363
:103A08000B622168CA6922F44F4222F0FF026568FE
:103A1800464B9D424CD8431E6D00B3FBF5F3013372
:103A280040F6FC70034278D0C3F30B031A43CA6113
:103A380021680B6823F0C003E269206A024313433C
:103A48000B6021688B6823F4034323F0FF0322698A
:103A5800E068024313438B602168CB6823F0FF03BF
:103A68006269A06902431343CB602268136843F07C
:103A78000103136000202064202384F83D30206374
:103A880084F83E0070BD80F83C30FDF715FC82E7F5
:103A9800294B98428CBF0023012399E74FF4967570
:103AA80005FB03F3254DA5FB03539B090133A6E74B
:103AB800A668BEB9431E05EB450CB3FBFCF3013306
:103AC800C3F30B03B3FA83F35B0943BBC6B9431EC5
:103AD80005EB4505B3FBF5F30133C3F30B0343F4DF
:103AE8000043A3E7431E05EB850C0CEB8C0CB3FBE2
:103AF800FCF30133C3F30B03B3FA83F35B09E4E785
:103B0800431E05EB850505EB8505B3FBF5F301338E
:103B1800C3F30B0343F4404388E7042386E70123F8
:103B280084E7012070470120ACE700BFA0860100B0
:103B38007F841E0083DE1B43FF083D00D34D6210C7
:103B48002DE9F04385B004460F46914698460C9EF1
:103B5800FFF738FC054694F83D00C0B2202804D091
:103B68000227384605B0BDE8F083009519230122E5
:103B78004F492046FFF7FFFC002840F0928094F858
:103B88003C30012B00F08F80012384F83C302368FF
:103B98001A6812F0010F03D11A6842F001021A6084
:103BA8002268136823F400631360212384F83D30EE
:103BB800102384F83E3000232364C4F82490A4F82A
:103BC8002A80638D23853B4BE3622B463246394678
:103BD8002046FFF763FD0746002866D100230393BC
:103BE80023685A6903929B690393039B11E0236C32
:103BF800042B01D00127B4E72268136843F400734B
:103C08001360F7E72A4631462046FFF75BFE002897
:103C18002ED1238D002B36D02A4631462046FFF779
:103C280027FE0028E3D1626A236812781A61606A65
:103C3800431C6362618D89B2013989B26185238D24
:103C4800013B9BB223852268516911F0040FD9D03A
:103C5800002BD7D043781361636A01336362638DA5
:103C68009BB2013B9BB26385238D013B2385C9E74A
:103C7800236C042B01D0012773E72268136843F4EF
:103C880000731360F7E72268136843F40073136046
:103C9800202384F83D30002384F83E3084F83C30FB
:103CA8005FE702275DE702275BE7012759E700BFC7
:103CB800020010000000FFFF2DE9F04387B0044622
:103CC8000F46914698460E9EFFF77CFB054694F8F2
:103CD8003D00C0B2202804D00227384607B0BDE80E
:103CE800F08300951923012289492046FFF743FCF8
:103CF800002840F0458194F83C30012B00F04281C7
:103D0800012384F83C3023681A6812F0010F03D1AC
:103D18001A6842F001021A602268136823F40063EB
:103D28001360222384F83D30102384F83E300023AA
:103D38002364C4F82490A4F82A80638D2385754BE6
:103D4800E3622B46324639462046FFF701FD074617
:103D5800002840F01981238D5BB9029323685A69C2
:103D680002929A690292029A1A6842F400721A60E0
:103D78007AE0012B0FD0022B1FD02268136843F47E
:103D8800806313600023059323685A6905929B6931
:103D98000593059B68E02268136823F48063136029
:103DA8000023039323685A6903929A690392039A3A
:103DB8001A6842F400721A6056E02268136823F405
:103DC800806313602268136843F400631360002360
:103DD800049323685A6904929B690493049B43E003
:103DE8002A4631462046FFF797FD002840F0CE804E
:103DF80023681A69636A1A70636A01336362238DE0
:103E0800013B2385638D9BB2013B9BB263852BE00D
:103E180000953346002240492046FFF7ACFB0028B6
:103E280040F0B6802268136843F400731360236877
:103E38001A69636A1A70626A531C6362238D013BB4
:103E48002385638D9BB2013B9BB2638523681B6905
:103E58005370636A01336362238D013B2385638D4D
:103E68009BB2013B9BB26385218D00297FD003293A
:103E780054D80129B4D00229CAD00095334600226B
:103E880025492046FFF777FB002840F08380226809
:103E9800136823F48063136023681A69636A1A70CD
:103EA800636A01336362238D013B2385618D89B287
:103EB800013989B2618500953346002216492046AA
:103EC800FFF759FB002867D12268136843F4007391
:103ED800136023681A69636A1A70626A531C636202
:103EE800238D013B2385638D9BB2013B9BB2638588
:103EF80023681B695370636A01336362238D013B36
:103F08002385638D9BB2013B9BB26385ACE700BF01
:103F1800020010000000FFFF040001002A4631469D
:103F28002046FFF7F9FC002838D123681A69636A2C
:103F38001A70626A531C6362238D013B2385638D6B
:103F48009BB2013B9BB263852368596911F0040F4A
:103F58008AD01B695370636A01336362238D013B06
:103F68002385638D9BB2013B9BB263857CE720234D
:103F780084F83D30002384F83E3084F83C30ACE6C9
:103F88000227AAE60227A8E60127A6E60127A4E653
:103F98000127A2E60127A0E601279EE601279CE665
:103FA800034AD2F8883043F47003C2F88830704767
:103FB80000ED00E0DFF834D00D480E490E4A00232A
:103FC80002E0D458C4500433C4188C42F9D30B4AC5
:103FD8000B4C002301E013600432A242FBD3FFF72D
:103FE800DFFF00F011F8FDF713F87047000002201A
:103FF800000000200C000020807400080C00002045
:1040080020C30020FEE7000070B50D4D0D4C641B69
:10401800A4100026A64209D10B4D0C4C00F07EF9E5
:10402800641BA4100026A64205D170BD55F8043BB8
:1040380098470136EEE755F8043B98470136F2E712
:104048007043000870430008704300087443000878
:1040580002440346934200D1704703F8011BF9E775
:104068002DE9F047089D0E4604460F46002B4AD11D
:1040780094468C45B2FA82F260D942B1C2F120036B
:10408800974020FA03F30CFA02FC1F4394404FEACE
:104098001C4E1FFA8CF6B7FBFEF1230C0EFB1177B2
:1040A80043EA074301FB06F098420AD91CEB0303D5
:1040B80001F1FF3780F01581984240F212810239F0
:1040C80063441B1AA4B2B3FBFEF00EFB103344EAA0
:1040D800034400FB06F6A6420AD91CEB040400F1CF
:1040E800FF3380F00081A64240F2FD80644402382C
:1040F80040EA0140A41B00211DB1D4400023C5E9BA
:104108000043BDE8F0878B4205D90DB1C5E9000130
:1041180000210846F5E7B3FA83F1002946D1B342F6
:1041280002D3824200F2F580841A66EB0302012072
:104138001746002DE5D0C5E90047E2E7002A40F020
:104148009380A1EB0C034FEA1C471FFA8CFE012158
:10415800B3FBF7F607FB1630230C43EA00430EFBCC
:1041680006F0984208D91CEB030306F1FF3802D287
:10417800984200F2D08046461B1AA4B2B3FBF7F06F
:1041880007FB103344EA03440EFB00FEA64508D99A
:104198001CEB040400F1FF3302D2A64500F2B680FE
:1041A8001846A4EB0E0440EA0640A5E7C1F1200733
:1041B8008B4022FA07FC4CEA030C06FA01FE20FAAF
:1041C80007F426FA07F344EA0E0400FA01F84FEA66
:1041D8001C404FEA1449B3FBF0FE1FFA8CF600FBB3
:1041E8001E3349EA03430EFB06F9994502FA01F228
:1041F8000BD91CEB03030EF1FF3A80F0858099453B
:1042080040F28280AEF1020E6344A3EB0909A4B226
:10421800B9FBF0F300FB139944EA094403FB06F6E3
:10422800A64208D91CEB040403F1FF3068D2A64269
:1042380066D9023B644443EA0E40A41BA0FB02E695
:10424800B4427346B14652D34FD05DB1B8EB0302C6
:1042580064EB090404FA07F722FA01F31F43CC4080
:10426800C5E9007400214CE7C2F1200120FA01F3EE
:104278000CFA02FC26FA01F1964033434FEA1C4738
:104288001FFA8CFEB1FBF7F007FB1016190C41EA78
:10429800064100FB0EF68E4204FA02F408D91CEB24
:1042A800010100F1FF382DD28E422BD9023861442A
:1042B800891B9BB2B1FBF7F607FB161143EA0143D2
:1042C80006FB0EF1994208D91CEB030306F1FF38EF
:1042D80014D2994212D9023E63445B1A46EA00415D
:1042E80036E73946EDE6184602E7F045ADD2BEEBB3
:1042F800020366EB0C060138B146A6E74646ECE732
:10430800034698E74046D3E7D6467EE7644402383A
:1043180047E708460DE7023E63442DE7F8B500BFBE
:10432800F8BC08BC9E467047F8B500BFF8BC08BC8E
:044338009E467047E6
:10433C0000003F010000EF00AC00900000061016DA
:10434C00000610160000000001020304000000002B
:0C435C000000000001020304060708092D
:0843680000FDFF7F01000000D1
:04437000250200081A
:04437400FD0100083F
:10437800400100000000000003CC50F1CCCCCCCCB4
:10438800480200000000000004CC7CF6CCCCCCCC69
:10439800A80300000000000004CC5CE9CCCCCCCC25
:1043A800080500000000000005CC3BF1CCCCCCCCCB
:1043B800C00600000000000005CC36F0CCCCCCCC08
:1043C800780800000000000005CC2AF5CCCCCCCC45
:1043D800300A00000000000005CCDCEECCCCCCCCD0
:1043E800E80B00000000000006CC3FEACCCCCCCCA7
:1043F800F80D00000000000007CCE7EFCCCCCCCCD7
:10440800601000000000000007CC1AE8CCCCCCCC2F
:10441800C81200000000000007CC2CF5CCCCCCCC96
:10442800301500000000000007CC04F2CCCCCCCC46
:10443800981700000000000008CCD5F2CCCCCCCCFA
:10444800581A00000000000009CC7BE8CCCCCCCC8A
:10445800701D0000000000000ACC97EFCCCCCCCC3B
:10446800E02000000000000009CC9DE8CCCCCCCCBA
:10447800F82300000000000009CCCEF4CCCCCCCC52
:10448800102700000000000009CC72F6CCCCCCCC80
:10449800282A0000000000000ACC75F4CCCCCCCC53
:1044A800982D0000000000000ACC22F1CCCCCCCC26
:1044B800060504030A0504030E050403060804039D
:1044C8000A0804030E080403060B04030A0B04037A
:1044D8000E0B0403000000000000000000000000B4
:1044E80000CCCCCCABAAFFFBBFABFFFFB322FFAA2B
:1044F8002B22FFB3AFABFFFFFFBFFFFFAB22FF22B3
:104508003BA2FFFF5C1139F301070404050704040B
:1045180009070404010B0404050B0404090B040433
:10452800010F0404050F0404090F0404000000002F
:10453800000000000000000000CCCCCC42FE40F699
:1045480062EE20D2FFFF66FFFFFFFBFF02FF55E18F
:10455800F7FF75F4FFFFF7FFFFFFFFFF370EE3F0EC
:1045680000000603060006030C000603000306030A
:10457800060306030C0306030006060306060603E5
:104588000C06060300000000000000000000000008
:1045980000CCCCCCEAC34EEA2BCBC2CA968840B03A
:1045A8008AF3D6F79081E540020000F8FFEBCCD300
:1045B800BFBBE7FF340D32F20B0503030E050303FF
:1045C800110503030B0803030E0803031108030373
:1045D8000B0B03030E0B0303110B03030000000076
:1045E800000000000000000000CCCCCCFFFFFF7FE3
:1045F800FF7FFF73FFFFFFDFFF7FFF7F0A02FF2BB5
:10460800FF1F3F3F0B027F0E7F6FFF7F020F37F0C8
:1046180002030404060304040A030404020704044E
:10462800060704040A070404020B0404060B040426
:104638000A0B040400000000000000000000000055
:1046480000CCCCCCFFFFFF7F8FBFAF0FFFFFFF6F0A
:104658002F2B2F0FFFFFFF6FFF77FFF7FFFFFFEFF6
:10466800BFFFBF2FE00CF7F00D0703051007030588
:10467800130703050D0C0305100C0305130C0305A4
:104688000D110305101103051311030500000000A7
:10469800000000000000000000CCCCCCC0F426FADA
:1046A800AEFC046090DAFBEEF3DE55CD9CFCB6F46C
:1046B800FFFF579CF9D2F6DDFFFFFBFFA20A57F177
:1046C800060604040A0604040E060404060A040482
:1046D8000A0A04040E0A0404060E04040A0E04045A
:1046E8000E0E04040000000000000000000000009E
:1046F80000CCCCCCF0F264D0FDFFFDFF112450417A
:10470800F777DDF1DFFFFEFFFFFFFFFF3FFF14F349
:10471800DFFFDFFBAC0AD1F0060604020A0604023A
:104728000E060402060804020A0804020E0804021F
:10473800060A04020A0A04020E0A04020000000023
:10474800000000000000000000CCCCCCAFABFFFFA5
:10475800BBAFFFFFAAA2FDF9A222FFD3AFAFFFFFB5
:10476800FF6FFFFFAAAAFFF6ABAEFFF71F0F10F50A
:104778000103030104030301070303010104030107
:1047880004040301070403010105030104050301EF
:104798000705030100000000000000000000000001
:1047A80000CCCCCCEFEFF3EEEFFFEE0ACA77F7EFD1
:1047B800FFFFE2E67F7FFFE7FEFFFD40F7FFE7EE42
:1047C800FFFFFFE7A10D0AF4030107030A0107032E
:1047D80011010703030407030A040703110407036D
:1047E800030707030A070703110707030000000070
:1047F800000000000000000000CCCCCCFCC3FFFC93
:104808006F7FDE39FCFCFDFCFFDFECFFF5FDFFF7F9
:104818009F7FFFFCE8FFFEFDFFFFB7F5C40C0FF418
:10482800000C0804080C0804100C08040010080404
:1048380008100804101008040014080408140804D8
:104848001014080400000000000000000000000030
:1048580000CCCCCCEFFEFFFFEFFFEFF78AAAEF6F9B
:1048680026EF8783FDFEFFF7EF7FF77F4E72DFFEAF
:104878000FE747418D0A9DF20C0204011002040162
:10488800140204010C0304011003040114030401BD
:104898000C040401100404011404040100000000C5
:1048A800000000000000000000CCCCCC07FBFFFF9C
:1048B800BFFF7F6FAEFFBFFEFFFFF7FB157FFFF760
:1048C80077F77F7706FFFFFFFFFBFFF6D00E17F89D
:1048D800040602050606020508060205040B020581
:1048E800060B0205080B0205041002050610020556
:1048F8000810020500000000000000000000000091
:1049080000CCCCCC50E540CCEAF76BFBFFF6BEFF01
:10491800FFFEFFFF555C55577FFFF7EFF377D7FF93
:10492800FFFFF7FF6E0A92F1080503020B05030269
:104938000E050302080703020B0703020E07030212
:10494800080903020B0903020E0903020000000014
:10495800000000000000000000CCCCCCEFCDFFFF31
:10496800CFFFFFFFEE6ABFDF8AAAFDFFAF67FFFF39
:10497800FFAFFFFFAC64EEFF000FAEFB6D0A25F33F
:104988000F0D0302120D0302150D03020F0F030290
:10499800120F0302150F03020F1103021211030273
:1049A80015110302000000000000000000000000D4
:1049B80000CCCCCC7FFFEFEF7FFFFFE40CFEEFECE9
:1049C800FEFFFCA0C1F7FFFFFDFFFBC440D4DAE205
:1049D800E3F7F2E0650A52F4070905010C0905013D
:1049E80011090501070A05010C0A0501110A05014B
:1049F800070B05010C0B0501110B05010000000058
:104A0800000000000000000000CCCCCC27293F218A
:104A18007F6FF327FFBFFFAFFF2FDFBF3E1F1F775B
:104A2800FFFFFF3E5FBFFFFDFFFFFFFF98094FF34A
:104A3800090005030E000503130005030903050318
:104A48000E03050313030503090605030E060503F4
:104A5800130605030000000000000000000000002D
:104A680000CCCCCC14F5FFDF35B77634DCFFFEFE86
:104A7800FFFFBFFE54F777F575FFF5F5D4FFFFFE8E
:104A88003EFFFFFD910DB1F5000B0304030B03047A
:104A9800060B0304000F0304030F0304060F0304AB
:104AA80000130304031303040613030400000000A7
:104AB800000000000000000000CCCCCCFFFFFFFF8E
:104AC80067FA3EFC66E6FEBE2260003025FF7FFFE7
:104AD80045F57FFD6765FFFF77C457E05C0CD5F5AA
:104AE8000C0703040F070304120703040C0B030449
:104AF8000F0B0304120B03040C0F03040F0F030422
:104B0800120F030400000000000000000000000075
:104B180000CCCCCC4CFEC4D4D7FE5450F7FDF2FFE9
:104B2800F77FFFFECCC7CD58F7FFFDF5FFFFFFFF6E
:104B3800FFFFFFFF440852F10605020308050203C0
:104B48000A05020306080203080802030A0802030A
:104B5800060B0203080B02030A0B02030000000005
:104B6800000000000000000000CCCCCCF77FFFFF65
:104B7800223BFF3BBFFFFFFF2BBBBF37FFFF7FFF82
:104B8800FFFFBBBFFFFFFFFF3B37BE2B0D0815F133
:104B980002110302051103020811030202130302A2
:104BA8000513030208130302021503020515030285
:104BB80008150302000000000000000000000000CB
:104BC80000CCCCCC6FC2E7FADFEE7B7FEE3A39C27D
:104BD800FFFABB304540F542F7D47EFCBFB297C31D
:104BE800FFF567F44F0BFFF5060304040A030404FA
:104BF8000E030404060704040A0704040E07040449
:104C0800060B04040A0B04040E0B04040000000045
:104C1800000000000000000000CCCCCCFFBBFFFF70
:104C2800FFAFFFFFBBA8FFEFFBAAFFF7BFBBFFFF6C
:104C3800FFFFFFFFBBAAFFFFAAAAFFFF410EA7F8CD
:104C48000004030303040303060403030007030328
:104C58000307030306070303000A0303030A030306
:104C6800060A030300000000000000000000000026
:104C780000CCCCCCEFEEFFCFAA0EEF822BAFEFEF3C
:104C88002A2AAE287FFFFF7FFF0FBF673FFFFFBEC7
:104C9800BF6FFFEF0D0B8CF5090202060B0202062F
:104CA8000D020206090802060B0802060D08020694
:104CB800090E02060B0E02060D0E02060000000089
:104CC800000000000000000000CCCCCCD2FCFFFBB0
:104CD800FFE7FFFFF8FFFFFFD8FCC2FAFFAFFFFFB7
:104CE800FFAFFFBFE8FEF7FCE0E4FEFEB009E9F421
:104CF8000F06030212060302150603020F08030239
:104D080012080302150803020F0A0302120A03021B
:104D1800150A030200000000000000000000000067
:104D280000CCCCCC27BFBFF7F7AFBF3B0B2EFFAEF5
:104D3800FFFF3B8E2234BBAFF7FF3E362825FFAE80
:104D4800B7FFBFAFEE08DBF4000E0403040E040344
:104D5800080E0403001104030411040308110403DA
:104D680000140403041404030814040300000000DE
:104D7800000000000000000000CCCCCCAFDAAFFA95
:104D8800FFF7BFFFDA26E54A2EA8AFB025647F48B3
:104D980057C6D7FD5624FF0167C4F3F6200990F5DE
:104DA8000D0602050F060205110602050D0B020588
:104DB8000F0B0205110B02050D1002050F1002055D
:104DC80011100205000000000000000000000000B3
:104DD80000CCCCCC686C0040FD7D500CF7FEF8FD93
:104DE800FFFFFFFDECF8F0D07FFFF4F9FFFFDBD603
:104DF800FFF7FBFF9B0BF6F004000203060002031B
:104E08000800020304030203060302030803020363
:104E18000406020306060203080602030000000057
:104E2800000000000000000000CCCCCCFB35A0AA9C
:104E3800FF7FE8CEFF3FFFFFF4BFF4FDFDFFEFEF7C
:104E4800FFFFF6AFFFFFBBBFFD7FECFF030C27F6AC
:104E580004080403080804030C080403040B0403EF
:104E6800080B04030C0B0403040E0403080E0403CC
:104E78000C0E040300000000000000000000000009
:104E880000CCCCCC30FF60C07FF754F477BFF7E597
:104E9800FDFFFFF7CCFFF7FC7FFFFFFFFFFFFFFFE2
:104EA800FFFFFFFF1D09B4F20F000202110002020A
:104EB800130002020F02020211020202130202028E
:104EC8000F0402021104020213040202000000008F
:104ED800000000000000000000CCCCCC35779F31EA
:104EE800BD7FF7FDFF7F72FEFF77BFE6747FFFEFA0
:104EF8007FF7777D3CBDDFFF6FFFF6FE8C0A61F61A
:104F08000B0302020D0302020F0302020B05020249
:104F18000D0502020F0502020B0702020D0702022D
:104F28000F0702020000000000000000000000005F
:104F380000CCCCCC707710BFBF7F98BFFF7FBC7F01
:104F4800F7FFEEFFF47FFEBBFDFFFFFFF4F7DBFF8B
:104F580044B7F4FF41086AF3070402030904020393
:104F68000B04020307070203090702030B070203E6
:104F7800070A0203090A02030B0A020300000000E1
:104F8800000000000000000000CCCCCCFFF7FABF06
:104F9800FFFFFBBFFFFFFFFFFAAEB2B3EFBFAEFFED
:104FA800FFFFFFFFBEEFFFEBAAAAB222390CA3F561
:104FB8000C0A03020F0A0302120A03020C0C030272
:104FC8000F0C0302120C03020C0E03020F0E030255
:104FD800120E0302000000000000000000000000A4
:104FE80000CCCCCCCCFDDCD59CFFF4D5ACFFCFDF1E
:104FF800CDEFFEDDFDDDFCDDD5FFF5DCFCDFFEFDE4
:10500800FFFFDCFDDC09CBF502000203040002030C
:105018000600020302030203040302030603020359
:10502800020602030406020306060203000000004B
:10503800000000000000000000CCCCCCF3BFAA8622
:10504800F6AF8202F3F7FEEFEC7EE6FFFFCF8E0F9E
:10505800EF7F004FFFAF7D74AFFFFFCFF90945F633
:105068000D1202020F120202111202020D140202A4
:105078000F140202111402020D1602020F16020288
:1050880011160202000000000000000000000000ED
:1050980000CCCCCC30F128EF00B121A3B051FF54A3
:1050A80010F9D5F599FF67DF33FBB1FFD17CF5FD2A
:1050B800E7F5FFDDE20941F60B1101010C110101D1
:1050C8000D1101010B1201010C1201010D12010158
:1050D8000B1301010C1301010D1301010000000065
:1050E800000000000000000000CCCCCCD400943CB0
:1050F800F591DCDBFD3A8B36DF319FBFB83081920A
:10510800E8A0D7AEDB7BFD7FBD03A83FB608E1F47E
:10511800070003070A0003070D0003070707030733
:105128000A0703070D070307070E03070A0E0307FD
:105138000D0E030700000000000000000000000042
:1051480000CCCCCCBAD2DFD8D6D014FFD25C8FF743
:10515800C44C08DCFAFAC259AED50ED1B2FD3DFBFB
:10516800A2CEF3B0100721F30307020405070204D7
:1051780007070204030B0204050B0204070B0204D1
:10518800030F0204050F0204070F020400000000C9
:10519800000000000000000000CCCCCC20CD42CAAA
:1051A800FFFFF6F3FAFEFFFFFFFFFBFB103B75F76F
:1051B800FFFFF7FF76FF7FFDFFFFFFFFC50B4AF6F6
:1051C8000E00020210000202120002020E02020287
:1051D80010020202120202020E040202100402026B
:1051E800120402020000000000000000000000009D
:1051F80000CCCCCC3537BBFF7F6F7BE7F7F7FFEFF1
:10520800BFFFF9FB353FF7FE7B7FFFFF455FBFFB25
:105218003F8DFFFFA70B71F70A0503030D05030375
:10522800100503030A0803030D080303100803030A
:105238000A0B03030D0B0303100B0303000000000C
:10524800000000000000000000CCCCCCFFEF79FB90
:1052580092EE00F9DD2DC0F17CAD40FFFE6684586A
:10526800FDCDC07BFF388C7EEF20CC2FC40787F3A1
:105278000201020204010202060102020203020202
:1052880004030202060302020205020204050202E6
:1052980006050202000000000000000000000000F7
:1052A80000CCCCCCA3AFEACEEDFFE22EEF7DFEFE24
:1052B800FEFFAEAEDB256F0EFD7F6F4EDFC77FD6DC
:1052C800B3FCDFE45D083CF50A0A01010B0A0101A1
:1052D8000C0A01010A0B01010B0B01010C0B010166
:1052E8000A0C01010B0C01010C0C0101000000006B
:1052F800000000000000000000CCCCCC80E2EBE015
:105308008AF266000220C7ACEEEE7F8623C7EFF470
:10531800FBF76F0333F777F7FBFFEFC1EE0677F381
:105328000F11020211110202131102020F130202DD
:1053380011130202131302020F15020211150202C1
:105348001315020200000000000000000000000029
:1053580000CCCCCC73F37FE333E6224041A0E59D3B
:1053680060CC6051FFBEBFDEAF7FBFEBC0F0FB5526
:1053780073F6E3C01E098CF606050205080502054A
:105388000A050205060A0205080A02050A0A0205B4
:10539800060F0205080F02050A0F020500000000AB
:1053A800000000000000000000CCCCCCBCFD50F197
:1053B80000DDA09DF7FFFF9FC8F501D17DDF79577C
:1053C800BB77D5FFFFFFFD57BB9EBBFF930791F44B
:1053D8000E02030211020302140203020E04030266
:1053E80011040302140403020E0603021106030249
:1053F8001406030200000000000000000000000086
:1054080000CCCCCC0D9FFFFFBFFFBF5DF77FFFFE39
:10541800FFFFFFFB143DF57F75FF7755445CFDEFFB
:10542800CBFFEBFDD80D15FB0C0301030D030103A6
:105438000E0301030C0601030D0601030E0601030A
:105448000C0901030D0901030E0901030000000006
:10545800000000000000000000CCCCCC31E7E3FFE6
:10546800B72FFFF7FF7FFFFF37FFA7FFFDF5EEFF21
:1054780077F7FFFFD9DFFFFF0141FFFD510A99F7D9
:1054880003000202050002020700020203020202F0
:1054980005020202070202020304020205040202D4
:1054A80007040202000000000000000000000000E5
:1054B80000CCCCCC7B8FF7AE3EFFE6AED76FFFBFFC
:1054C8006CEFEEEFEFCFBFCFFF1FFE67F7BF7FFD9B
:1054D800BEBDF7F7A00AAFF70407050209070502E2
:1054E8000E07050204090502090905020E0905024D
:1054F800040B0502090B05020E0B05020000000053
:10550800000000000000000000CCCCCC3F277F2B1F
:10551800F32FFFF7BF22FFBBF71EFBF13F3F3F27EB
:10552800FFBFFF7FBF3BFFBBFFBFFFFF3E080EF57E
:10553800110C0202130C0202150C0202110E0202D7
:10554800130E0202150E02021110020213100202BB
:10555800151002020000000000000000000000001A
:1055680000CCCCCCF7F77FEDF5FFECE660F87EF4E5
:105578007FFAECEAD6FFD747FCFFF7C464C4E734E8
:10558800F2FFEEE69708DCF5010E0403050E0403AE
:10559800090E04030111040305110403091104038E
:1055A8000114040305140403091404030000000093
:1055B800000000000000000000CCCCCCFFE2EFAA05
:1055C800FFEFF3758AE6E2EEEEEAF7E24D16D7064C
:1055D800FD6EC7DF0D40D4D55B46F7D7ED0836F62C
:1055E8000A0A01020B0A01020C0A01020A0C010252
:1055F8000B0C01020C0C01020A0E01020B0E010237
:105608000C0E010200000000000000000000000075
:1056180000CCCCCCEEEFFBD39F73F4CA84826EEC43
:10562800FEFBBCF8146BE4BB1114EC90C9BAEF7F15
:10563800EFFBFBFF5B09F5F60E0101030F01010308
:10564800100101030E0401030F04010310040103F8
:105658000E0701030F0701031007010300000000F4
:10566800000000000000000000CCCCCC54D774FB34
:10567800FEFFFEFFFFFFFFFFFFFFFEFBD9BDFDFFA3
:10568800DFFFFFFF9C9DFCFF54BFBCEFE10B4AF816
:105698000D1201020E1201020F1201020D14010275
:1056A8000E1401020F1401020D1601020E1601025A
:1056B8000F160102000000000000000000000000BA
:1056C80000CCCCCC30BF001610ED209F34FD777F86
:1056D800F4D7EDFF333F212FF9FDB8B7AF3FAE2F19
:1056E800DDFFBBFF580985F605000202070002022C
:1056F800090002020502020207020202090202026E
:105708000504020207040202090402020000000064
:10571800000000000000000000CCCCCC1F2FBE2EE3
:10572800F7B7B6EE1F6BFF1FFDEFFAE7715FFCAF2F
:10573800FFEFFFCD7F4DFDFF3FAFFFEFBE09FAF64C
:10574800050A0202070A0202090A0202050C0202FD
:10575800070C0202090C0202050E0202070E0202E1
:10576800090E020200000000000000000000000016
:1057780000CCCCCC00D701E3C1C7C0F50C83B7EB94
:105788004EAAFFFFF0FF04E1BCC0F0D184A4A4FB43
:1057980081AF1CDD140776F30E0D0303110D03030F
:1057A800140D03030E100303111003031410030355
:1057B8000E13030311130303141303030000000063
:1057C800000000000000000000CCCCCCF7FDFFFD7D
:1057D800EFFFAAE370AA27ABABFA2F84FBFFB5FF54
:1057E800BBFFFD83A0D2F1F2ABDE1BC00C0996F61D
:1057F800091002010B1002010D100201091102012A
:105808000B1102010D110201091202010B12020112
:105818000D1202010000000000000000000000005E
:1058280000CCCCCCDC2D48CEFC0000F8DD1993AFC1
:10583800D90EFFBFDCDD0CDBBC00A0A9AFBB55ADAA
:10584800A90C098AE20948F7080502020A050202BA
:105858000C050202080702020A0702020C070202EC
:10586800080902020A0902020C09020200000000EB
:10587800000000000000000000CCCCCC0D6FFFEE53
:10588800FF7FFF716EBFFFFFEAAFD298EEBFBEBACF
:10589800EFFFFFAFAEEFFFEF8CEEBBA8AC08DDF576
:1058A80002020406060204060A02040602080406A6
:1058B800060804060A080406020E0406060E040674
:1058C8000A0E0406000000000000000000000000AE
:1058D80000CCCCCCFFFF474A22FE4040CFFF66FFFA
:1058E800C6EA0000FFFF77EFF5FF65FD5FFFD7B75A
:1058F8000FFF45470F0B8FF7010D0401050D04013C
:10590800090D0401010E0401050E0401090E04012C
:10591800010F0401050F0401090F04010000000034
:10592800000000000000000000CCCCCCECC197D1F6
:10593800EE9077DBAE9480DD8268C2FFEF89F98B49
:10594800961293BADF8F9589515047FFE1080AF7FD
:1059580010030204120302041403020410070204D1
:105968001207020414070204100B0204120B0204AB
:10597800140B0204000000000000000000000000FA
:1059880000CCCCCC2BBBFFBF7F7AFF77EFAEBFAE8E
:10599800BFFB7ABF2BB3B3AB7F77BF332B0B2BAFD8
:1059A8007FFFBFBF0708CFF50C0E0403100E0403DA
:1059B800140E04030C11040310110403141104033E
:1059C8000C1404031014040314140403000000004E
:1059D800000000000000000000CCCCCC73FFFBFAF4
:1059E80006FB3883A0712FB8FB62A221BBCFFFFB57
:1059F800BAFFFFAF8241F7B1B3F7B3D1730864F6CA
:105A08000B0801020C0801020D0801020B0A010231
:105A18000C0A01020D0A01020B0C01020C0C010216
:105A28000D0C010200000000000000000000000052
:105A380000CCCCCC06EF77FEEFEEFF03AAA6B3EEC0
:105A4800A3EEF3F54272357C1F7D7E6524CE67F7A1
:105A58008EFBFFF1B00839F70812010209120102A2
:105A68000A12010208140102091401020A140102AF
:105A780008160102091601020A16010200000000B8
:105A8800000000000000000000CCCCCC5C40DCCC66
:105A9800F55CEC35FFBFE69F774DD80DAC47705CE1
:105AA800FBDCBCDDE8CCB2EAAF1FBAFF9807E2F531
:105AB80003070201050702010707020103080201A3
