:020000040800F2
:1000000000000220994B00084D1C00084F1C0008FE
:10001000511C0008531C0008551C0008000000007B
:10002000000000000000000000000000571C000855
:10003000591C0008000000005B1C00085D1C000843
:10004000E94B0008E94B0008E94B0008E94B0008C0
:10005000E94B0008E94B0008E94B0008E94B0008B0
:10006000E94B0008E94B0008E94B0008E94B0008A0
:10007000E94B0008E94B0008E94B0008E94B000890
:10008000E94B0008E94B0008E94B0008E94B000880
:10009000E94B0008E94B0008E94B0008E94B000870
:1000A000E94B0008E94B0008E94B0008E94B000860
:1000B000E94B0008E94B0008E94B0008E94B000850
:1000C000E94B0008E94B0008E94B0008E94B000840
:1000D000E94B0008E94B0008E94B0008E94B000830
:1000E000E94B0008E94B0008E94B0008E94B000820
:1000F000E94B0008E94B0008E94B0008E94B000810
:10010000E94B0008E94B0008E94B0008E94B0008FF
:10011000E94B0008E94B0008E94B0008E94B0008EF
:10012000E94B0008651C0008E94B0008E94B000892
:10013000E94B0008E94B0008E94B0008E94B0008CF
:10014000E94B0008E94B0008E94B0008E94B0008BF
:10015000E94B0008E94B0008E94B0008E94B0008AF
:10016000E94B0008E94B0008E94B0008E94B00089F
:10017000E94B0008E94B0008751C0008000000006E
:08018000E94B0008E94B0008FF
:1001880053B94AB9002908BF00281CBF4FF0FF31F6
:100198004FF0FF3000F00CB8ADF1080C6DE904CE5B
:1001A80004F082FEDDF804E0DDE9022304B07047C4
:1001B800704700BF0348044B834202D0034B03B18E
:1001C80018477047700000207000002000000000F1
:1001D8000548064B1B1AD90F01EBA301491002D0A1
:1001E800034B03B1184770477000002070000020CF
:1001F8000000000010B5064C237843B9FFF7DAFF7A
:10020800044B13B10448AFF300800123237010BDE1
:1002180070000020000000006C51000808B5054B74
:100228001BB105490548AFF30080BDE80840FFF75A
:10023800CFBF00BF00000000740000206C51000810
:1002480008B5044B1B689A6813B10AB12920904776
:1002580008BD00BF90000020028843889A420AD84F
:10026800B3F5A07F09D88288C3889A4207D8F02BB3
:1002780007D90120704701207047012070470120ED
:100288007047002070470000F8B506460D46204B21
:100298001B689A6843B34AB32A2090470027300A5C
:1002A8001B4B1B685A681BB322B3904700243C437E
:1002B800F0B2174B1B685A68F3B1FAB190470023A4
:1002C8001C43280A124B1B685A68CBB1D2B190471D
:1002D80000231C43E8B20E4B1B685A68A3B1AAB1AD
:1002E800904700202043F8BD0127D8E70127D6E72B
:1002F8000124DCE70124DAE70123E1E70123DFE752
:100308000123E6E70123E4E70120EBE70120E9E721
:1003180090000020F8B506460D46204B1B689A68E9
:1003280043B34AB32B2090470027300A1B4B1B6866
:100338005A681BB322B3904700243C43F0B2174BD2
:100348001B685A68F3B1FAB1904700231C43280A86
:10035800124B1B685A68CBB1D2B1904700231C439B
:10036800E8B20E4B1B685A68A3B1AAB190470020A7
:100378002043F8BD0127D8E70127D6E70124DCE7A9
:100388000124DAE70123E1E70123DFE70123E6E7B8
:100398000123E4E70120EBE70120E9E790000020D2
:1003A80042880388D21AC3888188581A013002FB10
:1003B800000070470346034A03CA1860596018468C
:1003C800704700BF8451000808B5064B1B681A68BF
:1003D8001BB122B19047002008BD0120FCE7012095
:1003E800FAE700BF9000002008B5064B1B681A69A1
:1003F8001BB122B19047002008BD0120FCE7012075
:10040800FAE700BF9000002008B5054B1B689A6802
:1004180013B10AB1012090470A20FFF7E5FF08BD94
:100428009000002008B5684B1B689A6813B10AB1A0
:10043800CB209047644B1B685A6813B10AB1392026
:100448009047614B1B685A6813B10AB12C2090473A
:100458005D4B1B685A6813B10AB1002090475A4B8C
:100468001B685A6813B10AB134209047564B1B6871
:100478005A6813B10AB102209047534B1B689A6817
:1004880013B10AB1CF2090474F4B1B685A6813B17C
:100498000AB1002090474C4B1B685A6813B10AB147
:1004A800C1209047484B1B685A6813B10AB13020E5
:1004B8009047454B1B689A6813B10AB1E8209047EA
:1004C800414B1B685A6813B10AB1852090473E4BCF
:1004D8001B685A6813B10AB1002090473A4B1B6851
:1004E8005A6813B10AB178209047374B1B689A684D
:1004F80013B10AB1EA209047334B1B685A6813B10D
:100508000AB100209047304B1B685A6813B10AB1F2
:10051800002090472C4B1B689A6813B10AB1ED2054
:100528009047294B1B685A6813B10AB16420904759
:10053800254B1B685A6813B10AB103209047224B18
:100548001B685A6813B10AB1122090471E4B1B68EA
:100558005A6813B10AB1812090471B4B1B689A68EF
:1005680013B10AB1F7209047174B1B685A6813B1AB
:100578000AB120209047144B1B689A6813B10AB13E
:10058800C0209047104B1B685A6813B10AB123204A
:1005980090470D4B1B689A6813B10AB1C120904768
:1005A800094B1B685A6813B10AB110209047064BD3
:1005B8001B689A6813B10AB1C5209047024B1B68A3
:1005C8005A682BB122B101E0900000203E209047EC
:1005D8003D4B1B685A6813B10AB1282090473A4B23
:1005E8001B689A6813B10AB1C7209047364B1B683D
:1005F8005A6813B10AB186209047334B1B689A6832
:1006080013B10AB1362090472F4B1B685A6813B1B3
:100618000AB1E82090472C4B1B689A6813B10AB1BD
:100628003A209047284B1B685A6813B10AB15520E5
:100638009047254B1B689A6813B10AB1B1209047BF
:10064800214B1B685A6813B10AB1002090471E4B12
:100658001B685A6813B10AB1182090471A4B1B68D7
:100668009A6813B10AB1B6209047174B1B685A68AD
:1006780013B10AB108209047134B1B685A6813B18D
:100688000AB182209047104B1B685A6813B10AB10F
:10069800272090470C4B1B689A6813B10AB1F220C7
:1006A8009047094B1B685A6813B10AB1002090475C
:1006B800054B1B689A6813B10AB1112090470A20AC
:1006C800FFF792FE08BD00BF9000002038B50B4B25
:1006D8001B68DA6873B1054672B1002406E0074B5F
:1006E8001B68DB68022098470134E4B2AC42F6D3B9
:1006F800002038BD0120FCE70120FAE79000002027
:1007080008B5064B1B685A691BB122B190470020F7
:1007180008BD0120FCE70120FAE700BF9000002097
:1007280038B50546194B1B689A680BB312B3D3202A
:10073800904700240220FFF7C9FF0443E4B2134B9B
:100748001B68DA68C3B1D2B10220904700231C436A
:1007580003022B800D4B1B68DA689BB1A2B1022003
:10076800904700222B8803432B8044EA020038BDBF
:100778000124DFE70124DDE700200123E7E700206B
:100788000123E4E70122EDE70122EBE790000020D6
:1007980000B583B00023ADF806300DF10600FFF771
:1007A800BFFF38B9BDF8062049F241339A4202D05A
:1007B800012000E0012003B05DF804FB38B50446D1
:1007C800FFF74AFD08B1012038BD61882088FFF78E
:1007D8005BFD0546E188A088FFF79CFD2843C0B271
:1007E800F2E70000F8B504460F46FFF7D9FD0646C4
:1007F8002046FFF7E3FF104B1B689A682BB132B114
:100808002C2090470025002406E00125FBE7012560
:10081800F9E701231D430134B4420BD2064B1B6890
:100828005A68002BF5D01AB1384690470023F1E7F3
:100838000123EFE72846F8BD90000020F8B50446EC
:100848000F46FFF7ADFD06462046FFF7B7FF134BEF
:100858001B6838469847124B1B689A682BB132B10F
:100868002C2090470025002406E00125FBE7012500
:10087800F9E701231D430134B4420CD237F81400C0
:10088800074B1B685A68002BF3D012B1904700231E
:10089800F0E70123EEE72846F8BD00BF8C000020F2
:1008A8009000002010B582B06846FFF783FD002154
:1008B8006846FFF797FF044600216846FFF792FF56
:1008C8002043C0B202B010BD38B50C460E4B1860BC
:1008D8000020FFF715FFFFF777FD054608B128460A
:1008E80038BDFFF755FF05460028F8D1FFF78CFD06
:1008F800FFF798FDFFF7A4FCFFF7D4FF0120FFF7EF
:10090800FFFE024B1C60EAE7900000208C000020EC
:1009180000B585B013238DF80C3081238DF80D3088
:100928004FF4FA730093022303AA42210348006894
:1009380003F0F4FE05B05DF804FB00BF20C2002000
:1009480000B585B03F238DF80C3001238DF80D30AC
:100958004FF4FA730093022303AA42210348006864
:1009680003F0DCFE05B05DF804FB00BF20C20020E8
:1009780000B585B03D238DF80C30D9238DF80D30A6
:100988004FF4FA730093022303AA42210348006834
:1009980003F0C4FE05B05DF804FB00BF20C20020D0
:1009A80000B585B0B0238DF80C3084238DF80D3058
:1009B8004FF4FA730093022303AA42210348006804
:1009C80003F0ACFE05B05DF804FB00BF20C20020B8
:1009D80082B00191074B1860BDF804100139BDF8C9
:1009E8000620013A044B0020188059809880DA804C
:1009F80002B0704720C200209400002070B584B077
:100A080000238DF80F30114B1D680A238DF80E3026
:100A18004FF4FA76009601230DF10E024221284682
:100A280003F07CFE0446009604230DF10F024321D7
:100A3800284603F02FFF2043C0B29DF80F30762BD5
:100A480018BF40F0010004B070BD00BF20C20020F4
:100A580010B584B012238DF80C3080238DF80D303A
:100A68004FF4FA730093022303AA42210548006851
:100A780003F054FE0446012003F098FA204604B01F
:100A880010BD00BF20C2002010B50024054B1C700B
:100A980043F26003044A2146044801F089FA2046DB
:100AA80010BD00BF9C000020A000002084C60020CC
:100AB800014B01221A7070479C00002008B5064BB4
:100AC8001B7803B908BD05490548FFF7B7FE024B77
:100AD80000221A70F6E700BF9C000020A00000204A
:100AE80094000020F0B585B0324B1E6800238DF8C5
:100AF8000B3012238DF80C304FF4FA750095012352
:100B080003AA4221304603F009FE04460095042357
:100B18000DF10B024321304603F0BCFE204310F0D8
:100B2800FF0521D0234B1E6800238DF80B3040238E
:100B38008DF80C304FF4FA770097012303AA42216D
:100B4800304603F0EBFD0446009704230DF10B0239
:100B58004321304603F09EFE204310F0FF0017D0DB
:100B68002843C0B205B0F0BD9DF80B3043F0040334
:100B780012228DF80C208DF80D304FF4FA73009383
:100B8800022303AA4221304603F0C8FD0546C9E7FF
:100B98009DF80B3043F0100340228DF80C208DF89F
:100BA8000D300097022303AA4221304603F0B6FD18
:100BB800D6E700BF20C2002010B5FFF7A9FE044603
:100BC800FFF7BEFE0443E4B2FFF7D2FE0443E4B2EB
:100BD800FFF7E6FE2043C0B210BD000000B585B0A7
:100BE80000F01F0011238DF80C308DF80D004FF424
:100BF800FA730093022303AA42210348006803F012
:100C08008DFD05B05DF804FB20C20020F0B585B06D
:100C1800104D0C238DF80C3008278DF80D704FF40B
:100C2800FA760096022303AA4221286803F076FD8B
:100C3800044612238DF80C308DF80D7000960223AF
:100C480003AA4221286803F069FD2043C0B205B019
:100C5800F0BD00BF20C20020002306E0054A12684C
:100C6800002122F8131001339BB2034A12789A42EA
:100C7800F4D8704730C200202CC2002001230AE0BB
:100C8800074A127803FB02F206490968002021F896
:100C9800120001339BB2024A52789A42F0D8704748
:100CA8002CC2002030C2002008B5FFF7D5FFFFF79F
:100CB800E5FF08BDF0B54FF0010E28E0174B1968A5
:100CC80005FB02F30EEB030431F814600EF1FF305C
:100CD800034431F8133002F1FF3C0CFB05FC0EEB2A
:100CE8000C0731F817703B449BB2604431F8100090
:100CF8001B1A16FA83F321F81430013292B2084B0A
:100D08005B789342DAD80EF1010E1FFA8EFE044B7F
:100D18001D78754501D90122F1E7F0BD30C20020E8
:100D28002CC2002010B5084B1C68084B1B7801FB2F
:100D380003330133064A12785200014604EB43009C
:100D480004F02EF810BD00BF30C200202CC20020D5
:100D580028C2002010B582B0ADF804000C469DF8FA
:100D680004300133DBB29DF805200132D2B20849C4
:100D78000B704A700749088002FB03F0400003F03B
:100D88005DFF054B1860054B1C6002B010BD00BF2D
:100D98002CC2002028C2002030C2002024C200201B
:100DA80008B50146034B1B68034A12680348984775
:100DB80008BD00BF24C2002028C200202D0D000855
:100DC80008B5FFF771FFFFF775FF00BF08BD00000A
:100DD80010B5124B1C6890F800C04278104B197877
:100DE80001FB02F20CEB020334F8133090F802E036
:100DF800C07800FB01F10EEB010034F810007244DA
:100E080034F812E08C4434F81C20184480B2A0EB6B
:100E18000E0080B2801A80B210BD00BF30C2002020
:100E28002CC200200023082B43D882B050F823207E
:100E3800019201EB830C9DF8042006EE102AB8EE0F
:100E4800C66A26EE006A9DF8052006EE902AF8EE9E
:100E5800E66A66EE806A9DF8062007EE102AB8EE6C
:100E6800C77A27EE007A9DF8072007EE902AF8EE59
:100E7800E77A67EE807ABCEEC66A16EE102A01F8A9
:100E88002320FCEEE66A16EE902A8CF80120BCEED0
:100E9800C77A17EE102A8CF80220FCEEE77A17EED4
:100EA800902A8CF803200133DBB2082BBED902B09C
:100EB800704770472DE9F04182B004460D46037C27
:100EC8000A7813448DF80430437C4A7813448DF82B
:100ED8000530837C8DF80630C37C8DF80730704E62
:100EE800336801A89847074623782A7813448DF871
:100EF800003063786A7813448DF80130A3788DF850
:100F08000230E3788DF803303368684698478742A3
:100F180000F2B4804FF0800823792A7813448DF8C2
:100F2800003063796A7813448DF80130A3798DF81D
:100F38000230E3798DF80330594B1B6868469847AF
:100F4800874200F29E80402646EA0806237A2A78DD
:100F580013448DF80030637A6A7813448DF80130B1
:100F6800A37A8DF80230E37A8DF803304C4B1B6876
:100F780068469847874200F2868020231E43237BD9
:100F88002A7813448DF80030637B6A7813448DF80F
:100F98000130A37B8DF80230E37B8DF80330404BA2
:100FA8001B686846984787426FD801231E43237DF4
:100FB8002A7813448DF80030637D6A7813448DF8DD
:100FC8000130A37D8DF80230E37D8DF80330344B7A
:100FD8001B6868469847874259D810231E43237ECA
:100FE8002A7813448DF80030637E6A7813448DF8AC
:100FF8000130A37E8DF80230E37E8DF80330284B54
:101008001B6868469847874243D802231E43237FBC
:101018002A7813448DF80030637F6A7813448DF87A
:101028000130A37F8DF80230E37F8DF803301C4B2D
:101038001B686846984787422DD804231E4394F8B6
:1010480020302A7813448DF8003094F821306A78DB
:1010580013448DF8013094F822308DF8023094F85A
:1010680023308DF803300E4B1B686846984787423B
:1010780013D80820304302B0BDE8F0814FF00008D3
:101088004AE7002660E7002378E700238EE700237D
:10109800A4E70023BAE70023D0E70020EAE700BF6F
:1010A80058C20020014B1860704700BF58C200208A
:1010B80070B504460D46124E91ED010A3146FFF710
:1010C800B1FE29463046FFF7F5FEC0F347130A3351
:1010D80004EB83035A6800F01F00012383401A427F
:1010E80006D0B4F94E3000EE103AB8EEC00A70BD22
:1010F800B4F94C3000EE103AB8EEC00AF7E700BF7A
:1011080034C2002038B590F828309BB10546002439
:1011180006E06B6A53F8240003F098FD0134E4B24A
:1011280095F82830A342F4D8686A03F08FFD0023AD
:1011380085F8283038BD000082B06B4683E803008C
:10114800034A93E8030082E8030002B0704700BF37
:101158005CC2002070B52DED028B05460E460024BA
:101168009FED118A0CE0114B5B682A6804EB840040
:10117800314602EB0010984738EE008A0134E4B299
:101188002B79A342EFD8B5F90630013B07EE903A28
:10119800F8EEE77AF4EEC87AF1EE10FA94BF01207F
:1011A8000020BDEC028B70BD000000005CC2002076
:1011B800002306E050F83320024440F8332001337E
:1011C800DBB28B42F6D370470023024A1370024AFF
:1011D80013707047E0C2002064C20020884228BF14
:1011E80008466028A8BF602007EE900AB8EEE77AA4
:1011F800DFED136AC7EE267A124B00221A70114BE4
:101208001B78FD2B11D8104A02EB830282ED000AED
:1012180020EE200AF4EEC07AF1EE10FA05D9013377
:10122800DBB2084A1370262BE9D9064A1378591CF1
:101238001170054800EB8303C3ED007A704700BFC7
:10124800000034425CC3002060C300202DE9F04157
:1012580084B00646002302930393984643E0013482
:10126800E4B2364B1B78A34217D9354B5B68354A35
:10127800106802A900EBC40098470028EFD100BF0E
:101288009DF809303B448DF8093073785B1B9DF855
:101298000920934214DB0024E3E72B4B1B78272B10
:1012A800EDD8591C284A11709DF808409DF809008E
:1012B800264903EB4303CA18CC5450709570DEE7F7
:1012C8009DF808303B448DF8083033785B1B9DF857
:1012D8000820934203DB00238DF80930D5E708F195
:1012E80001085FFA88F81A4B1B78434522D9194B35
:1012F80003EB880393ED007ADFED177A67EE277A20
:10130800FCEEE77ACDED017A9DF80450D6ED036A3C
:1013180007EE905AF8EEE77A67EEA67AFCEEE77ADF
:10132800CDED017A9DF804708DED037A00238DF8D8
:101338000830CAE704B0BDE8F08100BF00C400204F
:1013480008C4002004C40020E0C20020E4C2002039
:101358005CC3002060C30020000034422DE9F04344
:1013680080460024A14656E00EF1010E5FFA8EFE7B
:10137800744557D9304A0EEB4E03D718B87807EEA4
:10138800900AF8EEE77A9FED2D7A67EE877AFDEE00
:10139800E77A17EE901A09B2D35C04EB44055619A4
:1013A800525D9B1A1D467A787778D21B174696F8B5
:1013B80002C0ACEB000610FA83F39BB2ACEB03035C
:1013C8001BB210FA82F292B2ACEB020C0FFA8CFC50
:1013D80085EAE572A2EBE57292B28A420CDC87EAF2
:1013E800E772A2EBE77292B2914205DB002EB8BF1A
:1013F8007642B6B2B14208DA002DB5DB002FB3DB76
:10140800002BB1DBBCF1000FAEDB18F80E3008F88A
:1014180004300134E4B20A4B1B78A34209D94FF0D7
:10142800000EA5E709F1010308F804905FFA83F9B3
:10143800EFE7BDE8F08300BFE4C20020CDCC4C3E0E
:10144800E0C200202DE9F0438FB00C464FF0000EAB
:1014580015E001335BB28B420ADA10F803C0F44599
:10146800F7D1551C38326A4402F8303CEAB2F0E74A
:10147800A24200D352B90EF1010E5FFA8EFE2A4B3A
:10148800197871454DD900231A46E4E7274B1E7891
:10149800711C1970002319461F461D4622E003F1EE
:1014A800380CEC441CF830CCDFF888800CEB4C0C82
:1014B80008EB0C0938F80C8099F802C0ADF80480E4
:1014C8008DF806C09DF804C06544ADB29DF805C00E
:1014D800BC441FFA8CF79DF806C08C441FFA8CF1A7
:1014E8000133DBB29A42DAD895FBF2F597FBF2F7B3
:1014F80091FBF2F18DF834508DF835708DF8361077
:101508000D9BADF830301B0C8DF83230084B06EBD4
:1015180046069A19BDF830509DF832109D539170C7
:10152800A9E70FB0BDE8F083E0C2002064C2002044
:1015380068C20020E4C2002010B58AB0044668469C
:10154800FFF70CFF21466846FFF77CFF0AB010BD85
:1015580010B582B086468C46694681E80C00074C77
:1015680003C984E80900064B83F800C06146704649
:101578009047044B186002B010BD00BF08C400209B
:1015880000C4002004C4002010B50446FFF71CFE68
:1015980061782078D4ED020A94ED010AFFF71EFE67
:1015A8002046FFF753FE207CFFF7C6FF014B0022C1
:1015B8001A7010BD5CC30020024A1278024901600B
:1015C8000271704764C2002068C2002070B584B000
:1015D80005460E461046FFF765FD0A4C6B4694E833
:1015E800030083E80300FFF7A7FD02AB083494E883
:1015F800030083E803000CCB31462846FFF7A8FF19
:1016080004B070BD8C51000870B582B006460D4616
:10161800ADF80420002420E003FB041335F8133050
:10162800D80A9A09D200D2B2DB00DBB202EBC002C0
:10163800134403EB830303EB0313C3F342330B4A53
:1016480022F811300131C9B29DF804308B42E3D839
:1016580021460648B0470134E4B29DF80530A3425C
:1016680001D90021F0E702B070BD00BF10C400200E
:10167800014B1880704700BF000008604FF0C0435E
:101688001880704702280BD8C0F10200C0004FF63E
:10169800FF7343FA00F0034B1B889BB21840704756
:1016A80000207047000008602DE9F04182B00191E8
:1016B8004FF0000C1DE00A44D2B2AA2B15D88E2A8E
:1016C80013D8AC2101FB02F55E195C1C254402FB12
:1016D80001110B440C444FF4784220F8162020F8EE
:1016E800152020F8132020F814200CF1020C5FFAC2
:1016F8008CFC9DF80610614521D99DF8043063449F
:10170800DBB29DF80520AA2BD5D88E2AD3D84FF066
:10171800AC0E0EFB02F503EB05085C1C2E1902FB50
:101728000EEE03EB0E0774444FF4784520F818507A
:1017380020F8165020F8175020F81450BBE74FF047
:10174800020C20E00B44DBB2013BDBB2AA2B16D81B
:101758008E2A14D84FF0AC0E0EFB02F55E195C1CF5
:10176800254402FB0EEE734474444FF4784220F88B
:10177800162020F8152020F8132020F814200CF14A
:10178800020C5FFA8CFC614521D99DF804309DF864
:1017980005206244D2B2AA2BD4D88E2AD2D84FF0D0
:1017A800AC0E0EFB02F503EB05085C1C2E1902FBC0
:1017B8000EEE03EB0E0774444FF4784520F81850EA
:1017C80020F8165020F8175020F81450BAE702B045
:1017D800BDE8F08100B583B002788DF80420437825
:1017E8008DF8053081780A448DF80620C2781344B4
:1017F8008DF8073001A8FFF7EBFA03B05DF804FB9A
:1018080008B502460221024801F04EF908BD00BFA2
:101818000004024070B58CB0002407940894099421
:101828000A940B9401942D4B1A6B42F010021A6320
:101838001A6B02F010020192019A02941A6B42F09C
:1018480080021A631A6B02F080020292029A0394D1
:101858001A6B42F001021A631A6B02F0010203923A
:10186800039A04941A6B42F002021A631A6B02F08C
:1018780002020492049A05941A6B42F008021A6351
:101888001A6B02F008020592059A06941A6B42F048
:1018980004021A631B6B03F004030693069B104EA5
:1018A80022460221304601F0FFF802250795012360
:1018B800089309940A9407A9304600F0FFFF4FF4F3
:1018C800807307930895099403230A930B9407A937
:1018D800044800F0F3FF0CB070BD00BF00380240B0
:1018E800000402400000024000B583B000210191CD
:1018F800094B1A6B42F480021A631B6B03F48003D2
:101908000193019B0A46392002F0CCFA392002F0F3
:10191800D9FA03B05DF804FB0038024030B583B053
:101928000546FFF73DFAFFF74BFA0F48FFF72CFE85
:101938006846FFF741FE00240FE0009904EB4403DA
:10194800CA18CB5C517843EA0123917843EA0141F4
:101958002846FFF7A9FE0134E4B29DF80430A342FB
:10196800EBD803B030BD00BF0000002008B514203C
:1019780002F01CFB08BD08B5FFF79AF808BD7047D0
:101988007047704772B6FEE710B588B00022019222
:1019980002920392049205920692079213484FF01E
:1019A8002043036003F5827343608260C260026172
:1019B800102343618261C261026242624FF4805126
:1019C8008162C262026342638263426406210191BA
:1019D8000F240294039105931123069301A902F0A1
:1019E80073FB08B908B010BDFFF7CCFF80C5002015
:1019F80008B50A480A4B03600A4B4360002383601A
:101A0800C3604FF48042026143618361C361036232
:101A180002F0A6FD00B908BDFFF7B4FFD0C500204D
:101A280000580040A086010008B50948094B03602A
:101A380000234360202282608022C26003614361E8
:101A48008361036200F076FB00B908BDFFF79AFFD7
:101A580084C600200000055008B50C480023036028
:101A680043608360C36003614361094B0360094BB2
:101A78004360094B8360094BC360094B43610949C3
:101A8800FEF722FF00B908BDFFF77CFF68C50020FC
:101A98007519000879160008851600088D160008C3
:101AA800091800082519000810B582B00A2002F0AC
:101AB8007DFA144B196801911348FEF789FFFEF768
:101AC8009DFFD8B90446FEF7C3FF0443E4B2FFF70D
:101AD80073F80443E4B2FFF799F80443E4B2012031
:101AE800FFF77CF80443E4B2FEF7FCFF0443E4B2DA
:101AF8000A2002F05BFA1CB902B010BDFFF742FFE2
:101B0800FFF740FF9C510008D0C5002000B595B0F4
:101B18003022002108A803F089F8002303930493D6
:101B28000593069307930193244A116C41F0805161
:101B38001164126C02F080520192019A0293204BB8
:101B48001A6842F480421A601B6803F480430293C7
:101B5800029B032308934FF48033099301230B93CB
:101B680010230C9302220E924FF480030F93042348
:101B78001093A82111911292139308A800F020FB4A
:101B8800C0B90F23039302230493002305934FF452
:101B9800A05306934FF480530793052103A800F040
:101BA800C7FD48B900221146104600F005FD15B0E2
:101BB8005DF804FBFFF7E6FEFFF7E4FE003802409D
:101BC8000070004000B583B0174B184A03E052F884
:101BD800041B43F8041B16498B42F8D302F0BAF9E8
:101BE800FFF794FFFFF716FEFFF77EFEFFF7CCFE28
:101BF800FFF7FEFEFFF718FF0E4B9B88ADF8043089
:101C08000D490198FFF7A6F80C4A13210648FFF77B
:101C1800DDFCFFF721FFFFF747FFFEF735FF084818
:101C2800FEF74CFFFBE700BF00000010D45100088E
:101C3800282F00109C51000811160008DD17000815
:101C480084C60020FEE7FEE7FEE7FEE7FEE77047F2
:101C58007047704708B502F097F908BD08B5024803
:101C680001F0ECFF08BD00BF24C6002008B50248FB
:101C780000F00AFA08BD00BF84C60020F0B587B09E
:101C8800002301930293039304930593164B1B6857
:101C98000BB107B0F0BD144B01221A600026009664
:101CA800124B9A6B42F001029A639B6B03F001039B
:101CB8000093009B4FF68073019302270297032538
:101CC80004950C24059401A9094800F0F7FD4EF28B
:101CD800B3730193029703960495059401A90548E7
:101CE80000F0ECFDD5E700BFC4C600200038024074
:101CF80000100240000C024082B0002100910B4B02
:101D08005A6C42F480425A645A6C02F4804200923F
:101D1800009A01911A6C42F080521A641B6C03F00D
:101D280080530193019B02B0704700BF0038024006
:101D38002DE9F0418AB00023059306930793089391
:101D4800099302684B4B9A4202D00AB0BDE8F08171
:101D5800044600250095484B5A6B42F001025A632D
:101D68005A6B02F001020092009A01951A6B42F038
:101D780010021A631A6B02F010020192019A02957E
:101D88001A6B42F001021A631A6B02F00102029206
:101D9800029A03951A6B42F004021A631A6B02F056
:101DA80004020392039A04951A6B42F002021A6322
:101DB8001B6B03F002030493049B70230593022614
:101DC80006960796032708974FF00D08CDF824804C
:101DD80005A92A4800F072FD502305930696079638
:101DE8000897CDF8248005A9254800F067FD4FF431
:101DF80070730593069607960897CDF8248005A971
:101E0800204800F05BFDC0230593069607960897C7
:101E1800CDF8248005A91C4800F050FD1B481C4B38
:101E280003604FF0007343608560C5604FF48063C2
:101E380003614FF48053436185614FF48073C3613C
:101E480005620423436287624FF40003C36205639B
:101E580001F046FE58B90D4BA3639C63002211465E
:101E68004E2002F01FF84E2002F02CF86DE7FFF725
:101E780089FDF0E7000005500038024000100240DC
:101E880000000240000802400004024024C600206E
:101E98002864024030B589B0002303930493059366
:101EA800069307930268154B9A4201D009B030BDDA
:101EB80000250195124C236B43F002032363236B27
:101EC80003F002030193019B4FF440630393122331
:101ED800049301230593032306930423079303A97B
:101EE800084800F0EBFC0295236C43F4800323645C
:101EF800236C03F480030293029BD7E70058004049
:101F0800003802400004024008B5FFF7B7FE08BDDC
:101F180010B5846BA36A43B3A06B0268136803F41B
:101F28000023A16A11F0010F00D143B9136813F41B
:101F3800002F0FD0A26A236B9A422BD010BDD36812
:101F4800E16A002203EBC10101F046FDA36A013BEF
:101F5800A362EFE71369E16A012203EBC10101F013
:101F68003BFDA36A013BA362E4E7A36B1B681A6805
:101F780012F4002F02D0626BDA60DBE71A6812F401
:101F8800002FD7D1626BE16A02EB81021A61236BE1
:101F9800A362CFE72268D36843F00103D3602368C4
:101FA8001B6813F0020FC9D0012384F82530C5E758
:101FB80030B583B0044690F82400012852D001209F
:101FC80084F82400022084F825002568286840F455
:101FD800804028602568286820F00200286025686D
:101FE800286801432960A16B1F48C863A16B1F487B
:101FF800C864A06B00210165A1622163B3F5803F2D
:1020080007D3A16B184848640121A162E3626263A7
:102018000BE021682831A06B01F0C8FD18E0E36AE5
:102028005B08E362A36A5B00A362E36AB3F5803FDF
:10203800F5D2A36A023BA362A36A2363E36A216819
:10204800E06A009002EB83032831A06B00F044FDA6
:102058002268136843F001031360002084F8240009
:1020680003B030BD0220FBE7191F000879200008E3
:1020780008B5806B836B5B6D022B02D0012380F85F
:102088002530FFF77EFC08BD38B5044603681D6996
:1020980015F0040F1DD115F0020F29D115F0100FFE
:1020A80037D115F0080F3BD115F0010F10D0236878
:1020B8001A6812F0020F03D0DA6822F01E02DA6002
:1020C8002268D36823F00103D3602046FFF753FC4E
:1020D80038BD04225A61C36B43F00203C36380F81E
:1020E8002520836B124A1A65806B01F094FDD2E7B4
:1020F800236802225A61E36B43F00103E36304237C
:1021080084F82530A36B0A4A1A65A06B01F083FD99
:10211800C4E7236810225A612046FFF730FCC0E765
:10212800236808225A612046FFF72AFCBCE700BF53
:1021380079200008002840D010B5044690F82530D2
:1021480033B3022384F82530226813686FF3CB0376
:10215800136021680A68636860690343E0680343A1
:1021680020690343A0680343A0690343206A03432B
:1021780013430B606368102B12D02268D36843F0B6
:102188001E03D3600020E063012384F8253010BDCE
:1021980080F82430FFF7CCFD2046FFF7C9FDD0E7D3
:1021A800237F627F43EA0223A27F43EA0243E17F5F
:1021B800226843EA01639361DFE70120704700006A
:1021C800002800F0E08170B582B00446036813F07F
:1021D800010F3BD09F4B9B6803F00C03042B2CD0C2
:1021E8009C4B9B6803F00C03082B21D06368B3F564
:1021F800803F4FD0B3F5A02F52D0964B1A6822F4E7
:1022080080321A601A6822F480221A606368002BF0
:1022180050D001F0C5FE05468E4B1B6813F4003FF5
:1022280014D101F0BDFE401B6428F5D90320B1E1AB
:10223800884B5B6813F4800FD8D0864B1B6813F467
:10224800003F03D06368002B00F09F81236813F0E0
:10225800020F54D07F4B9B6813F00C0F3ED07D4B80
:102268009B6803F00C03082B33D0E368002B68D07D
:10227800794B01221A6001F093FE0546754B1B68E5
:1022880013F0020F54D101F08BFE401B0228F5D940
:1022980003207FE16F4A136843F480331360B5E786
:1022A8006C4B1A6842F480221A601A6842F4803231
:1022B8001A60ABE701F074FE0546664B1B6813F421
:1022C800003FC3D001F06CFE401B6428F5D9032001
:1022D80060E1604B5B6813F4800FC6D15D4B1B68EF
:1022E80013F0020F03D0E368012B40F05081594AE4
:1022F800136823F0F803216943EAC10313602368D4
:1023080013F0080F42D063696BB3534B0122C3F833
:10231800802E01F045FE05464E4B5B6F13F0020F11
:1023280034D101F03DFE401B0228F5D9032031E1EC
:10233800484A136823F0F803216943EAC10313608C
:10234800DDE7454B00221A6001F02AFE0546414BA5
:102358001B6813F0020FD2D001F022FE401B0228A6
:10236800F5D9032016E13C4B0022C3F8802E01F07A
:1023780017FE0546374B5B6F13F0020F06D001F0CE
:102388000FFE401B0228F5D9032003E1236813F050
:10239800040F77D02F4B1B6C13F0805F33D10023D1
:1023A80001932C4B1A6C42F080521A641B6C03F098
:1023B80080530193019B0125284B1B6813F4807FF0
:1023C80023D0A368012B34D0052B38D0214B1A6FAA
:1023D80022F001021A671A6F22F004021A67A36832
:1023E800002B3DD001F0DCFD06461A4B1B6F13F0A5
:1023F800020F46D101F0D4FD801B41F28833984288
:10240800F3D90320C6E00025D6E7144A136843F43D
:102418008073136001F0C4FD0646104B1B6813F46B
:10242800807FCED101F0BCFD801B0228F5D90320A6
:10243800B0E0084A136F43F001031367CFE7054B79
:102448001A6F42F004021A671A6F42F001021A6703
:10245800C5E700BF00380240000047420070004056
:1024680001F09EFD0646524B1B6F13F0020F08D079
:1024780001F096FD801B41F288339842F3D903207E
:1024880088E0EDB9A369002B00F08380484A926880
:1024980002F00C02082A51D0022B17D0454B00221B
:1024A8001A6601F07DFD0446414B1B6813F0007F5E
:1024B80042D001F075FD001B0228F5D9032069E020
:1024C8003B4A136C23F080531364DBE7394B00223B
:1024D8001A6601F065FD0546354B1B6813F0007F51
:1024E80006D001F05DFD401B0228F5D9032051E01C
:1024F800E369226A1343626A43EA8213A26A5208B2
:10250800013A43EA0243E26A43EA0263284A536013
:10251800284B01221A6601F043FD0446244B1B6830
:1025280013F0007F06D101F03BFD001B0228F5D90E
:1025380003202FE000202DE000202BE0012B2BD0E2
:102548001B4B5B6803F48001E269914226D103F0DA
:102558003F02216A8A4223D1616A47F6C0721A4053
:10256800B2EB811F1ED103F44031A26A5208013A2E
:10257800B1EB024F18D103F07063E26AB3EB026F5C
:1025880014D1002006E001207047012002E001205C
:1025980000E0002002B070BD0120FBE70120F9E750
:1025A8000120F7E70120F5E70120F3E70120F1E733
:1025B800003802400000474270B588B00C46154606
:1025C80000BB00230193204E326B42F001023263BC
:1025D800326B02F001020192019A4FF48072039269
:1025E80002220492032206920593079303A917482F
:1025F80000F064F9B36823F0EC6325431D43B5602C
:1026080008B070BD002302930F4E326B42F00402F3
:102618003263326B02F004020292029A4FF40072A3
:10262800039202220492032206920593079303A9B8
:10263800074800F043F9B36823F0784344EAC50437
:102648001C43B460DCE700BF0038024000000240D1
:102658000008024008B5334B9B6803F00C03042BB9
:102668005BD0082B5BD12F4B5A6802F03F025B68A6
:1026780013F4800F2CD02B4B5868C0F388104FEA06
:10268800401CBCEB000C6EEB0E0E4FEA8E1343EAB7
:102698009C634FEA8C11B1EB0C0163EB0E03DB007A
:1026A80043EA5173C90011EB000C43F100035902CE
:1026B80000234FEA4C2041EADC51FDF761FD194B3C
:1026C8005B68C3F3014301335B00B0FBF3F008BD63
:1026D800144B5868C0F388104FEA401CBCEB000C40
:1026E8006EEB0E0E4FEA8E1343EA9C634FEA8C1191
:1026F800B1EB0C0163EB0E03DB0043EA5173C90035
:1027080011EB000C43F10003990200234FEA8C20DF
:1027180041EA9C51FDF734FDD1E70348D7E7034868
:10272800D5E700BF0038024000127A000024F40008
:10273800002800F09B8070B50D4604464F4B1B687F
:1027480003F007038B4208D2CBB24C4A13701368CC
:1027580003F007038B4240F08B80236813F0020FCD
:1027680017D013F0040F04D0454A936843F4E0539C
:102778009360236813F0080F04D0414A936843F428
:10278800604393603E4A936823F0F003A1680B43CB
:102798009360236813F0010F32D06368012B21D0B6
:1027A8009A1E012A25D9364A126812F0020F61D002
:1027B80033498A6822F0030213438B6001F0F0FB6F
:1027C80006462F4B9B6803F00C036268B3EB820F3D
:1027D80016D001F0E5FB801B41F288339842F0D90E
:1027E800032042E0264A126812F4003FE0D101209B
:1027F8003BE0234A126812F0007FD9D1012034E06F
:102808001E4B1B6803F00703AB4207D9EAB21B4B08
:102818001A701B6803F00703AB422DD1236813F02D
:10282800040F06D0164A936823F4E053E1680B437B
:102838009360236813F0080F07D0114A936823F4B4
:102848006043216943EAC1039360FFF703FF0C4B20
:102858009B68C3F303130B4AD35CD8400A4B186038
:102868000A4B186801F050FB002070BD012070472A
:102878000120FAE70120F8E70120F6E7003C0240D2
:1028880000380240B45100081C0000201800002045
:10289800014B1868704700BF1C00002008B5FFF7FF
:1028A800F7FF044B9B68C3F38223034AD35CD840E9
:1028B80008BD00BF00380240AC51000800230F2BB0
:1028C80000F2E98070B582B065E085684FEA430E92
:1028D800032404FA0EF425EA0405CC6804FA0EF47D
:1028E8002C438460446824EA02044A68C2F3001254
:1028F8009A40224342605CE0DC08083450F8242007
:1029080003F00705AD004FF00F0E0EFA05FE22EAA0
:102918000E0E0A69AA4042EA0E0240F824205CE042
:10292800072200E0002202FA0EF22A4302345A4D2E
:1029380045F82420594A94686FEA0C0224EA0C05E9
:102948004E6816F4801F01D04CEA0405534CA5606C
:10295800E46802EA04054E6816F4001F01D04CEA48
:1029680004054E4CE560646802EA04054E6816F4F6
:10297800003F01D04CEA0405484C656024682240B9
:102988004D6815F4803F01D04CEA0402434C2260A4
:1029980001330F2B7DD801229A400C6804EA020CFF
:1029A80032EA0404F4D14C6804F00304013C012C1D
:1029B8008BD94A6802F00302032A09D0C4685D0073
:1029C8000322AA4024EA02048A68AA402243C26079
:1029D8004A6802F00302022A8ED004684FEA430EC6
:1029E800032202FA0EF224EA02044A6802F0030201
:1029F80002FA0EF2224302604A6812F4403FC7D03E
:102A080000220192264A546C44F480445464526C67
:102A180002F480420192019A9C08A51C1E4A52F8B1
:102A2800255003F0030E4FEA8E0E0F2202FA0EF223
:102A380025EA02051B4A90423FF474AF02F5806212
:102A480090421AD002F58062904218D002F5806256
:102A5800904216D002F58062904214D002F580624E
:102A6800904212D002F58062904210D002F5806246
:102A780090423FF455AF082255E7012253E702225E
:102A880051E703224FE704224DE705224BE70622D0
:102A980049E702B070BD704700380140003C014072
:102AA80000380240000002400AB181617047090401
:102AB8008161704710B4046863608368402B06D056
:102AC800036899600368DA605DF8044B704703682F
:102AD8009A600368D960F7E738B5044680688028AB
:102AE80017D0E06BD0B1606CC0B1E06CB0B194F8B5
:102AF8003400012800F06987012084F8340094F834
:102B08003500C0B201280DD0002384F834300220EB
:102B180007E04FF480736365012002E0402363659A
:102B2800012038BD022084F8350000206065256842
:102B3800286840F48020286020680361049B2046B0
:102B4800FFF7B8FF2368A54A934240F29880A2F5A0
:102B58008962934231D002F58062934274D0A2F523
:102B68006872934272D002F58062934270D0A2F5E7
:102B7800896293426ED002F5806293426DD0A2F5CD
:102B8800687293426CD002F5806293426BD0A2F5D2
:102B9800896293426AD002F58062934269D0A2F5B5
:102BA8006872934268D002F58062934202D04FF077
:102BB800006203E04FF4001200E02022884BDA6044
:102BC8002368864A934240F2CC81A2F589629342F7
:102BD80000F0658102F58062934200F0A781A2F5BA
:102BE8006872934200F0A48102F58062934200F07B
:102BF800A181A2F58962934200F09E8102F580626C
:102C0800934200F09C81A2F56872934200F09A8189
:102C180002F58062934200F09881A2F5896293429E
:102C280000F0968102F58062934200F09481A2F54B
:102C38006872934200F0928102F58062934200F03C
:102C48002B814FF080622BE12022B7E72022B5E7E5
:102C58002022B3E74FF40062B0E74FF40062ADE71B
:102C68004FF40062AAE74FF40062A7E74FF400129E
:102C7800A4E74FF40012A1E74FF400129EE7594A67
:102C8800934253D9A83A934231D002F580629342D5
:102C980031D0A2F5687293422FD002F58062934238
:102CA8002DD0A2F5896293422BD002F5806293421F
:102CB8002AD0A2F56872934229D002F58062934225
:102CC80028D0A2F58962934227D002F58062934208
:102CD80026D0A2F56872934225D002F5806293420D
:102CE80002D04FF0006303E04FF4001300E020230C
:102CF8003B4A936064E72023FAE72023F8E7202380
:102D0800F6E74FF40063F3E74FF40063F0E74FF49E
:102D18000063EDE74FF40063EAE74FF40013E7E7D9
:102D28004FF40013E4E74FF40013E1E72E4A93420F
:102D38005ED9483A934231D002F58062934231D04D
:102D4800A2F5687293422FD002F5806293422DD08B
:102D5800A2F5896293422BD002F5806293422AD071
:102D6800A2F56872934229D002F58062934228D076
:102D7800A2F58962934227D002F58062934226D059
:102D8800A2F56872934225D002F58062934202D080
:102D98004FF0006303E04FF4001300E02023134AD0
:102DA800D3600DE72023FAE72023F8E72023F6E78E
:102DB8004FF40063F3E74FF40063F0E74FF4006368
:102DC800EDE74FF40063EAE74FF40013E7E74FF449
:102DD8000013E4E74FF40013E1E700BF5864024032
:102DE80000640240B860024058600240006002403F
:102DF800B14A934231D002F58062934231D0A2F5B4
:102E0800687293422FD002F5806293422DD0A2F5CA
:102E1800896293422BD002F5806293422AD0A2F5B0
:102E28006872934229D002F58062934228D0A2F5B5
:102E38008962934227D002F58062934226D0A2F598
:102E48006872934225D002F58062934202D04FF017
:102E5800006303E04FF4001300E02023974A9360D7
:102E6800AEE62023FAE72023F8E72023F6E74FF41D
:102E78000063F3E74FF40063F0E74FF40063EDE716
:102E88004FF40063EAE74FF40013E7E74FF4001349
:102E9800E4E74FF40013E1E74FF4801200E010225A
:102EA800874BDA602368874A934240F2CD81A2F5C6
:102EB8008962934200F0668102F58062934200F0D5
:102EC800A881A2F56872934200F0A58102F580629C
:102ED800934200F0A281A2F58962934200F09F819B
:102EE80002F58062934200F09D81A2F568729342D8
:102EF80000F09B8102F58062934200F09981A2F56F
:102F08008962934200F0978102F58062934200F053
:102F18009581A2F56872934200F0938102F5806270
:102F2800934200F02C814FF000722CE11022B7E799
:102F38001022B5E71022B3E74FF48062B0E74FF4F0
:102F48008062ADE74FF48062AAE74FF48062A7E79A
:102F58004FF48012A4E74FF48012A1E74FF48012D7
:102F68009EE7594A934253D9A83A934231D002F581
:102F78008062934231D0A2F5687293422FD002F555
:102F8800806293422DD0A2F5896293422BD002F53C
:102F9800806293422AD0A2F56872934229D002F542
:102FA8008062934228D0A2F58962934227D002F525
:102FB8008062934226D0A2F56872934225D002F52A
:102FC8008062934202D04FF0806303E04FF4801395
:102FD80000E010233A4A936064E71023FAE71023CD
:102FE800F8E71023F6E74FF48063F3E74FF48063C4
:102FF800F0E74FF48063EDE74FF48063EAE74FF4BE
:103008008013E7E74FF48013E4E74FF48013E1E718
:103018002E4A93425FD9483A934231D002F58062F2
:10302800934231D0A2F5687293422FD002F58062A4
:1030380093422DD0A2F5896293422BD002F580628B
:1030480093422AD0A2F56872934229D002F5806291
:10305800934228D0A2F58962934227D002F5806274
:10306800934226D0A2F56872934231D002F580626D
:10307800934202D04FF0806303E04FF4801300E0E6
:1030880010230E4AD3600DE71023FAE71023F8E760
:103098001023F6E74FF48063F3E74FF48063F0E71B
:1030A8004FF48063EDE74FF48063EAE74FF4801351
:1030B800E7E74FF48013E4E7106002400060024045
:1030C8000064024058640240B86002405860024000
:1030D8004FF48013D5E7B24A934231D002F58062AB
:1030E800934231D0A2F5687293422FD002F58062E4
:1030F80093422DD0A2F5896293422BD002F58062CB
:1031080093422AD0A2F56872934229D002F58062D0
:10311800934228D0A2F58962934227D002F58062B3
:10312800934226D0A2F56872934225D002F58062B8
:10313800934202D04FF0806303E04FF4801300E025
:103148001023984A9360ADE61023FAE71023F8E7B6
:103158001023F6E74FF48063F3E74FF48063F0E75A
:103168004FF48063EDE74FF48063EAE74FF4801390
:10317800E7E74FF48013E4E74FF48013E1E74FF4F7
:10318800002200E00822884BDA602368874A9342CD
:1031980040F2CE81A2F58962934200F0678102F580
:1031A8008062934200F0A981A2F56872934200F010
:1031B800A68102F58062934200F0A381A2F589629C
:1031C800934200F0A08102F58062934200F09E8154
:1031D800A2F56872934200F09C8102F580629342E6
:1031E80000F09A81A2F58962934200F0988102F575
:1031F8008062934200F09681A2F56872934200F0D3
:10320800948102F58062934200F02D814FF0807224
:103218002DE10822B7E70822B5E70822B3E74FF403
:103228000072B0E74FF40072ADE74FF40072AAE7FE
:103238004FF40072A7E74FF40022A4E74FF40022EE
:10324800A1E74FF400229EE7594A934253D9A83A7E
:10325800934231D002F58062934231D0A2F5687270
:1032680093422FD002F5806293422DD0A2F5896255
:1032780093422BD002F5806293422AD0A2F568725D
:10328800934229D002F58062934228D0A2F5896240
:10329800934227D002F58062934226D0A2F5687245
:1032A800934225D002F58062934202D04FF000731A
:1032B80003E04FF4002300E008233B4A936064E7EF
:1032C8000823FAE70823F8E70823F6E74FF4007322
:1032D800F3E74FF40073F0E74FF40073EDE74FF4B2
:1032E8000073EAE74FF40023E7E74FF40023E4E72D
:1032F8004FF40023E1E72F4A934260D9483A9342BA
:1033080031D002F58062934231D0A2F568729342BF
:103318002FD002F5806293422DD0A2F589629342A4
:103328002BD002F5806293422AD0A2F568729342AC
:1033380029D002F58062934228D0A2F5896293428F
:1033480027D002F58062934226D0A2F56872934294
:1033580032D002F58062934202D04FF0007303E04E
:103368004FF4002300E008230E4AD3600DE708233A
:10337800FAE70823F8E70823F6E74FF40073F3E7C2
:103388004FF40073F0E74FF40073EDE74FF4007368
:10339800EAE74FF40023E7E74FF40023E4E700BF30
:1033A800106002400060024000640240586402401D
:1033B800B8600240586002404FF40023D4E7B24A94
:1033C800934231D002F58062934231D0A2F56872FF
:1033D80093422FD002F5806293422DD0A2F58962E4
:1033E80093422BD002F5806293422AD0A2F56872EC
:1033F800934229D002F58062934228D0A2F58962CF
:10340800934227D002F58062934226D0A2F56872D3
:10341800934225D002F58062934202D04FF00073A8
:1034280003E04FF4002300E00823984A9360ACE6D9
:103438000823FAE70823F8E70823F6E74FF40073B0
:10344800F3E74FF40073F0E74FF40073EDE74FF440
:103458000073EAE74FF40023E7E74FF40023E4E7BB
:103468004FF40023E1E74FF4802200E00422884B68
:10347800DA602368874A934240F2A181A2F5896203
:10348800934200F0678102F58062934200F08081E8
:10349800A2F56872934200F07D8102F58062934242
:1034A80000F07A81A2F58962934200F0778102F5F3
:1034B8008062934200F07481A2F56872934200F032
:1034C800718102F58062934200F06E81A2F58962F3
:1034D800934200F06B8102F58062934200F06981AB
:1034E800A2F56872934200F0678102F58062934208
:1034F80000F02D814FF480022DE10422B7E7042269
:10350800B5E70422B3E74FF48072B0E74FF4807256
:10351800ADE74FF48072AAE74FF48072A7E74FF443
:103528008022A4E74FF48022A1E74FF480229EE78F
:10353800594A934253D9A83A934231D002F580624E
:10354800934231D0A2F5687293422FD002F580627F
:1035580093422DD0A2F5896293422BD002F5806266
:1035680093422AD0A2F56872934229D002F580626C
:10357800934228D0A2F58962934227D002F580624F
:10358800934226D0A2F56872934225D002F5806254
:10359800934202D04FF0807303E04FF4802300E0A1
:1035A80004233B4A936064E70423FAE70423F8E71B
:1035B8000423F6E74FF48073F3E74FF48073F0E7E2
:1035C8004FF48073EDE74FF48073EAE74FF48023FC
:1035D800E7E74FF48023E4E74FF48023E1E72F4A3D
:1035E800934260D9483A934231D002F580629342BF
:1035F80031D0A2F5687293422FD002F580629342CF
:103608002DD0A2F5896293422BD002F580629342B5
:103618002AD0A2F56872934229D002F580629342BB
:1036280028D0A2F58962934227D002F5806293429E
:1036380026D0A2F56872934232D002F58062934296
:1036480002D04FF0807303E04FF4802300E004239E
:103658000E4AD3600DE70423FAE70423F8E70423AE
:10366800F6E74FF48073F3E74FF48073F0E74FF415
:103678008073EDE74FF48073EAE74FF48023E7E7C0
:103688004FF48023E4E700BF10600240006002406E
:103698000064024058640240B8600240586002402A
:1036A8004FF48023D4E7994A934231D002F58062DF
:1036B800934231D0A2F5687293422FD002F580620E
:1036C80093422DD0A2F5896293422BD002F58062F5
:1036D80093422AD0A2F56872934229D002F58062FB
:1036E800934228D0A2F58962934227D002F58062DE
:1036F800934226D0A2F56872934225D002F58062E3
:10370800934202D04FF0807303E04FF4802300E02F
:1037180004237F4A9360ACE60423FAE70423F8E71E
:103728000423F6E74FF48073F3E74FF48073F0E770
:103738004FF48073EDE74FF48073EAE74FF480238A
:10374800E7E74FF48023E4E74FF48023E1E74FF401
:10375800803200E001226F4BDA602268136843F080
:10376800160313602268536943F080035361236C86
:10377800002B00F025812268136843F008031360CA
:103788002268136843F0010313600020FFF7C9B9EA
:103798000122E0E70122DEE70122DCE74022DAE746
:1037A8004022D8E74022D6E74022D4E74FF48032BF
:1037B800D1E74FF48032CEE74FF48032CBE7564A58
:1037C80093424FD9A83A934231D002F5806293428E
:1037D80031D0A2F5687293422FD002F580629342ED
:1037E8002DD0A2F5896293422BD002F580629342D4
:1037F80029D0A2F56872934227D002F580629342DD
:1038080025D0A2F58962934223D002F580629342C3
:1038180022D0A2F56872934221D002F580629342C9
:1038280002D04FF4800303E04FF4803300E001231B
:10383800384A936091E70123FAE70123F8E7012367
:10384800F6E74023F4E74023F2E74023F0E740237C
:10385800EEE74FF48033EBE74FF48033E8E74FF4BB
:103868008033E5E72D4A93425AD9483A934231D0FA
:1038780002F58062934231D0A2F5687293422FD04C
:1038880002F5806293422DD0A2F5896293422BD033
:1038980002F58062934229D0A2F56872934227D03C
:1038A80002F58062934225D0A2F58962934223D023
:1038B80002F58062934222D0A2F56872934221D029
:1038C80002F58062934202D04FF4800303E04FF484
:1038D800803300E001230E4AD3603EE70123FAE774
:1038E8000123F8E70123F6E74023F4E74023F2E752
:1038F8004023F0E74023EEE74FF48033EBE74FF443
:103908008033E8E74FF48033E5E700BF10600240FA
:103918000060024000640240B86002405860024003
:103928002B4A934231D002F58062934231D0A2F5FE
:10393800687293422FD002F5806293422DD0A2F58F
:10394800896293422BD002F58062934229D0A2F576
:103958006872934227D002F58062934225D0A2F57F
:103968008962934223D002F58062934222D0A2F565
:103978006872934221D002F58062934202D04FF4DC
:10398800800303E04FF4803300E00123114A936081
:10399800E3E60123FAE70123F8E70123F6E74023EA
:1039A800F4E74023F2E74023F0E74023EEE74FF443
:1039B8008033EBE74FF48033E8E74FF48033E5E7F3
:1039C800A36C002B7FF4D7AEDAE60220FFF7A9B884
:1039D80010600240006002401AB90368D9600020F4
:1039E800704703681961FAE730B405682C6824F455
:1039F80080242C60046863608368402B05D00368CA
:103A080099600368DA6030BC704703689A6003689D
:103A1800D960F8E710B40368D9B210390A4AA2FB92
:103A280001421209094CA25CC2655F2907D96FF3EC
:103A3800090304338365806D5DF8044B70476FF3A9
:103A480009038365F7E700BFABAAAAAAA451000837
:103A5800836A826992B9012B0AD0022B02D00BB17A
:103A680000207047C36A13F0807F28D10020704778
:103A7800C36AB3F1C07F24D000207047B2F5005F5D
:103A880009D0022B25D9032B25D1C36A13F0807FD7
:103A980023D100207047032B03D8DFE803F0140478
:103AA800140A00207047C36A13F0807F0DD10020EC
:103AB8007047C36AB3F1C07F09D000207047012066
:103AC800704701207047012070470120704701208E
:103AD80070470120704700207047012070470000A0
:103AE80070B5044600F05CFA002C5BD00546022352
:103AF80084F83530002384F834302268136823F0C2
:103B08000103136023681A6812F0010F0AD000F04D
:103B180047FA431B052BF5D920236365032084F856
:103B2800350070BD1A68204911406268A0680243D8
:103B3800E06802432069024360690243A0690243C6
:103B4800E0690243206A02430A43616A04291ED0DD
:103B58001A602668756925F00705636A1D43042BFA
:103B680007D1A36A1D43E36A1BB12046FFF770FF24
:103B780090B975612046FFF74DFFE26D3F239340F2
:103B8800836000206065012384F83530C9E7E16A65
:103B9800206B01430A43DBE740236365012084F877
:103BA8003500BEE70120BCE73F8010F038B5044679
:103BB800856D90F8340001282BD0012084F834005A
:103BC80094F83500C0B2012804D0002384F83430BA
:103BD800022038BD022084F83500002060652046A8
:103BE800FFF702FFE26D3F239340AB602268136842
:103BF80043F016031360236C23B12268136843F063
:103C0800080313602268136843F00103136000205F
:103C1800DFE70220DDE790F83530DBB2022B03D076
:103C28008023436501207047052380F835300268FA
:103C3800136823F00103136000207047F0B583B0C8
:103C4800044600230193724B1D68724BA3FB053594
:103C5800AD0A876D3E68C26D08239340334210D089
:103C680003681A6812F0040F0BD01A6822F00402D5
:103C78001A60C26D08239340BB60436D43F0010393
:103C88004365E26D01239340334209D022685269AB
:103C980012F0800F04D0BB60636D43F002036365CC
:103CA800E26D04239340334209D02268126812F06F
:103CB800020F04D0BB60636D43F004036365E26DDB
:103CC80010239340334224D02268126812F0080F60
:103CD8001FD0BB6023681A6812F4802F0DD01B68B0
:103CE80013F4002F04D1236C9BB12046984710E0B1
:103CF800A36C73B1204698470BE01A6812F4807FD2
:103D080003D11A6822F008021A60236C0BB120460E
:103D18009847E26D20239340334255D022681268B9
:103D280012F0100F50D0BB6094F83530DBB2052B81
:103D38000ED023681A6812F4802F33D01B6813F44E
:103D4800002F2AD1636C002B3ED0204698473BE0D9
:103D58002268136823F0160313602268536923F05E
:103D680080035361236CA3B12268136823F008030E
:103D78001360E26D3F239340BB60012384F8353024
:103D8800002384F83430236D002B3FD02046984719
:103D98003CE0A36C002BE7D1EBE7E36BA3B1204633
:103DA800984711E01A6812F4807F09D11A6822F046
:103DB80010021A60012384F83530002384F8343067
:103DC800E36B0BB120469847636DFBB1636D13F04D
:103DD800010F17D0052384F835302268136823F0C3
:103DE80001031360019B01330193AB4204D823689C
:103DF8001B6813F0010FF5D1012384F83530002337
:103E080084F83430E36C0BB12046984703B0F0BD1A
:103E18001C000020B5814E1B002808DB0901C9B22F
:103E280000F1604000F5614080F80013704700F031
:103E38000F000901C9B2014B1954704714ED00E095
:103E480000B500F00700C0F1070CBCF1040F28BF53
:103E58004FF0040C031D062B0FD9C31E4FF0FF3E75
:103E68000EFA0CF021EA000199400EFA03FE22EA4C
:103E78000E0241EA02005DF804FB0023EEE70000B1
:103E8800074AD36823F4E0631B041B0C000200F408
:103E9800E060034343F0BF6343F40033D3607047EB
:103EA80000ED00E010B50446054BD868C0F30220C9
:103EB800FFF7C6FF01462046FFF7AEFF10BD00BF63
:103EC80000ED00E0002807DB00F01F024009012395
:103ED8009340024A42F82030704700BF00E100E0FA
:103EE8000138B0F1807F0BD24FF0E0235861054ACA
:103EF800F02182F823100020986107221A61704788
:103F08000120704700ED00E010B504460E4B1A780A
:103F18004FF47A73B3FBF2F30C4A1068B0FBF3F07A
:103F2800FFF7DEFF68B90F2C01D901200AE0002253
:103F380021464FF0FF30FFF7B5FF054B1C6000200E
:103F480000E0012010BD00BF140000201C0000206C
:103F58001800002008B50B4B1A6842F400721A606A
:103F68001A6842F480621A601A6842F480721A6011
:103F78000320FFF785FF0F20FFF7C6FFFDF7BCFE04
:103F8800002008BD003C0240034A1168034B1B781F
:103F98000B441360704700BFC8C6002014000020FF
:103FA800014B1868704700BFC8C6002038B50446E2
:103FB800FFF7F6FF0546B4F1FF3F02D0044B1B782C
:103FC8001C44FFF7EDFF401BA042FAD338BD00BFE9
:103FD8001400002010B40A6850F8223023F00103BE
:103FE80040F822308B68082B25D000244A682243E9
:103FF8001343CA6813430A6913434A691343CA69D6
:1040080013430A6A13434A6A13438A6A1343CA6A00
:1040180013430A6B13438A691A43CB6B1A43096823
:1040280050F82140054B2340134340F8213000202D
:104038005DF8044B70474024D8E700BF8000F0FFCC
:1040480010B5013250F8223003F0404C0B684C6830
:1040580043EA04138C6843EA0423CC6843EA044324
:104068000C6904F1FF3E43EA0E534C69A4F1020EB9
:1040780043EA0E6389690B434CEA030340F8223094
:10408800002010BDB3F5804F05D06FF0704340F8A5
:1040980022300020704730B450F82230094C1C40C0
:1040A8000B684D6843EA05138D6843EA05238D695B
:1040B8002B43C96843EA01431C4340F822400020CF
:1040C80030BC70470000F0CF40B370B50E461546BF
:1040D800044690F84930E3B1214651F8080BFFF740
:1040E80079FFA26831462068FFF7AAFF236BA26810
:1040F80029466068FFF7C6FF2268A16852F8213098
:1041080043F0010342F82130012384F849300020AC
:1041180070BD80F84830FDF7F7FEDDE701207047F5
:1041280003685A6912F4806F01D1002070476FF458
:1041380080625A6100230363202280F83D2080F8C2
:104148003E30026C42F00402026480F83C300120E8
:1041580070472DE9F04107460D4690461E4624E07B
:10416800FFF71EFF069BC01AB04200D8EEB9002325
:104178003B63202287F83D2087F83E303A6C42F0B6
:1041880020023A6487F83C3001201EE03B689C69B5
:1041980025EA040C1FFA8CFCBCFA8CFC4FEA5C1C68
:1041A800E04511D1B6F1FF3FDAD1C5F30743012B42
:1041B800ECD13B685B6925EA030C1FFA8CFCBCFA5E
:1041C8008CFC4FEA5C1CEBE70020BDE8F0812DE990
:1041D800F04105460E46174698463DE01A6842F4F7
:1041E80000721A602B686FF480625A6100232B6397
:1041F800202285F83D2085F83E302A6C42F00402E2
:104208002A6485F83C30012034E0FFF7C9FEA0EBB2
:104218000800B84200D8FFB900232B63202285F894
:104228003D2085F83E302A6C42F020022A6485F849
:104238003C3001201EE02B689C6926EA0404A4B2E5
:10424800003C18BF0124A4B12B685A6912F4806F8E
:10425800C4D1B7F1FF3FD8D1C6F30743012BEAD148
:104268002B685C6926EA0404A4B2003C18BF012448
:10427800E9E70020BDE8F081F0B583B004460D46BB
:1042880016461F46C36A082B0DD0012B0BD013F519
:10429800803F08D0036B122B0AD10268136843F4DD
:1042A8008073136004E02268136843F4807313601A
:1042B8000097334600224FF001112046FFF749FFCF
:1042C80080B92369B3F5804F16D1236805F0FE0540
:1042D8001D613B46324613492046FFF778FFF8B97F
:1042E80003B0F0BD23681B6813F4807F02D04FF43D
:1042F800007323640320F3E7EB11226803F006033D
:1043080043F0F00313613B46324607492046FFF766
:104318005EFF18B92368EDB21D61DAE70120DFE717
:104328000120DDE702000100080001002DE9F0414D
:1043380084B004460D4616461F46C26A01680B68DB
:1043480043F480630B60082A0DD0012A0BD012F5C4
:10435800803F08D0036B112B0AD10268136843F41D
:104368008073136004E02268136843F48073136059
:104378000097334600224FF001112046FFF7E9FE6F
:1043880098B92369B3F5804F19D1236845F0010521
:10439800EDB21D613B4632462A492046FFF717FF1A
:1043A80000284CD104B0BDE8F08123681B6813F4E1
:1043B800807F02D04FF4007323640320F2E74FEAB2
:1043C800E51808F00608236848F0F0021A613B4631
:1043D80032461D492046FFF7FAFE08B10120E1E701
:1043E8002368EDB21D613B46324616492046FFF769
:1043F800EEFE08B10120D5E700220392236859692F
:104408000391996903910399196841F480711960BE
:10441800009733464FF001112046FFF79AFE20B966
:10442800226848F0F1031361B4E723681B6813F4AA
:10443800807F02D04FF4007323640320B2E7012089
:10444800B0E700BF020001000800010070B5044693
:104458000D46164623685B6913F0800F1CD1204671
:10446800FFF75EFED0B9B5F1FF3FF3D0FFF798FD37
:10447800801BA84201D8002DECD100232363202201
:1044880084F83D2084F83E30226C42F020022264F9
:1044980084F83C30012000E0002070BD0120FCE7DA
:1044A80070B504460D46164623685B6913F0040F81
:1044B8001CD12046FFF734FED0B9B5F1FF3FF3D049
:1044C800FFF76EFD801BA84201D8002DECD1002318
:1044D8002363202284F83D2084F83E30226C42F089
:1044E8002002226484F83C30012000E0002070BDE6
:1044F8000120FCE770B505460C4616462B6859693D
:1045080011F0400F29D1596911F0100F15D1FFF79B
:1045180047FD801BA04201D8002CEFD100232B635C
:10452800202285F83D2085F83E302A6C42F0200292
:104538002A6485F83C30012070BD6FF010025A6182
:1045480000232B63202285F83D2085F83E302A6C15
:104558002A6485F83C300120EEE70020ECE70000F3
:10456800002800F0CC8070B5044690F83D30002B50
:1045780077D0242384F83D302268136823F00103A0
:1045880013602268136843F40043136022681368B9
:1045980023F400431360FEF781F962685A4B9A428C
:1045A80064D85A4B98428CBF00230123002B40F05B
:1045B800A8805749A1FB00318B0C25686A6822F056
:1045C8003F0242EA91426A6021680A6A22F03F0289
:1045D80066684D4DAE424FD8013313430B622168D4
:1045E800CA6922F44F4222F0FF026568464B9D4299
:1045F8004CD8431E6D00B3FBF5F3013340F6FC7055
:10460800034278D0C3F30B031A43CA6121680B68CD
:1046180023F0C003E269206A024313430B60216858
:104628008B6823F4034323F0FF032269E068024305
:1046380013438B602168CB6823F0FF036269A0698C
:1046480002431343CB602268136843F001031360ED
:1046580000202064202384F83D30206384F83E0045
:1046680070BD80F83C30FDF715FC82E7294B984275
:104678008CBF0023012399E74FF4967505FB03F3DC
:10468800254DA5FB03539B090133A6E7A668BEB9D0
:10469800431E05EB450CB3FBFCF30133C3F30B03DB
:1046A800B3FA83F35B0943BBC6B9431E05EB450563
:1046B800B3FBF5F30133C3F30B0343F40043A3E760
:1046C800431E05EB850C0CEB8C0CB3FBFCF30133A0
:1046D800C3F30B03B3FA83F35B09E4E7431E05EB6B
:1046E800850505EB8505B3FBF5F30133C3F30B0330
:1046F80043F4404388E7042386E7012384E7012045
:1047080070470120ACE700BFA08601007F841E002F
:1047180083DE1B43FF083D00D34D62102DE9F043B3
:1047280085B004460F46914698460C9EFFF738FC24
:10473800054694F83D00C0B2202804D00227384628
:1047480005B0BDE8F0830095192301224F492046A2
:10475800FFF7FFFC002840F0928094F83C30012BD2
:1047680000F08F80012384F83C3023681A6812F027
:10477800010F03D11A6842F001021A602268136817
:1047880023F400631360212384F83D30102384F858
:104798003E3000232364C4F82490A4F82A80638D53
:1047A80023853B4BE3622B46324639462046FFF7CA
:1047B80063FD0746002866D10023039323685A69DE
:1047C80003929B690393039B11E0236C042B01D094
:1047D8000127B4E72268136843F400731360F7E70E
:1047E8002A4631462046FFF75BFE00282ED1238D4E
:1047F800002B36D02A4631462046FFF727FE0028F0
:10480800E3D1626A236812781A61606A431C6362A2
:10481800618D89B2013989B26185238D013B9BB2D3
:1048280023852268516911F0040FD9D0002BD7D005
:1048380043781361636A01336362638D9BB2013B02
:104848009BB26385238D013B2385C9E7236C042B29
:1048580001D0012773E72268136843F400731360DB
:10486800F7E72268136843F400731360202384F881
:104878003D30002384F83E3084F83C305FE702275F
:104888005DE702275BE7012759E700BF0200100038
:104898000000FFFF2DE9F04387B004460F4691461C
:1048A80098460E9EFFF77CFB054694F83D00C0B283
:1048B800202804D00227384607B0BDE8F0830095C9
:1048C8001923012289492046FFF743FC002840F0BC
:1048D800458194F83C30012B00F04281012384F893
:1048E8003C3023681A6812F0010F03D11A6842F0AD
:1048F80001021A602268136823F4006313602223FC
:1049080084F83D30102384F83E3000232364C4F833
:104918002490A4F82A80638D2385754BE3622B4687
:10492800324639462046FFF701FD0746002840F089
:104938001981238D5BB9029323685A6902929A6997
:104948000292029A1A6842F400721A607AE0012B05
:104958000FD0022B1FD02268136843F480631360C2
:104968000023059323685A6905929B690593059B63
:1049780068E02268136823F48063136000230393BC
:1049880023685A6903929A690392039A1A6842F44F
:1049980000721A6056E02268136823F4806313607B
:1049A8002268136843F400631360002304932368A8
:1049B8005A6904929B690493049B43E02A46314652
:1049C8002046FFF797FD002840F0CE8023681A693B
:1049D800636A1A70636A01336362238D013B23851E
:1049E800638D9BB2013B9BB263852BE000953346F8
:1049F800002240492046FFF7ACFB002840F0B68073
:104A08002268136843F40073136023681A69636AA1
:104A18001A70626A531C6362238D013B2385638D80
:104A28009BB2013B9BB2638523681B695370636A21
:104A380001336362238D013B2385638D9BB2013B68
:104A48009BB26385218D00297FD0032954D8012981
:104A5800B4D00229CAD00095334600222549204601
:104A6800FFF777FB002840F083802268136823F45F
:104A78008063136023681A69636A1A70636A013372
:104A88006362238D013B2385618D89B2013989B227
:104A9800618500953346002216492046FFF759FBE9
:104AA800002867D12268136843F4007313602368F1
:104AB8001A69636A1A70626A531C6362238D013B28
:104AC8002385638D9BB2013B9BB2638523681B6979
:104AD8005370636A01336362238D013B2385638DC1
:104AE8009BB2013B9BB26385ACE700BF020010009C
:104AF8000000FFFF040001002A4631462046FFF768
:104B0800F9FC002838D123681A69636A1A70626A46
:104B1800531C6362238D013B2385638D9BB2013B4C
:104B28009BB263852368596911F0040F8AD01B6909
:104B38005370636A01336362238D013B2385638D60
:104B48009BB2013B9BB263857CE7202384F83D3010
:104B5800002384F83E3084F83C30ACE60227AAE60D
:104B68000227A8E60127A6E60127A4E60127A2E670
:104B78000127A0E601279EE601279CE6034AD2F812
:104B8800883043F47003C2F88830704700ED00E0C5
:104B9800DFF834D00D480E490E4A002302E0D458FD
:104BA800C4500433C4188C42F9D30B4A0B4C00236D
:104BB80001E013600432A242FBD3FFF7DFFF00F0ED
:104BC80011F8FCF7FFFF70470000022000000020EA
:104BD80070000020FC8000087000002018C8002029
:104BE800FEE7000070B50D4D0D4C641BA4100026A7
:104BF800A64209D10B4D0C4C00F0B4FA641BA4106A
:104C08000026A64205D170BD55F8043B98470136E9
:104C1800EEE755F8043B98470136F2E7CC51000817
:104C2800CC510008CC510008D0510008024403467A
:104C3800934200D1704703F8011BF9E7024B014684
:104C4800186800F02DB800BF20000020024B014674
:104C5800186800F0CFB800BF2000002070B50F4ED4
:104C68000C463168054611B900F0B4F830602146A9
:104C7800284600F0AFF8431C03D14FF0FF3420461C
:104C880070BDC41C24F00304A042F8D0211A2846A1
:104C980000F0A0F80130F2D1EFE700BFCCC6002049
:104CA8002DE9F843CD1C25F0030508350C2D38BF38
:104CB8000C25002D064601DBA94204D90C233360DC
:104CC8000020BDE8F883DFF8D48000F077F8D8F842
:104CD80000301C4644BB29463046FFF7BFFF431C43
:104CE800044658D1D8F800402746002F43D1002C5D
:104CF8004BD023683946304604EB030900F06AF8C4
:104D0800814542D121686D1A29463046FFF7A6FF32
:104D180001303AD023682B442360D8F800305A6811
:104D280062BBC8F800700FE02268521B20D40B2A1F
:104D380017D96119A342256018BF5960636808BF75
:104D4800C8F8001062514B60304600F03DF804F19D
:104D58000B00231D20F00700C21A1CBF1B1AA3500A
:104D6800AFE76268A3420CBFC8F800205A60EBE7BF
:104D780023466468AEE73C467F68B6E71A465B6838
:104D8800A342FBD100235360DEE70C233360304697
:104D980000F01AF894E70560D6E700BFD0C60020F7
:104DA8000A44914200F1FF3300D1704710B511F861
:104DB800014B03F8014F9142F9D110BD014800F0B1
:104DC80063B800BF0CC80020014800F05EB800BFFF
:104DD8000CC8002038B5064D0023044608462B6051
:104DE80000F054F8431C02D12B6803B1236038BD8E
:104DF80010C8002038B50546002941D051F8043CB8
:104E08000C1F002BB8BFE418FFF7D8FF1D4A136822
:104E180033B9636014602846BDE83840FFF7D4BF53
:104E2800A34208D9206821188B4201BF19685B6822
:104E380009182160EDE71A465B680BB1A342FAD95D
:104E480011685018A0420BD12068014450188342C1
:104E58001160E0D118685B68536008441060DAE7B5
:104E680002D90C232B60D6E7206821188B4204BF97
:104E780019685B68636004BF091821605460CAE759
:104E880038BD00BFD0C6002070477047044A0549A6
:104E98001368002B08BF0B4618441060184670476B
:104EA80014C8002018C800202DE9F047089D0E46B8
:104EB80004460F46002B4AD194468C45B2FA82F23A
:104EC80060D942B1C2F12003974020FA03F30CFAEB
:104ED80002FC1F4394404FEA1C4E1FFA8CF6B7FBA6
:104EE800FEF1230C0EFB117743EA074301FB06F0A2
:104EF80098420AD91CEB030301F1FF3780F01581B2
:104F0800984240F21281023963441B1AA4B2B3FBDF
:104F1800FEF00EFB103344EA034400FB06F6A642FB
:104F28000AD91CEB040400F1FF3380F00081A6428B
:104F380040F2FD806444023840EA0140A41B00218D
:104F48001DB1D4400023C5E90043BDE8F0878B427A
:104F580005D90DB1C5E9000100210846F5E7B3FA06
:104F680083F1002946D1B34202D3824200F2F58090
:104F7800841A66EB030201201746002DE5D0C5E927
:104F88000047E2E7002A40F09380A1EB0C034FEAC8
:104F98001C471FFA8CFE0121B3FBF7F607FB1630FE
:104FA800230C43EA00430EFB06F0984208D91CEB99
:104FB800030306F1FF3802D2984200F2D080464639
:104FC8001B1AA4B2B3FBF7F007FB103344EA0344FF
:104FD8000EFB00FEA64508D91CEB040400F1FF33C4
:104FE80002D2A64500F2B6801846A4EB0E0440EAA9
:104FF8000640A5E7C1F120078B4022FA07FC4CEADE
:10500800030C06FA01FE20FA07F426FA07F344EA2D
:105018000E0400FA01F84FEA1C404FEA1449B3FBAA
:10502800F0FE1FFA8CF600FB1E3349EA03430EFB21
:1050380006F9994502FA01F20BD91CEB03030EF1AC
:10504800FF3A80F08580994540F28280AEF1020EE9
:105058006344A3EB0909A4B2B9FBF0F300FB13996D
:1050680044EA094403FB06F6A64208D91CEB0404EB
:1050780003F1FF3068D2A64266D9023B644443EA92
:105088000E40A41BA0FB02E6B4427346B14652D3BD
:105098004FD05DB1B8EB030264EB090404FA07F7DB
:1050A80022FA01F31F43CC40C5E9007400214CE704
:1050B800C2F1200120FA01F30CFA02FC26FA01F1F0
:1050C800964033434FEA1C471FFA8CFEB1FBF7F0BA
:1050D80007FB1016190C41EA064100FB0EF68E423A
:1050E80004FA02F408D91CEB010100F1FF382DD2B3
:1050F8008E422BD902386144891B9BB2B1FBF7F66B
:1051080007FB161143EA014306FB0EF1994208D941
:105118001CEB030306F1FF3814D2994212D9023E60
:1051280063445B1A46EA004136E73946EDE618461D
:1051380002E7F045ADD2BEEB020366EB0C06013880
:10514800B146A6E74646ECE7034698E74046D3E76C
:10515800D6467EE76444023847E708460DE7023E34
:1051680063442DE7F8B500BFF8BC08BC9E467047FD
:0C517800F8B500BFF8BC08BC9E467047AC
:1051840000003F010000EF000D110008B9100008F5
:10519400B91100085D110008AC009000AC9000004B
:1051A4000006101600061016000000000102030499
:1051B40000000000000000000102030406070809C3
:0851C400ECFCFF7F010000007C
:0451CC0025020008B0
:0451D000FD010008D5
:1051D4009800000006CCB8AE7802000006CC9AB065
:1051E4005804000007CC64A48806000008CCD1ACA5
:1051F4000809000008CCDCB1880B000008CC68A4C6
:10520400080E00000ACC9FAD2811000009CC34B16F
:10521400F813000009CCDABBC816000009CCFAC4A4
:105224009819000008CC38CE181C000009CC9BCD7E
:10523400E81E000009CC34D4B821000009CC0FE8E2
:105244008824000009CC6EE55827000009CCB3F788
:10525400282A000007CC8700582C000007CC9A09A4
:10526400882E000002CC462504000D0711000D070E
:105274001E000D0704070D0711070D071E070D0774
:10528400040E0D07110E0D071E0E0D070000000081
:1052940000CCCCCCFFFFFFFFFFFFFFFFFFBBFFFFF6
:1052A400FFFFFFFFFFFFFFFFFFFFFFFFFFFFFFFF0A
:1052B400FFFFFFFF66F886EC02000D070F000D07E5
:1052C4001C000D0702070D070F070D071C070D072C
:1052D400020E0D070F0E0D071C0E0D070000000037
:1052E40000CCCCCCFFFFFFFFFFFFFFFFBFABFFFFF6
:1052F400BFAFFFFFFFFFFFFFFFFFFFFFBFAFFFFFDA
:10530400FFFFFFFF0BFBBCEC05010C0711010C07B1
:105314001D010C0705080C0711080C071D080C07D4
:10532400050F0C07110F0C071D0F0C0700000000E0
:1053340000CCCCCCBFABFFFFBFBFFFFF2B2AFF3B92
:10534400BFAEFFFFBFBFFFFFFFFFFFFFAFABFFFF1E
:10535400FFFFFFFF43FD2BED0A00090313000903C0
:105364001C0009030A030903130309031C030903AB
:105374000A060903130609031C06090300000000BA
:1053840000CCCCCCFFFFFFFFFFFFFFFFEEBFFFFF12
:10539400EEEEFFFFFFFFFFFFFFFFFFFFAEEEEFFFAD
:1053A400EEFFBBFF7C0794EF05010A0D0F010A0D08
:1053B40019010A0D050E0A0D0F0E0A0D190E0A0D1C
:1053C400051B0A0D0F1B0A0D191B0A0D0000000016
:1053D40000CCCCCCF0FAFCF4FDBFF5D5113D1400A3
:1053E4007FBF5551FFFFFDFFFBFFFFFF3BF6FF7F34
:1053F400FFFFFFFF7E082AF0150006081B000608C1
:1054040021000608150806081B08060821080608D6
:10541400151006081B1006082110060800000000DD
:1054240000CCCCCCFFCF7FF7FFEFFFFF6B6EFFFF0D
:105434003BAEFFFFDE02FF33FF5FFFEFEF00FF47EE
:10544400330A7F7F8D08B7F102000E0710000E07A4
:105454001E000E0702070E0710070E071E070E0791
:10546400020E0E07100E0E071E0E0E07000000009F
:1054740000CCCCCCFFFFFFFFFFFFFFFFFFBBFFFF14
:10548400FFFFFFFFFFFFFFFFFFFFFFFFFFFFFFFF28
:10549400FFFFFFFFEEF186EC060906030C09060385
:1054A40012090603060C06030C0C0603120C060371
:1054B400060F06030C0F0603120F0603000000007C
:1054C40000CCCCCCFFFFFFFFFFFFFF3FFFFFFFFF40
:1054D400FFFFFFFFFFFFFFFFFFFFFFFFFFFFFFFFD8
:1054E400FFFFFFFFA5F5B9EC05000D0712000D073E
:1054F4001F000D0705070D0712070D071F070D07EE
:10550400050E0D07120E0D071F0E0D0700000000FB
:1055140000CCCCCCFFBFFFFFFFFFFFFFBFABFFFF03
:10552400BFAFFFFFFFFFFFFFFFFFFFFFBFABFFFFAB
:10553400FFFFFFFF4601C0ED1A0002021C00020239
:105544001E0002021A0202021C0202021E020202CF
:105554001A0402021C0402021E04020200000000DB
:1055640000CCCCCCFFFFDFFFFFFFFFFFFFFFFFFFFF
:10557400FFFFFFFFFFFFFFFFFFDFFFFFFFFFFFFF57
:105584007575FFFF600876F008020A0712020A0721
:105594001C020A0708090A0712090A071C090A0754
:1055A40008100A0712100A071C100A07000000005E
:1055B40000CCCCCCABAAFFF7AFBFFFFF2B227F03FD
:1055C400AF6AAFBFBFBFFFBFEFBFFEFFABA27FFF9E
:1055D4009FBFDFE7040815F20D0002020F0002026C
:1055E400110002020D0202020F0202021102020263
:1055F4000D0402020F040202110402020000000062
:1056040000CCCCCCFDDFFBFEFD777EBEFFEFFF7F41
:10561400FBFFFEBEFFEFFEFFFFFFFFAFF7FFFDBE88
:10562400F07F38A8360823F101000E070F000E079B
:105634001D000E0701070E070F070E071D070E07B3
:10564400010E0E070F0E0E071D0E0E0700000000C0
:1056540000CCCCCCFFFFFFFFFFFFFFFFFFBBFFFF32
:10566400FFFFFFFFFFFFFFFFFFFFFFFFFFFFFFFF46
:10567400FFFFFFFFC3EF86EC0502070D0C02070DC9
:105684001302070D050F070D0C0F070D130F070D60
:10569400051C070D0C1C070D131C070D0000000052
:1056A40000CCCCCCFFFFFFFFFFF7F5F5FFFFFFFFBA
:1056B400FFFFFFFFFFFFFFFFFFFFFFFFFFFFFFFFF6
:1056C400FFFFFFFFE6F8D3EC060906030C09060307
:1056D40012090603060C06030C0C0603120C06033F
:1056E400060F06030C0F0603120F0603000000004A
:1056F40000CCCCCCFFFFFFFFBFFFFF3FFFFFFFFF4E
:10570400FFFFFFFFFFFFFFFFFFFFFFFFFFFFFFFFA5
:10571400FFFFFFFF87010EEE05000C0611000C06CB
:105724001D000C0605060C0611060C061D060C06CB
:10573400050C0C06110C0C061D0C0C0600000000D8
:1057440000CCCCCCFFBBFFFFFFFFDFFF8AA2FDF73D
:105754008FAAFFFFBFFFFFFFFFFFFFDFAB8AFDFF45
:10576400AFABBFFFD2033BF0080001010900010108
:105774000A00010108010101090101010A010101F5
:1057840008020101090201010A02010100000000EE
:1057940000CCCCCCFFBBFFE3FE4FEEEEFDFFFEFDE5
:1057A400FFBFFCFFFFFFFFFFF7FF7FFDFDFFFFF7DC
:1057B400FC7DB8AF73077BF22106040C2506040CAC
:1057C4002906040C2112040C2512040C2912040CC1
:1057D400211E040C251E040C291E040C00000000CC
:1057E40000CCCCCC04D4EE8E74EFE28AF7FFFFFF3A
:1057F400FCFE2E2AF9FFF7FDF6FFF7BFF7F7FFDFF0
:10580400FFFFFBFFAC0608F0130E0202150E0202A6
:10581400170E0202131002021510020217100202E0
:1058240013120202151202021712020200000000F3
:1058340000CCCCCC23EFFFE7FFFFFF26226EFEE671
:10584400EBFFFFE43776FF75FFFFFDB767FEFFF55B
:10585400FFFFF7FF6D089DF30707060A0D07060A09
:105864001307060A0711060A0D11060A1311060A80
:10587400071B060A0D1B060A131B060A000000007C
:1058840000CCCCCCFFFFFFFFFFFFF5FFFFFFFFFFC6
:10589400FFFFFFFFFFFFFFFFFFFFFFFFFFFFFFFF14
:1058A400FFFFFFFF2CEF87EC0703060D0D03060D2A
:1058B4001303060D0710060D0D10060D1310060D2B
:1058C400071D060D0D1D060D131D060D000000001D
:1058D40000CCCCCCFFFFFFFFF5F7F5D5FFFFFFFFB2
:1058E400FFFFFFFFFFFFFFFFFFFFFFFFFFFFFFFFC4
:1058F400FFFFFFFFC9F4CBEC070806040D080604FC
:1059040013080604070C06040D0C0604130C060405
:10591400071006040D10060413100604000000000E
:1059240000CCCCCCBFFFFFFFB7F7FF33FFF7FFFF7F
:10593400FFFFFFFFFFFFFFFFFFFFFFFFFFFFFFFF73
:10594400FFFFFFFF4DFDEEED1A0001021B000102F7
:105954001C0001021A0201021B0201021C020102C4
:105964001A0401021B0401021C04010200000000CD
:1059740000CCCCCCFFFFFFFFFFFFAFFFFFFFFFFF1B
:10598400FFFFF7FFFFFFBFFFFFFFFFFFFFFFFFFF6B
:105994007457FFFF9603C1F0040007080B000708C3
:1059A40012000708040807080B080708120807086C
:1059B400041007080B100708121007080000000065
:1059C40000CCCCCCBFFF57F7BABABF33FFEFFF9E72
:1059D400BBBBBB37FFFFFF7FFF7FFF3BABEFFFEF9F
:1059E400EFFBBF3B8506D5F11B24050320240503EB
:1059F400252405031B270503202705032527050365
:105A04001B2A0503202A0503252A0503000000009C
:105A140000CCCCCC00F32FF302FB0303B0F7FFFF61
:105A240072E7E73FBBEFBFBF12FF5BBFB2F7FFF701
:105A3400FFFFEFBFA807FBF30002030E0302030EF0
:105A44000602030E0010030E0310030E0610030ECD
:105A5400001E030E031E030E061E030E00000000AC
:105A640000CCCCCC54D76AEEFFAFFABCFFDFFEFF0C
:105A74007FFEFFEF7077FEFDFFFF7F7EFF7FFDEF70
:105A8400FFFDFFFD930755F30227030205270302D9
:105A94000827030202290302052903020829030235
:105AA400022B0302052B0302082B03020000000053
:105AB40000CCCCCCEFFAF7FF7BFF67FEF6EEEEFEF0
:105AC4007CFAF6424E7FFF7657FF7DFF3CFEF7F0EF
